{
  "contractName": "AQVS",
  "abi": [
    {
      "anonymous": false,
      "inputs": [
        {
          "indexed": false,
          "internalType": "uint256",
          "name": "spaceId",
          "type": "uint256"
        },
        {
          "indexed": false,
          "internalType": "address",
          "name": "spaceAddress",
          "type": "address"
        }
      ],
      "name": "DidAccessSpace",
      "type": "event"
    },
    {
      "anonymous": false,
      "inputs": [
        {
          "indexed": false,
          "internalType": "uint256",
          "name": "spaceId",
          "type": "uint256"
        },
        {
          "indexed": false,
          "internalType": "address",
          "name": "spaceAddress",
          "type": "address"
        }
      ],
      "name": "DidGiftSpaceAccess",
      "type": "event"
    },
    {
      "anonymous": false,
      "inputs": [
        {
          "indexed": false,
          "internalType": "uint256",
          "name": "spaceId",
          "type": "uint256"
        },
        {
          "indexed": false,
          "internalType": "address",
          "name": "spaceAddress",
          "type": "address"
        }
      ],
      "name": "DidMintSpace",
      "type": "event"
    },
    {
      "anonymous": false,
      "inputs": [
        {
          "indexed": true,
          "internalType": "address",
          "name": "previousOwner",
          "type": "address"
        },
        {
          "indexed": true,
          "internalType": "address",
          "name": "newOwner",
          "type": "address"
        }
      ],
      "name": "OwnershipTransferred",
      "type": "event"
    },
    {
      "inputs": [],
      "name": "owner",
      "outputs": [
        {
          "internalType": "address",
          "name": "",
          "type": "address"
        }
      ],
      "stateMutability": "view",
      "type": "function"
    },
    {
      "inputs": [],
      "name": "renounceOwnership",
      "outputs": [],
      "stateMutability": "nonpayable",
      "type": "function"
    },
    {
      "inputs": [],
      "name": "spaceCount",
      "outputs": [
        {
          "internalType": "uint256",
          "name": "",
          "type": "uint256"
        }
      ],
      "stateMutability": "view",
      "type": "function"
    },
    {
      "inputs": [
        {
          "internalType": "address",
          "name": "",
          "type": "address"
        },
        {
          "internalType": "uint256",
          "name": "",
          "type": "uint256"
        }
      ],
      "name": "spaceIdsByAccessor",
      "outputs": [
        {
          "internalType": "uint256",
          "name": "",
          "type": "uint256"
        }
      ],
      "stateMutability": "view",
      "type": "function"
    },
    {
      "inputs": [
        {
          "internalType": "address",
          "name": "",
          "type": "address"
        },
        {
          "internalType": "uint256",
          "name": "",
          "type": "uint256"
        }
      ],
      "name": "spaceIdsByCreator",
      "outputs": [
        {
          "internalType": "uint256",
          "name": "",
          "type": "uint256"
        }
      ],
      "stateMutability": "view",
      "type": "function"
    },
    {
      "inputs": [
        {
          "internalType": "uint256",
          "name": "",
          "type": "uint256"
        }
      ],
      "name": "spacesById",
      "outputs": [
        {
          "internalType": "address",
          "name": "",
          "type": "address"
        }
      ],
      "stateMutability": "view",
      "type": "function"
    },
    {
      "inputs": [],
      "name": "tokens",
      "outputs": [
        {
          "internalType": "contract AQVSTokens",
          "name": "",
          "type": "address"
        }
      ],
      "stateMutability": "view",
      "type": "function"
    },
    {
      "inputs": [
        {
          "internalType": "address",
          "name": "newOwner",
          "type": "address"
        }
      ],
      "name": "transferOwnership",
      "outputs": [],
      "stateMutability": "nonpayable",
      "type": "function"
    },
    {
      "inputs": [],
      "name": "weiCostPerStorageByte",
      "outputs": [
        {
          "internalType": "uint256",
          "name": "",
          "type": "uint256"
        }
      ],
      "stateMutability": "view",
      "type": "function"
    },
    {
      "inputs": [
        {
          "internalType": "string",
          "name": "uri",
          "type": "string"
        }
      ],
      "name": "init",
      "outputs": [],
      "stateMutability": "nonpayable",
      "type": "function"
    },
    {
      "inputs": [],
      "name": "release",
      "outputs": [],
      "stateMutability": "nonpayable",
      "type": "function"
    },
    {
      "inputs": [
        {
          "internalType": "uint256",
          "name": "_weiCostPerStorageByte",
          "type": "uint256"
        }
      ],
      "name": "setWeiCostPerStorageByte",
      "outputs": [],
      "stateMutability": "nonpayable",
      "type": "function"
    },
    {
      "inputs": [
        {
          "internalType": "uint256",
          "name": "supply",
          "type": "uint256"
        },
        {
          "internalType": "uint256",
          "name": "spaceCapacityInBytes",
          "type": "uint256"
        },
        {
          "internalType": "uint256",
          "name": "accessPriceInWei",
          "type": "uint256"
        },
        {
          "internalType": "bool",
          "name": "purchasable",
          "type": "bool"
        }
      ],
      "name": "mintSpace",
      "outputs": [
        {
          "internalType": "uint256",
          "name": "",
          "type": "uint256"
        }
      ],
      "stateMutability": "payable",
      "type": "function"
    },
    {
      "inputs": [
        {
          "internalType": "uint256",
          "name": "spaceId",
          "type": "uint256"
        }
      ],
      "name": "accessSpace",
      "outputs": [
        {
          "internalType": "bool",
          "name": "",
          "type": "bool"
        }
      ],
      "stateMutability": "payable",
      "type": "function"
    },
    {
      "inputs": [
        {
          "internalType": "uint256",
          "name": "spaceId",
          "type": "uint256"
        },
        {
          "internalType": "uint256",
          "name": "additionalSpaceCapacityInBytes",
          "type": "uint256"
        }
      ],
      "name": "addSpaceCapacityInBytes",
      "outputs": [
        {
          "internalType": "bool",
          "name": "",
          "type": "bool"
        }
      ],
      "stateMutability": "payable",
      "type": "function"
    },
    {
      "inputs": [
        {
          "internalType": "uint256",
          "name": "spaceId",
          "type": "uint256"
        },
        {
          "internalType": "address",
          "name": "giftee",
          "type": "address"
        }
      ],
      "name": "giftSpaceAccess",
      "outputs": [
        {
          "internalType": "bool",
          "name": "",
          "type": "bool"
        }
      ],
      "stateMutability": "nonpayable",
      "type": "function"
    },
    {
      "inputs": [
        {
          "internalType": "uint256",
          "name": "supply",
          "type": "uint256"
        },
        {
          "internalType": "uint256",
          "name": "spaceCapacityInBytes",
          "type": "uint256"
        },
        {
          "internalType": "uint256",
          "name": "accessPriceInWei",
          "type": "uint256"
        }
      ],
      "name": "estimateSpaceFees",
      "outputs": [
        {
          "internalType": "uint256",
          "name": "",
          "type": "uint256"
        }
      ],
      "stateMutability": "view",
      "type": "function"
    },
    {
      "inputs": [
        {
          "internalType": "uint256",
          "name": "spaceId",
          "type": "uint256"
        }
      ],
      "name": "remainingSupply",
      "outputs": [
        {
          "internalType": "uint256",
          "name": "",
          "type": "uint256"
        }
      ],
      "stateMutability": "view",
      "type": "function"
    },
    {
      "inputs": [
        {
          "internalType": "uint256",
          "name": "spaceId",
          "type": "uint256"
        }
      ],
      "name": "spaceFees",
      "outputs": [
        {
          "internalType": "uint256",
          "name": "",
          "type": "uint256"
        }
      ],
      "stateMutability": "view",
      "type": "function"
    },
    {
      "inputs": [
        {
          "internalType": "uint256",
          "name": "spaceCapacityInBytes",
          "type": "uint256"
        }
      ],
      "name": "weiCostToMintSpace",
      "outputs": [
        {
          "internalType": "uint256",
          "name": "",
          "type": "uint256"
        }
      ],
      "stateMutability": "view",
      "type": "function"
    },
    {
      "inputs": [
        {
          "internalType": "address",
          "name": "creator",
          "type": "address"
        }
      ],
      "name": "spaceIdsCreatedBy",
      "outputs": [
        {
          "internalType": "uint256[]",
          "name": "",
          "type": "uint256[]"
        }
      ],
      "stateMutability": "view",
      "type": "function"
    },
    {
      "inputs": [
        {
          "internalType": "address",
          "name": "buyer",
          "type": "address"
        }
      ],
      "name": "spaceIdsOwnedBy",
      "outputs": [
        {
          "internalType": "uint256[]",
          "name": "",
          "type": "uint256[]"
        }
      ],
      "stateMutability": "view",
      "type": "function"
    }
  ],
  "bytecode": "0x608060405234801561001057600080fd5b50614b15806100206000396000f3fe608060405260043610620001525760003560e01c80639639fedc11620000bb578063c2b7bd141162000079578063c2b7bd141462000384578063c4f0123814620003a9578063e47d9d5114620003c0578063f2fde38b14620003e5578063f9fbdb9e146200040a578063fa8f9a2e146200042f5762000152565b80639639fedc14620002c95780639d63848a14620002ee578063a054fc531462000306578063a8b0668d146200033a578063b9abd588146200035f5762000152565b8063715018a61162000115578063715018a6146200020057806375c3e435146200021a57806380e4a36d146200023f57806385a99b03146200027357806386d1a69f14620002995780638da5cb5b14620002b15762000152565b80631da6dcdf1462000157578063319ae4b21462000187578063369c3d29146200019f57806347fda41a14620001c457806349a4625b14620001e9575b600080fd5b3480156200016457600080fd5b506200016f62000454565b6040516200017e91906200237f565b60405180910390f35b3480156200019457600080fd5b506200016f6200045a565b348015620001ac57600080fd5b506200016f620001be36600462001f43565b62000460565b348015620001d157600080fd5b506200016f620001e336600462001f43565b6200068c565b6200016f620001fa36600462001ff5565b62000851565b3480156200020d57600080fd5b506200021862000a2a565b005b3480156200022757600080fd5b506200016f6200023936600462001f43565b62000adc565b3480156200024c57600080fd5b50620002646200025e36600462001f43565b62000ae3565b6040516200017e91906200203b565b6200028a6200028436600462001f43565b62000afe565b6040516200017e919062002107565b348015620002a657600080fd5b506200021862000fbc565b348015620002be57600080fd5b5062000264620010b3565b348015620002d657600080fd5b5062000218620002e836600462001f43565b620010c2565b348015620002fb57600080fd5b50620002646200112f565b3480156200031357600080fd5b506200032b6200032536600462001e1d565b6200113e565b6040516200017e9190620020c1565b3480156200034757600080fd5b506200016f6200035936600462001fc9565b620011ac565b3480156200036c57600080fd5b506200016f6200037e36600462001e5b565b6200125d565b3480156200039157600080fd5b506200016f620003a336600462001e5b565b6200128f565b6200028a620003ba36600462001fa7565b620012ac565b348015620003cd57600080fd5b506200028a620003df36600462001f75565b620014af565b348015620003f257600080fd5b50620002186200040436600462001e1d565b62001823565b3480156200041757600080fd5b50620002186200042936600462001ea8565b6200192e565b3480156200043c57600080fd5b506200032b6200044e36600462001e1d565b62001a49565b60675481565b60665481565b60008181526068602090815260408083205481516302d05d3f60e01b815291516001600160a01b0390911692849284926302d05d3f92600480840193919291829003018186803b158015620004b457600080fd5b505afa158015620004c9573d6000803e3d6000fd5b505050506040513d601f19601f82011682018060405250810190620004ef919062001e3c565b6001600160a01b03161415620005225760405162461bcd60e51b8152600401620005199062002281565b60405180910390fd5b62000685816001600160a01b031663047fc9aa6040518163ffffffff1660e01b815260040160206040518083038186803b1580156200056057600080fd5b505afa15801562000575573d6000803e3d6000fd5b505050506040513d601f19601f820116820180604052508101906200059b919062001f5c565b826001600160a01b0316637aa039b86040518163ffffffff1660e01b815260040160206040518083038186803b158015620005d557600080fd5b505afa158015620005ea573d6000803e3d6000fd5b505050506040513d601f19601f8201168201806040525081019062000610919062001f5c565b836001600160a01b0316637fdc13126040518163ffffffff1660e01b815260040160206040518083038186803b1580156200064a57600080fd5b505afa1580156200065f573d6000803e3d6000fd5b505050506040513d601f19601f8201168201806040525081019062000359919062001f5c565b9392505050565b60008181526068602090815260408083205481516302d05d3f60e01b815291516001600160a01b0390911692849284926302d05d3f92600480840193919291829003018186803b158015620006e057600080fd5b505afa158015620006f5573d6000803e3d6000fd5b505050506040513d601f19601f820116820180604052508101906200071b919062001e3c565b6001600160a01b03161415620007455760405162461bcd60e51b8152600401620005199062002281565b606560009054906101000a90046001600160a01b03166001600160a01b031662fdd58e826001600160a01b03166302d05d3f6040518163ffffffff1660e01b815260040160206040518083038186803b158015620007a257600080fd5b505afa158015620007b7573d6000803e3d6000fd5b505050506040513d601f19601f82011682018060405250810190620007dd919062001e3c565b856040518363ffffffff1660e01b8152600401620007fd92919062002087565b60206040518083038186803b1580156200081657600080fd5b505afa1580156200082b573d6000803e3d6000fd5b505050506040513d601f19601f8201168201806040525081019062000685919062001f5c565b60006200085e8462000adc565b341015620008805760405162461bcd60e51b8152600401620005199062002306565b6200088d858585620011ac565b831015620008af5760405162461bcd60e51b81526004016200051990620021e0565b6000620008bb62001ab5565b60668054600101905560405190915086908690869086908590620008df9062001e01565b620008ef9594939291906200239f565b604051809103906000f08015620009035760015b620009225760405162461bcd60e51b81526004016200051990620021b5565b606554606654604051630ab714fb60e11b81526001600160a01b039092169163156e29f6916200095a918691908c90600401620020a0565b600060405180830381600087803b1580156200097557600080fd5b505af11580156200098a573d6000803e3d6000fd5b505060668054600090815260686020908152604080832080546001600160a01b0319166001600160a01b03898116919091179091558816835260698252808320845481546001810183559185529290932090920155905490517f1fce8e247008119c5002087d6dfc56155c506f4108c23698fc9c1b6018995d54935062000a149250849062002388565b60405180910390a1505050606654949350505050565b62000a3462001ab5565b6001600160a01b031662000a47620010b3565b6001600160a01b03161462000a92576040805162461bcd60e51b8152602060048201819052602482015260008051602062004ac0833981519152604482015290519081900360640190fd5b6033546040516000916001600160a01b0316907f8be0079c531659141344cd1fd0a4f28419497f9722a3daafe3b4186f6b6457e0908390a3603380546001600160a01b0319169055565b6067540290565b6068602052600090815260409020546001600160a01b031681565b60008181526068602090815260408083205481516302d05d3f60e01b815291516001600160a01b0390911692849284926302d05d3f92600480840193919291829003018186803b15801562000b5257600080fd5b505afa15801562000b67573d6000803e3d6000fd5b505050506040513d601f19601f8201168201806040525081019062000b8d919062001e3c565b6001600160a01b0316141562000bb75760405162461bcd60e51b8152600401620005199062002281565b806001600160a01b0316637fdc13126040518163ffffffff1660e01b815260040160206040518083038186803b15801562000bf157600080fd5b505afa15801562000c06573d6000803e3d6000fd5b505050506040513d601f19601f8201168201806040525081019062000c2c919062001f5c565b34101562000c4e5760405162461bcd60e51b8152600401620005199062002306565b806001600160a01b0316633f3d83c36040518163ffffffff1660e01b815260040160206040518083038186803b15801562000c8857600080fd5b505afa15801562000c9d573d6000803e3d6000fd5b505050506040513d601f19601f8201168201806040525081019062000cc3919062001e89565b151560011462000ce75760405162461bcd60e51b8152600401620005199062002207565b600062000cf362001ab5565b606554604051627eeac760e11b81529192506001600160a01b03169062fdd58e9062000d26908490889060040162002087565b60206040518083038186803b15801562000d3f57600080fd5b505afa15801562000d54573d6000803e3d6000fd5b505050506040513d601f19601f8201168201806040525081019062000d7a919062001f5c565b1562000d9a5760405162461bcd60e51b81526004016200051990620022ab565b606560009054906101000a90046001600160a01b03166001600160a01b031663f242432a836001600160a01b03166302d05d3f6040518163ffffffff1660e01b815260040160206040518083038186803b15801562000df857600080fd5b505afa15801562000e0d573d6000803e3d6000fd5b505050506040513d601f19601f8201168201806040525081019062000e33919062001e3c565b838760016040518563ffffffff1660e01b815260040162000e5894939291906200204f565b600060405180830381600087803b15801562000e7357600080fd5b505af115801562000e88573d6000803e3d6000fd5b50505050600062000e998562000460565b9050600062000ea9348362001ab9565b90506000846001600160a01b031663a6f2ae3a836040518263ffffffff1660e01b81526004016020604051808303818588803b15801562000ee957600080fd5b505af115801562000efe573d6000803e3d6000fd5b50505050506040513d601f19601f8201168201806040525081019062000f25919062001e89565b90508062000f475760405162461bcd60e51b81526004016200051990620022d7565b6001600160a01b0384166000908152606a6020908152604080832080546001810182559084529190922001889055517f3529f9f3c13f3ef4654872d6333a2ab23645d74430b1a5ee2e4a16f935fd69ad9062000fa7908990889062002388565b60405180910390a15060019695505050505050565b62000fc662001ab5565b6001600160a01b031662000fd9620010b3565b6001600160a01b03161462001024576040805162461bcd60e51b8152602060048201819052602482015260008051602062004ac0833981519152604482015290519081900360640190fd5b600062001030620010b3565b6001600160a01b031647604051620010489062002038565b60006040518083038185875af1925050503d806000811462001087576040519150601f19603f3d011682016040523d82523d6000602084013e6200108c565b606091505b5050905080620010b05760405162461bcd60e51b8152600401620005199062002354565b50565b6033546001600160a01b031690565b620010cc62001ab5565b6001600160a01b0316620010df620010b3565b6001600160a01b0316146200112a576040805162461bcd60e51b8152602060048201819052602482015260008051602062004ac0833981519152604482015290519081900360640190fd5b606755565b6065546001600160a01b031681565b6001600160a01b038116600090815260696020908152604091829020805483518184028101840190945280845260609392830182828015620011a057602002820191906000526020600020905b8154815260200190600101908083116200118b575b50505050509050919050565b6000808411620011d05760405162461bcd60e51b8152600401620005199062002259565b620f42408410620011f55760405162461bcd60e51b8152600401620005199062002230565b6203e7ff83116200121a5760405162461bcd60e51b815260040162000519906200232b565b64174876e8018310620012415760405162461bcd60e51b815260040162000519906200218e565b6200124e82606462001b17565b60675484020190509392505050565b606960205281600052604060002081815481106200127a57600080fd5b90600052602060002001600091509150505481565b606a60205281600052604060002081815481106200127a57600080fd5b60008281526068602090815260408083205481516302d05d3f60e01b815291516001600160a01b0390911692849284926302d05d3f92600480840193919291829003018186803b1580156200130057600080fd5b505afa15801562001315573d6000803e3d6000fd5b505050506040513d601f19601f820116820180604052508101906200133b919062001e3c565b6001600160a01b03161415620013655760405162461bcd60e51b8152600401620005199062002281565b6200136f62001ab5565b6001600160a01b0316816001600160a01b03166302d05d3f6040518163ffffffff1660e01b815260040160206040518083038186803b158015620013b257600080fd5b505afa158015620013c7573d6000803e3d6000fd5b505050506040513d601f19601f82011682018060405250810190620013ed919062001e3c565b6001600160a01b031614620014165760405162461bcd60e51b8152600401620005199062002168565b34620014228462000adc565b1015620014435760405162461bcd60e51b8152600401620005199062002306565b6040516375c6872760e11b81526001600160a01b0382169063eb8d0e4e90620014719086906004016200237f565b600060405180830381600087803b1580156200148c57600080fd5b505af1158015620014a1573d6000803e3d6000fd5b506001979650505050505050565b60008281526068602090815260408083205481516302d05d3f60e01b815291516001600160a01b0390911692849284926302d05d3f92600480840193919291829003018186803b1580156200150357600080fd5b505afa15801562001518573d6000803e3d6000fd5b505050506040513d601f19601f820116820180604052508101906200153e919062001e3c565b6001600160a01b03161415620015685760405162461bcd60e51b8152600401620005199062002281565b6200157262001ab5565b6001600160a01b0316816001600160a01b03166302d05d3f6040518163ffffffff1660e01b815260040160206040518083038186803b158015620015b557600080fd5b505afa158015620015ca573d6000803e3d6000fd5b505050506040513d601f19601f82011682018060405250810190620015f0919062001e3c565b6001600160a01b031614620016195760405162461bcd60e51b8152600401620005199062002168565b606554604051627eeac760e11b81526001600160a01b039091169062fdd58e906200164b908690889060040162002087565b60206040518083038186803b1580156200166457600080fd5b505afa15801562001679573d6000803e3d6000fd5b505050506040513d601f19601f820116820180604052508101906200169f919062001f5c565b15620016bf5760405162461bcd60e51b81526004016200051990620022ab565b606560009054906101000a90046001600160a01b03166001600160a01b031663f242432a826001600160a01b03166302d05d3f6040518163ffffffff1660e01b815260040160206040518083038186803b1580156200171d57600080fd5b505afa15801562001732573d6000803e3d6000fd5b505050506040513d601f19601f8201168201806040525081019062001758919062001e3c565b858760016040518563ffffffff1660e01b81526004016200177d94939291906200204f565b600060405180830381600087803b1580156200179857600080fd5b505af1158015620017ad573d6000803e3d6000fd5b5050506001600160a01b0384166000908152606a6020908152604080832080546001810182559084529190922001869055517f6ba0f9aba48b0cbcb84e4f14142a3fa09245a4395c829c359aac5fed95fcf5a1915062001811908690849062002388565b60405180910390a15060019392505050565b6200182d62001ab5565b6001600160a01b031662001840620010b3565b6001600160a01b0316146200188b576040805162461bcd60e51b8152602060048201819052602482015260008051602062004ac0833981519152604482015290519081900360640190fd5b6001600160a01b038116620018d25760405162461bcd60e51b815260040180806020018281038252602681526020018062004a6c6026913960400191505060405180910390fd5b6033546040516001600160a01b038084169216907f8be0079c531659141344cd1fd0a4f28419497f9722a3daafe3b4186f6b6457e090600090a3603380546001600160a01b0319166001600160a01b0392909216919091179055565b600054610100900460ff16806200194a57506200194a62001b80565b8062001959575060005460ff16155b620019965760405162461bcd60e51b815260040180806020018281038252602e81526020018062004a92602e913960400191505060405180910390fd5b600054610100900460ff16158015620019c2576000805460ff1961ff0019909116610100171660011790555b620019cc62001b93565b81604051620019db9062001e0f565b620019e7919062002112565b604051809103906000f08015801562001a04573d6000803e3d6000fd5b50606580546001600160a01b0319166001600160a01b03929092169190911790556000606655637d2b7500606755801562001a45576000805461ff00191690555b5050565b6001600160a01b0381166000908152606a6020908152604091829020805483518184028101840190945280845260609392830182828015620011a057602002820191906000526020600020908154815260200190600101908083116200118b5750505050509050919050565b3390565b60008282111562001b11576040805162461bcd60e51b815260206004820152601e60248201527f536166654d6174683a207375627472616374696f6e206f766572666c6f770000604482015290519081900360640190fd5b50900390565b600080821162001b6e576040805162461bcd60e51b815260206004820152601a60248201527f536166654d6174683a206469766973696f6e206279207a65726f000000000000604482015290519081900360640190fd5b81838162001b7857fe5b049392505050565b600062001b8d3062001c50565b15905090565b600054610100900460ff168062001baf575062001baf62001b80565b8062001bbe575060005460ff16155b62001bfb5760405162461bcd60e51b815260040180806020018281038252602e81526020018062004a92602e913960400191505060405180910390fd5b600054610100900460ff1615801562001c27576000805460ff1961ff0019909116610100171660011790555b62001c3162001c56565b62001c3b62001cfe565b8015620010b0576000805461ff001916905550565b3b151590565b600054610100900460ff168062001c72575062001c7262001b80565b8062001c81575060005460ff16155b62001cbe5760405162461bcd60e51b815260040180806020018281038252602e81526020018062004a92602e913960400191505060405180910390fd5b600054610100900460ff1615801562001c3b576000805460ff1961ff0019909116610100171660011790558015620010b0576000805461ff001916905550565b600054610100900460ff168062001d1a575062001d1a62001b80565b8062001d29575060005460ff16155b62001d665760405162461bcd60e51b815260040180806020018281038252602e81526020018062004a92602e913960400191505060405180910390fd5b600054610100900460ff1615801562001d92576000805460ff1961ff0019909116610100171660011790555b600062001d9e62001ab5565b603380546001600160a01b0319166001600160a01b038316908117909155604051919250906000907f8be0079c531659141344cd1fd0a4f28419497f9722a3daafe3b4186f6b6457e0908290a3508015620010b0576000805461ff001916905550565b61091f80620023f383390190565b611d5a8062002d1283390190565b60006020828403121562001e2f578081fd5b81356200068581620023cd565b60006020828403121562001e4e578081fd5b81516200068581620023cd565b6000806040838503121562001e6e578081fd5b823562001e7b81620023cd565b946020939093013593505050565b60006020828403121562001e9b578081fd5b81516200068581620023e3565b6000602080838503121562001ebb578182fd5b823567ffffffffffffffff8082111562001ed3578384fd5b818501915085601f83011262001ee7578384fd5b81358181111562001ef457fe5b604051601f8201601f191681018501838111828210171562001f1257fe5b604052818152838201850188101562001f29578586fd5b818585018683013790810190930193909352509392505050565b60006020828403121562001f55578081fd5b5035919050565b60006020828403121562001f6e578081fd5b5051919050565b6000806040838503121562001f88578182fd5b82359150602083013562001f9c81620023cd565b809150509250929050565b6000806040838503121562001fba578182fd5b50508035926020909101359150565b60008060006060848603121562001fde578081fd5b505081359360208301359350604090920135919050565b600080600080608085870312156200200b578081fd5b84359350602085013592506040850135915060608501356200202d81620023e3565b939692955090935050565b90565b6001600160a01b0391909116815260200190565b6001600160a01b0394851681529290931660208301526040820152606081019190915260a06080820181905260009082015260c00190565b6001600160a01b03929092168252602082015260400190565b6001600160a01b039390931683526020830191909152604082015260600190565b6020808252825182820181905260009190848201906040850190845b81811015620020fb57835183529284019291840191600101620020dd565b50909695505050505050565b901515815260200190565b6000602080835283518082850152825b81811015620021405785810183015185820160400152820162002122565b81811115620021525783604083870101525b50601f01601f1916929092016040019392505050565b6020808252600c908201526b37b7363cafb1b932b0ba37b960a11b604082015260600190565b6020808252600d908201526c73706163655f746f6f5f62696760981b604082015260600190565b6020808252601190820152701b585ad957dcdc1858d957d9985a5b1959607a1b604082015260600190565b6020808252600d908201526c70726963655f746f6f5f6c6f7760981b604082015260600190565b6020808252600f908201526e6e6f745f7075726368617361626c6560881b604082015260600190565b6020808252600f908201526e0e6eae0e0d8f2bee8dedebed0d2ced608b1b604082015260600190565b6020808252600e908201526d737570706c795f746f6f5f6c6f7760901b604082015260600190565b60208082526010908201526f1cdc1858d957db5d5cdd17d95e1a5cdd60821b604082015260600190565b602080825260129082015271616c72656164795f6f776e735f737061636560701b604082015260600190565b6020808252601590820152743330b4b632b22fba37afb830bcafb1b932b0ba37b960591b604082015260600190565b6020808252600b908201526a18985917dc185e5b595b9d60aa1b604082015260600190565b6020808252600f908201526e1cdc1858d957dd1bdbd7dcdb585b1b608a1b604082015260600190565b6020808252601190820152706661696c65645f746f5f72656c6561736560781b604082015260600190565b90815260200190565b9182526001600160a01b0316602082015260400190565b94855260208501939093526040840191909152151560608301526001600160a01b0316608082015260a00190565b6001600160a01b0381168114620010b057600080fd5b8015158114620010b057600080fdfe608060405234801561001057600080fd5b5060405161091f38038061091f83398101604081905261002f916100d1565b60006100396100cd565b600080546001600160a01b0319166001600160a01b0383169081178255604051929350917f8be0079c531659141344cd1fd0a4f28419497f9722a3daafe3b4186f6b6457e0908290a3506001949094556002929092556003556004805460ff60a01b1916600160a01b92151592909202919091176001600160a01b0319166001600160a01b03909216919091179055610136565b3390565b600080600080600060a086880312156100e8578081fd5b8551945060208601519350604086015192506060860151801515811461010c578182fd5b60808701519092506001600160a01b0381168114610128578182fd5b809150509295509295909350565b6107da806101456000396000f3fe6080604052600436106100c25760003560e01c80637aa039b81161007f5780638da5cb5b116100595780638da5cb5b146101cc578063a6f2ae3a146101e1578063eb8d0e4e146101e9578063f2fde38b14610209576100c2565b80637aa039b81461018d5780637fdc1312146101a257806386d1a69f146101b7576100c2565b806302d05d3f146100c7578063047fc9aa146100f25780633f3d83c3146101145780635a1498b014610136578063715018a61461015857806376052df81461016d575b600080fd5b3480156100d357600080fd5b506100dc610229565b6040516100e991906106f6565b60405180910390f35b3480156100fe57600080fd5b50610107610238565b6040516100e9919061073b565b34801561012057600080fd5b5061012961023e565b6040516100e9919061070a565b34801561014257600080fd5b506101566101513660046106de565b61024e565b005b34801561016457600080fd5b50610156610291565b34801561017957600080fd5b506101566101883660046106be565b61034f565b34801561019957600080fd5b506101076103a2565b3480156101ae57600080fd5b506101076103a8565b3480156101c357600080fd5b506101566103ae565b3480156101d857600080fd5b506100dc6103fb565b61012961040a565b3480156101f557600080fd5b506101566102043660046106de565b61040f565b34801561021557600080fd5b50610156610224366004610690565b61048e565b6004546001600160a01b031681565b60015481565b600454600160a01b900460ff1681565b6102566105a2565b6004546001600160a01b0390811691161461028c5760405162461bcd60e51b815260040161028390610715565b60405180910390fd5b600355565b6102996105a2565b6001600160a01b03166102aa6103fb565b6001600160a01b031614610305576040805162461bcd60e51b815260206004820181905260248201527f4f776e61626c653a2063616c6c6572206973206e6f7420746865206f776e6572604482015290519081900360640190fd5b600080546040516001600160a01b03909116907f8be0079c531659141344cd1fd0a4f28419497f9722a3daafe3b4186f6b6457e0908390a3600080546001600160a01b0319169055565b6103576105a2565b6004546001600160a01b039081169116146103845760405162461bcd60e51b815260040161028390610715565b60048054911515600160a01b0260ff60a01b19909216919091179055565b60025481565b60035481565b6103b66105a2565b6004546001600160a01b039081169116146103e35760405162461bcd60e51b815260040161028390610715565b6004546103f9906001600160a01b0316476105a6565b565b6000546001600160a01b031690565b600190565b6104176105a2565b6001600160a01b03166104286103fb565b6001600160a01b031614610483576040805162461bcd60e51b815260206004820181905260248201527f4f776e61626c653a2063616c6c6572206973206e6f7420746865206f776e6572604482015290519081900360640190fd5b600280549091019055565b6104966105a2565b6001600160a01b03166104a76103fb565b6001600160a01b031614610502576040805162461bcd60e51b815260206004820181905260248201527f4f776e61626c653a2063616c6c6572206973206e6f7420746865206f776e6572604482015290519081900360640190fd5b6001600160a01b0381166105475760405162461bcd60e51b81526004018080602001828103825260268152602001806107456026913960400191505060405180910390fd5b600080546040516001600160a01b03808516939216917f8be0079c531659141344cd1fd0a4f28419497f9722a3daafe3b4186f6b6457e091a3600080546001600160a01b0319166001600160a01b0392909216919091179055565b3390565b804710156105fb576040805162461bcd60e51b815260206004820152601d60248201527f416464726573733a20696e73756666696369656e742062616c616e6365000000604482015290519081900360640190fd5b6040516000906001600160a01b0384169083908381818185875af1925050503d8060008114610646576040519150601f19603f3d011682016040523d82523d6000602084013e61064b565b606091505b505090508061068b5760405162461bcd60e51b815260040180806020018281038252603a81526020018061076b603a913960400191505060405180910390fd5b505050565b6000602082840312156106a1578081fd5b81356001600160a01b03811681146106b7578182fd5b9392505050565b6000602082840312156106cf578081fd5b813580151581146106b7578182fd5b6000602082840312156106ef578081fd5b5035919050565b6001600160a01b0391909116815260200190565b901515815260200190565b6020808252600c908201526b37b7363cafb1b932b0ba37b960a11b604082015260600190565b9081526020019056fe4f776e61626c653a206e6577206f776e657220697320746865207a65726f2061646472657373416464726573733a20756e61626c6520746f2073656e642076616c75652c20726563697069656e74206d61792068617665207265766572746564a2646970667358221220de7deaddb521be2460d3a20bdd199fdff4b1ee830ef6960af2e6eb75554062c364736f6c6343000706003360806040523480156200001157600080fd5b5060405162001d5a38038062001d5a833981810160405260208110156200003757600080fd5b81019080805160405193929190846401000000008211156200005857600080fd5b9083019060208201858111156200006e57600080fd5b82516401000000008111828201881017156200008957600080fd5b82525081516020918201929091019080838360005b83811015620000b85781810151838201526020016200009e565b50505050905090810190601f168015620000e65780820380516001836020036101000a031916815260200191505b50604052505050806000620001006200019360201b60201c565b600080546001600160a01b0319166001600160a01b0383169081178255604051929350917f8be0079c531659141344cd1fd0a4f28419497f9722a3daafe3b4186f6b6457e0908290a3506200015c6301ffc9a760e01b62000197565b62000167816200021f565b62000179636cdb3d1360e11b62000197565b6200018b6303a24d0760e21b62000197565b5050620002e4565b3390565b6001600160e01b03198082161415620001f7576040805162461bcd60e51b815260206004820152601c60248201527f4552433136353a20696e76616c696420696e7465726661636520696400000000604482015290519081900360640190fd5b6001600160e01b0319166000908152600160208190526040909120805460ff19169091179055565b80516200023490600490602084019062000238565b5050565b828054600181600116156101000203166002900490600052602060002090601f016020900481019282620002705760008555620002bb565b82601f106200028b57805160ff1916838001178555620002bb565b82800160010185558215620002bb579182015b82811115620002bb5782518255916020019190600101906200029e565b50620002c9929150620002cd565b5090565b5b80821115620002c95760008155600101620002ce565b611a6680620002f46000396000f3fe608060405234801561001057600080fd5b50600436106100b35760003560e01c8063715018a611610071578063715018a61461052b5780638da5cb5b14610533578063a22cb46514610557578063e985e9c514610585578063f242432a146105b3578063f2fde38b1461067c576100b3565b8062fdd58e146100b857806301ffc9a7146100f65780630e89341c14610131578063156e29f6146101c35780632eb2c2d6146101f75780634e1273f4146103b8575b600080fd5b6100e4600480360360408110156100ce57600080fd5b506001600160a01b0381351690602001356106a2565b60408051918252519081900360200190f35b61011d6004803603602081101561010c57600080fd5b50356001600160e01b031916610714565b604080519115158252519081900360200190f35b61014e6004803603602081101561014757600080fd5b5035610733565b6040805160208082528351818301528351919283929083019185019080838360005b83811015610188578181015183820152602001610170565b50505050905090810190601f1680156101b55780820380516001836020036101000a031916815260200191505b509250505060405180910390f35b6101f5600480360360608110156101d957600080fd5b506001600160a01b0381351690602081013590604001356107cb565b005b6101f5600480360360a081101561020d57600080fd5b6001600160a01b038235811692602081013590911691810190606081016040820135600160201b81111561024057600080fd5b82018360208201111561025257600080fd5b803590602001918460208302840111600160201b8311171561027357600080fd5b9190808060200260200160405190810160405280939291908181526020018383602002808284376000920191909152509295949360208101935035915050600160201b8111156102c257600080fd5b8201836020820111156102d457600080fd5b803590602001918460208302840111600160201b831117156102f557600080fd5b9190808060200260200160405190810160405280939291908181526020018383602002808284376000920191909152509295949360208101935035915050600160201b81111561034457600080fd5b82018360208201111561035657600080fd5b803590602001918460018302840111600160201b8311171561037757600080fd5b91908080601f01602080910402602001604051908101604052809392919081815260200183838082843760009201919091525092955061085f945050505050565b6104db600480360360408110156103ce57600080fd5b810190602081018135600160201b8111156103e857600080fd5b8201836020820111156103fa57600080fd5b803590602001918460208302840111600160201b8311171561041b57600080fd5b9190808060200260200160405190810160405280939291908181526020018383602002808284376000920191909152509295949360208101935035915050600160201b81111561046a57600080fd5b82018360208201111561047c57600080fd5b803590602001918460208302840111600160201b8311171561049d57600080fd5b919080806020026020016040519081016040528093929190818152602001838360200280828437600092019190915250929550610b62945050505050565b60408051602080825283518183015283519192839290830191858101910280838360005b838110156105175781810151838201526020016104ff565b505050509050019250505060405180910390f35b6101f5610c4e565b61053b610d0c565b604080516001600160a01b039092168252519081900360200190f35b6101f56004803603604081101561056d57600080fd5b506001600160a01b0381351690602001351515610d1c565b61011d6004803603604081101561059b57600080fd5b506001600160a01b0381358116916020013516610e0b565b6101f5600480360360a08110156105c957600080fd5b6001600160a01b03823581169260208101359091169160408201359160608101359181019060a081016080820135600160201b81111561060857600080fd5b82018360208201111561061a57600080fd5b803590602001918460018302840111600160201b8311171561063b57600080fd5b91908080601f016020809104026020016040519081016040528093929190818152602001838380828437600092019190915250929550610e4e945050505050565b6101f56004803603602081101561069257600080fd5b50356001600160a01b0316611019565b60006001600160a01b0383166106e95760405162461bcd60e51b815260040180806020018281038252602b81526020018061189b602b913960400191505060405180910390fd5b5060008181526002602090815260408083206001600160a01b03861684529091529020545b92915050565b6001600160e01b03191660009081526001602052604090205460ff1690565b60048054604080516020601f60026000196101006001881615020190951694909404938401819004810282018101909252828152606093909290918301828280156107bf5780601f10610794576101008083540402835291602001916107bf565b820191906000526020600020905b8154815290600101906020018083116107a257829003601f168201915b50505050509050919050565b6107d361112d565b6001600160a01b03166107e4610d0c565b6001600160a01b03161461083f576040805162461bcd60e51b815260206004820181905260248201527f4f776e61626c653a2063616c6c6572206973206e6f7420746865206f776e6572604482015290519081900360640190fd5b61085a83838360405180602001604052806000815250611131565b505050565b815183511461089f5760405162461bcd60e51b81526004018080602001828103825260288152602001806119e86028913960400191505060405180910390fd5b6001600160a01b0384166108e45760405162461bcd60e51b81526004018080602001828103825260258152602001806119156025913960400191505060405180910390fd5b6108ec61112d565b6001600160a01b0316856001600160a01b0316148061091757506109178561091261112d565b610e0b565b6109525760405162461bcd60e51b815260040180806020018281038252603281526020018061193a6032913960400191505060405180910390fd5b600061095c61112d565b905061096c818787878787610b5a565b60005b8451811015610a7257600085828151811061098657fe5b60200260200101519050600085838151811061099e57fe5b60200260200101519050610a0b816040518060600160405280602a815260200161196c602a91396002600086815260200190815260200160002060008d6001600160a01b03166001600160a01b03168152602001908152602001600020546112399092919063ffffffff16565b60008381526002602090815260408083206001600160a01b038e811685529252808320939093558a1681522054610a4290826112d0565b60009283526002602090815260408085206001600160a01b038c168652909152909220919091555060010161096f565b50846001600160a01b0316866001600160a01b0316826001600160a01b03167f4a39dc06d4c0dbc64b70af90fd698a233a518aa5d07e595d983b8c0526c8f7fb8787604051808060200180602001838103835285818151815260200191508051906020019060200280838360005b83811015610af8578181015183820152602001610ae0565b50505050905001838103825284818151815260200191508051906020019060200280838360005b83811015610b37578181015183820152602001610b1f565b5050505090500194505050505060405180910390a4610b5a81878787878761132a565b505050505050565b60608151835114610ba45760405162461bcd60e51b81526004018080602001828103825260298152602001806119bf6029913960400191505060405180910390fd5b6000835167ffffffffffffffff81118015610bbe57600080fd5b50604051908082528060200260200182016040528015610be8578160200160208202803683370190505b50905060005b8451811015610c4657610c27858281518110610c0657fe5b6020026020010151858381518110610c1a57fe5b60200260200101516106a2565b828281518110610c3357fe5b6020908102919091010152600101610bee565b509392505050565b610c5661112d565b6001600160a01b0316610c67610d0c565b6001600160a01b031614610cc2576040805162461bcd60e51b815260206004820181905260248201527f4f776e61626c653a2063616c6c6572206973206e6f7420746865206f776e6572604482015290519081900360640190fd5b600080546040516001600160a01b03909116907f8be0079c531659141344cd1fd0a4f28419497f9722a3daafe3b4186f6b6457e0908390a3600080546001600160a01b0319169055565b6000546001600160a01b03165b90565b816001600160a01b0316610d2e61112d565b6001600160a01b03161415610d745760405162461bcd60e51b81526004018080602001828103825260298152602001806119966029913960400191505060405180910390fd5b8060036000610d8161112d565b6001600160a01b03908116825260208083019390935260409182016000908120918716808252919093529120805460ff191692151592909217909155610dc561112d565b6001600160a01b03167f17307eab39ab6107e8899845ad3d59bd9653f200f220920489ca2b5937696c318360405180821515815260200191505060405180910390a35050565b6000610e15610d0c565b6001600160a01b0316610e2661112d565b6001600160a01b03161415610e3d5750600161070e565b610e4783836115a9565b9392505050565b6001600160a01b038416610e935760405162461bcd60e51b81526004018080602001828103825260258152602001806119156025913960400191505060405180910390fd5b610e9b61112d565b6001600160a01b0316856001600160a01b03161480610ec15750610ec18561091261112d565b610efc5760405162461bcd60e51b81526004018080602001828103825260298152602001806118ec6029913960400191505060405180910390fd5b6000610f0661112d565b9050610f26818787610f17886115d7565b610f20886115d7565b87610b5a565b610f6d836040518060600160405280602a815260200161196c602a913960008781526002602090815260408083206001600160a01b038d1684529091529020549190611239565b60008581526002602090815260408083206001600160a01b038b81168552925280832093909355871681522054610fa490846112d0565b60008581526002602090815260408083206001600160a01b03808b168086529184529382902094909455805188815291820187905280518a8416938616927fc3d58168c5ae7397731d063d5bbf3d657854427343f4c083240f7aacaa2d0f6292908290030190a4610b5a81878787878761161c565b61102161112d565b6001600160a01b0316611032610d0c565b6001600160a01b03161461108d576040805162461bcd60e51b815260206004820181905260248201527f4f776e61626c653a2063616c6c6572206973206e6f7420746865206f776e6572604482015290519081900360640190fd5b6001600160a01b0381166110d25760405162461bcd60e51b81526004018080602001828103825260268152602001806118c66026913960400191505060405180910390fd5b600080546040516001600160a01b03808516939216917f8be0079c531659141344cd1fd0a4f28419497f9722a3daafe3b4186f6b6457e091a3600080546001600160a01b0319166001600160a01b0392909216919091179055565b3390565b6001600160a01b0384166111765760405162461bcd60e51b8152600401808060200182810382526021815260200180611a106021913960400191505060405180910390fd5b600061118061112d565b905061119281600087610f17886115d7565b60008481526002602090815260408083206001600160a01b03891684529091529020546111bf90846112d0565b60008581526002602090815260408083206001600160a01b03808b16808652918452828520959095558151898152928301889052815190948616927fc3d58168c5ae7397731d063d5bbf3d657854427343f4c083240f7aacaa2d0f6292908290030190a46112328160008787878761161c565b5050505050565b600081848411156112c85760405162461bcd60e51b81526004018080602001828103825283818151815260200191508051906020019080838360005b8381101561128d578181015183820152602001611275565b50505050905090810190601f1680156112ba5780820380516001836020036101000a031916815260200191505b509250505060405180910390fd5b505050900390565b600082820183811015610e47576040805162461bcd60e51b815260206004820152601b60248201527f536166654d6174683a206164646974696f6e206f766572666c6f770000000000604482015290519081900360640190fd5b61133c846001600160a01b031661178d565b15610b5a57836001600160a01b031663bc197c8187878686866040518663ffffffff1660e01b815260040180866001600160a01b03168152602001856001600160a01b03168152602001806020018060200180602001848103845287818151815260200191508051906020019060200280838360005b838110156113ca5781810151838201526020016113b2565b50505050905001848103835286818151815260200191508051906020019060200280838360005b838110156114095781810151838201526020016113f1565b50505050905001848103825285818151815260200191508051906020019080838360005b8381101561144557818101518382015260200161142d565b50505050905090810190601f1680156114725780820380516001836020036101000a031916815260200191505b5098505050505050505050602060405180830381600087803b15801561149757600080fd5b505af19250505080156114bc57506040513d60208110156114b757600080fd5b505160015b611551576114c8611799565b806114d3575061151a565b60405162461bcd60e51b815260206004820181815283516024840152835184939192839260440191908501908083836000831561128d578181015183820152602001611275565b60405162461bcd60e51b815260040180806020018281038252603481526020018061183f6034913960400191505060405180910390fd5b6001600160e01b0319811663bc197c8160e01b146115a05760405162461bcd60e51b81526004018080602001828103825260288152602001806118736028913960400191505060405180910390fd5b50505050505050565b6001600160a01b03918216600090815260036020908152604080832093909416825291909152205460ff1690565b6040805160018082528183019092526060916000919060208083019080368337019050509050828160008151811061160b57fe5b602090810291909101015292915050565b61162e846001600160a01b031661178d565b15610b5a57836001600160a01b031663f23a6e6187878686866040518663ffffffff1660e01b815260040180866001600160a01b03168152602001856001600160a01b0316815260200184815260200183815260200180602001828103825283818151815260200191508051906020019080838360005b838110156116bd5781810151838201526020016116a5565b50505050905090810190601f1680156116ea5780820380516001836020036101000a031916815260200191505b509650505050505050602060405180830381600087803b15801561170d57600080fd5b505af192505050801561173257506040513d602081101561172d57600080fd5b505160015b61173e576114c8611799565b6001600160e01b0319811663f23a6e6160e01b146115a05760405162461bcd60e51b81526004018080602001828103825260288152602001806118736028913960400191505060405180910390fd5b3b151590565b60e01c90565b600060443d10156117a957610d19565b600481823e6308c379a06117bd8251611793565b146117c757610d19565b6040513d600319016004823e80513d67ffffffffffffffff81602484011181841117156117f75750505050610d19565b828401925082519150808211156118115750505050610d19565b503d8301602082840101111561182957505050610d19565b601f01601f191681016020016040529150509056fe455243313135353a207472616e7366657220746f206e6f6e2045524331313535526563656976657220696d706c656d656e746572455243313135353a204552433131353552656365697665722072656a656374656420746f6b656e73455243313135353a2062616c616e636520717565727920666f7220746865207a65726f20616464726573734f776e61626c653a206e6577206f776e657220697320746865207a65726f2061646472657373455243313135353a2063616c6c6572206973206e6f74206f776e6572206e6f7220617070726f766564455243313135353a207472616e7366657220746f20746865207a65726f2061646472657373455243313135353a207472616e736665722063616c6c6572206973206e6f74206f776e6572206e6f7220617070726f766564455243313135353a20696e73756666696369656e742062616c616e636520666f72207472616e73666572455243313135353a2073657474696e6720617070726f76616c2073746174757320666f722073656c66455243313135353a206163636f756e747320616e6420696473206c656e677468206d69736d61746368455243313135353a2069647320616e6420616d6f756e7473206c656e677468206d69736d61746368455243313135353a206d696e7420746f20746865207a65726f2061646472657373a2646970667358221220ad773b0fa337832aa522c50c041865adc58bc3729273960b6bea59c7b173784264736f6c634300070600334f776e61626c653a206e6577206f776e657220697320746865207a65726f2061646472657373496e697469616c697a61626c653a20636f6e747261637420697320616c726561647920696e697469616c697a65644f776e61626c653a2063616c6c6572206973206e6f7420746865206f776e6572a26469706673582212203d9d5ce0c09bc32e87b748e303251bbc380ca55a1007fd0ebe92e3f28825f5eb64736f6c63430007060033",
  "immutableReferences": {},
  "source": "// SPDX-License-Identifier: MIT\n\npragma solidity ^0.7.6;\npragma abicoder v2;\n\nimport \"@openzeppelin/contracts-upgradeable/access/OwnableUpgradeable.sol\";\nimport \"@openzeppelin/contracts/math/SafeMath.sol\";\n\nimport \"./AQVSTokens.sol\";\nimport \"./AQVSSpace.sol\";\n\ncontract AQVS is OwnableUpgradeable {\n  using SafeMath for uint256;\n\n  event DidMintSpace(uint256 spaceId, address spaceAddress);\n  event DidAccessSpace(uint256 spaceId, address spaceAddress);\n  event DidGiftSpaceAccess(uint256 spaceId, address spaceAddress);\n\n  AQVSTokens public tokens;\n  uint256 public spaceCount;\n  uint256 public weiCostPerStorageByte;\n  mapping (uint256 => address) public spacesById;\n  mapping (address => uint256[]) public spaceIdsByCreator;\n  mapping (address => uint256[]) public spaceIdsByAccessor;\n\n  function init(\n    string memory uri\n  ) public initializer {\n    OwnableUpgradeable.__Ownable_init();\n    tokens = new AQVSTokens(uri);\n    spaceCount = 0;\n    // At an ETH price for ~$3200, a space of ~5mb will be\n    // around $34 USD. Given we're paying for data transfer\n    // and CDN costs for perpetuity, that feels about right.\n    weiCostPerStorageByte = 2100000000;\n  }\n\n  function release() public onlyOwner {\n    (bool success, ) = payable(owner()).call{ value: address(this).balance }(\"\");\n    require(success, \"failed_to_release\");\n  }\n\n  function setWeiCostPerStorageByte(\n    uint256 _weiCostPerStorageByte\n  ) public onlyOwner {\n    weiCostPerStorageByte = _weiCostPerStorageByte;\n  }\n\n  function mintSpace(\n    uint256 supply,\n    uint256 spaceCapacityInBytes,\n    uint256 accessPriceInWei,\n    bool purchasable\n  ) public payable returns (uint256) {\n    require(\n       msg.value >= weiCostToMintSpace(spaceCapacityInBytes),\n      \"bad_payment\"\n    );\n    require(\n      accessPriceInWei >= estimateSpaceFees(supply, spaceCapacityInBytes, accessPriceInWei),\n      \"price_too_low\"\n    );\n\n    address creator = _msgSender();\n    spaceCount++;\n\n    try new AQVSSpace(supply, spaceCapacityInBytes, accessPriceInWei, purchasable, creator)\n      returns (AQVSSpace aqvsSpace)\n    {\n      tokens.mint(creator, spaceCount, supply);\n      spacesById[spaceCount] = address(aqvsSpace);\n      spaceIdsByCreator[creator].push(spaceCount);\n      emit DidMintSpace(spaceCount, address(aqvsSpace));\n    } catch {\n      revert(\"make_space_failed\");\n    }\n\n    return spaceCount;\n  }\n\n  function accessSpace(\n    uint256 spaceId\n  ) public payable returns (bool) {\n    AQVSSpace space = AQVSSpace(spacesById[spaceId]);\n    require(space.creator() != address(0), \"space_must_exist\");\n    require(msg.value >= space.accessPriceInWei(), \"bad_payment\");\n    require(true == space.purchasable(), \"not_purchasable\");\n\n    address buyer = _msgSender();\n    require(tokens.balanceOf(buyer, spaceId) == 0, \"already_owns_space\");\n\n    tokens.safeTransferFrom(space.creator(), buyer, spaceId, 1, \"\");\n    uint256 fee = spaceFees(spaceId);\n    uint256 remainder = SafeMath.sub(msg.value, fee);\n    bool success = space.buy{ value: remainder }();\n    require(success, \"failed_to_pay_creator\");\n    spaceIdsByAccessor[buyer].push(spaceId);\n    emit DidAccessSpace(spaceId, address(space));\n    return true;\n  }\n\n  function addSpaceCapacityInBytes(\n    uint256 spaceId,\n    uint256 additionalSpaceCapacityInBytes\n  ) public payable returns (bool) {\n    AQVSSpace space = AQVSSpace(spacesById[spaceId]);\n    require(space.creator() != address(0), \"space_must_exist\");\n    require(space.creator() == _msgSender(), \"only_creator\");\n    require(\n      weiCostToMintSpace(additionalSpaceCapacityInBytes) >= msg.value,\n      \"bad_payment\"\n    );\n    space._addSpaceCapacityInBytes(additionalSpaceCapacityInBytes);\n    return true;\n  }\n\n  function giftSpaceAccess(\n    uint256 spaceId,\n    address giftee\n  ) public returns (bool) {\n    AQVSSpace space = AQVSSpace(spacesById[spaceId]);\n    require(space.creator() != address(0), \"space_must_exist\");\n    require(space.creator() == _msgSender(), \"only_creator\");\n    require(tokens.balanceOf(giftee, spaceId) == 0, \"already_owns_space\");\n    tokens.safeTransferFrom(space.creator(), giftee, spaceId, 1, \"\");\n    spaceIdsByAccessor[giftee].push(spaceId);\n    emit DidGiftSpaceAccess(spaceId, address(space));\n    return true;\n  }\n\n  /* Views */\n  function estimateSpaceFees(\n    uint256 supply,\n    uint256 spaceCapacityInBytes,\n    uint256 accessPriceInWei\n  ) public view returns (uint256) {\n    require(supply > 0, \"supply_too_low\");\n    require(supply < 1000000, \"supply_too_high\");\n    require(spaceCapacityInBytes > 255999, \"space_too_small\");\n    require(spaceCapacityInBytes < 100000000001, \"space_too_big\");\n    return (\n      spaceCapacityInBytes * weiCostPerStorageByte\n    ) + SafeMath.div(accessPriceInWei, 100);\n  }\n\n  function remainingSupply(\n    uint256 spaceId\n  ) public view returns (uint256) {\n    AQVSSpace space = AQVSSpace(spacesById[spaceId]);\n    require(space.creator() != address(0), \"space_must_exist\");\n    return tokens.balanceOf(space.creator(), spaceId);\n  }\n\n  function spaceFees(\n    uint256 spaceId\n  ) public view returns (uint256) {\n    AQVSSpace space = AQVSSpace(spacesById[spaceId]);\n    require(space.creator() != address(0), \"space_must_exist\");\n    return estimateSpaceFees(\n      space.supply(),\n      space.spaceCapacityInBytes(),\n      space.accessPriceInWei()\n    );\n  }\n\n  function weiCostToMintSpace(\n    uint256 spaceCapacityInBytes\n  ) public view returns (uint256) {\n    return spaceCapacityInBytes * weiCostPerStorageByte;\n  }\n\n  function spaceIdsCreatedBy(\n    address creator\n  ) public view returns (uint256[] memory) {\n    return spaceIdsByCreator[creator];\n  }\n\n  function spaceIdsOwnedBy(\n    address buyer\n  ) public view returns (uint256[] memory) {\n    return spaceIdsByAccessor[buyer];\n  }\n}\n",
  "sourcePath": "/Users/hhff/dev/aqueous-varnish/contracts/contracts/AQVS.sol",
  "compiler": {
    "name": "solc",
    "version": "0.7.6+commit.7338295f.Emscripten.clang"
  },
  "schemaVersion": "3.3.3",
  "updatedAt": "2021-08-15T21:18:19.160Z",
  "devdoc": {
    "kind": "dev",
    "methods": {
      "owner()": {
        "details": "Returns the address of the current owner."
      },
      "renounceOwnership()": {
        "details": "Leaves the contract without owner. It will not be possible to call `onlyOwner` functions anymore. Can only be called by the current owner. NOTE: Renouncing ownership will leave the contract without an owner, thereby removing any functionality that is only available to the owner."
      },
      "transferOwnership(address)": {
        "details": "Transfers ownership of the contract to a new account (`newOwner`). Can only be called by the current owner."
      }
    },
    "version": 1
  },
  "userdoc": {
    "kind": "user",
    "methods": {},
    "version": 1
  }
}