{
  "contractName": "AQVSSpaceV1",
  "abi": [
    {
      "inputs": [
        {
          "internalType": "string",
          "name": "_name",
          "type": "string"
        },
        {
          "internalType": "string",
          "name": "_symbol",
          "type": "string"
        },
        {
          "internalType": "uint256",
          "name": "_supply",
          "type": "uint256"
        },
        {
          "internalType": "uint256",
          "name": "_spaceCapacityInBytes",
          "type": "uint256"
        },
        {
          "internalType": "uint256",
          "name": "_accessPriceInWei",
          "type": "uint256"
        },
        {
          "internalType": "bool",
          "name": "_purchasable",
          "type": "bool"
        },
        {
          "internalType": "address",
          "name": "_creator",
          "type": "address"
        },
        {
          "internalType": "string",
          "name": "_proxy",
          "type": "string"
        }
      ],
      "stateMutability": "nonpayable",
      "type": "constructor"
    },
    {
      "anonymous": false,
      "inputs": [
        {
          "indexed": true,
          "internalType": "address",
          "name": "owner",
          "type": "address"
        },
        {
          "indexed": true,
          "internalType": "address",
          "name": "approved",
          "type": "address"
        },
        {
          "indexed": true,
          "internalType": "uint256",
          "name": "tokenId",
          "type": "uint256"
        }
      ],
      "name": "Approval",
      "type": "event"
    },
    {
      "anonymous": false,
      "inputs": [
        {
          "indexed": true,
          "internalType": "address",
          "name": "owner",
          "type": "address"
        },
        {
          "indexed": true,
          "internalType": "address",
          "name": "operator",
          "type": "address"
        },
        {
          "indexed": false,
          "internalType": "bool",
          "name": "approved",
          "type": "bool"
        }
      ],
      "name": "ApprovalForAll",
      "type": "event"
    },
    {
      "anonymous": false,
      "inputs": [
        {
          "indexed": true,
          "internalType": "address",
          "name": "previousOwner",
          "type": "address"
        },
        {
          "indexed": true,
          "internalType": "address",
          "name": "newOwner",
          "type": "address"
        }
      ],
      "name": "OwnershipTransferred",
      "type": "event"
    },
    {
      "anonymous": false,
      "inputs": [
        {
          "indexed": true,
          "internalType": "address",
          "name": "from",
          "type": "address"
        },
        {
          "indexed": true,
          "internalType": "address",
          "name": "to",
          "type": "address"
        },
        {
          "indexed": true,
          "internalType": "uint256",
          "name": "tokenId",
          "type": "uint256"
        }
      ],
      "name": "Transfer",
      "type": "event"
    },
    {
      "inputs": [],
      "name": "accessPriceInWei",
      "outputs": [
        {
          "internalType": "uint256",
          "name": "",
          "type": "uint256"
        }
      ],
      "stateMutability": "view",
      "type": "function"
    },
    {
      "inputs": [
        {
          "internalType": "address",
          "name": "to",
          "type": "address"
        },
        {
          "internalType": "uint256",
          "name": "tokenId",
          "type": "uint256"
        }
      ],
      "name": "approve",
      "outputs": [],
      "stateMutability": "nonpayable",
      "type": "function"
    },
    {
      "inputs": [
        {
          "internalType": "address",
          "name": "owner",
          "type": "address"
        }
      ],
      "name": "balanceOf",
      "outputs": [
        {
          "internalType": "uint256",
          "name": "",
          "type": "uint256"
        }
      ],
      "stateMutability": "view",
      "type": "function"
    },
    {
      "inputs": [],
      "name": "baseURI",
      "outputs": [
        {
          "internalType": "string",
          "name": "",
          "type": "string"
        }
      ],
      "stateMutability": "view",
      "type": "function"
    },
    {
      "inputs": [],
      "name": "creator",
      "outputs": [
        {
          "internalType": "address",
          "name": "",
          "type": "address"
        }
      ],
      "stateMutability": "view",
      "type": "function"
    },
    {
      "inputs": [
        {
          "internalType": "uint256",
          "name": "tokenId",
          "type": "uint256"
        }
      ],
      "name": "getApproved",
      "outputs": [
        {
          "internalType": "address",
          "name": "",
          "type": "address"
        }
      ],
      "stateMutability": "view",
      "type": "function"
    },
    {
      "inputs": [
        {
          "internalType": "address",
          "name": "owner",
          "type": "address"
        },
        {
          "internalType": "address",
          "name": "operator",
          "type": "address"
        }
      ],
      "name": "isApprovedForAll",
      "outputs": [
        {
          "internalType": "bool",
          "name": "",
          "type": "bool"
        }
      ],
      "stateMutability": "view",
      "type": "function"
    },
    {
      "inputs": [],
      "name": "name",
      "outputs": [
        {
          "internalType": "string",
          "name": "",
          "type": "string"
        }
      ],
      "stateMutability": "view",
      "type": "function"
    },
    {
      "inputs": [],
      "name": "owner",
      "outputs": [
        {
          "internalType": "address",
          "name": "",
          "type": "address"
        }
      ],
      "stateMutability": "view",
      "type": "function"
    },
    {
      "inputs": [
        {
          "internalType": "uint256",
          "name": "tokenId",
          "type": "uint256"
        }
      ],
      "name": "ownerOf",
      "outputs": [
        {
          "internalType": "address",
          "name": "",
          "type": "address"
        }
      ],
      "stateMutability": "view",
      "type": "function"
    },
    {
      "inputs": [],
      "name": "purchasable",
      "outputs": [
        {
          "internalType": "bool",
          "name": "",
          "type": "bool"
        }
      ],
      "stateMutability": "view",
      "type": "function"
    },
    {
      "inputs": [],
      "name": "renounceOwnership",
      "outputs": [],
      "stateMutability": "nonpayable",
      "type": "function"
    },
    {
      "inputs": [
        {
          "internalType": "address",
          "name": "from",
          "type": "address"
        },
        {
          "internalType": "address",
          "name": "to",
          "type": "address"
        },
        {
          "internalType": "uint256",
          "name": "tokenId",
          "type": "uint256"
        }
      ],
      "name": "safeTransferFrom",
      "outputs": [],
      "stateMutability": "nonpayable",
      "type": "function"
    },
    {
      "inputs": [
        {
          "internalType": "address",
          "name": "from",
          "type": "address"
        },
        {
          "internalType": "address",
          "name": "to",
          "type": "address"
        },
        {
          "internalType": "uint256",
          "name": "tokenId",
          "type": "uint256"
        },
        {
          "internalType": "bytes",
          "name": "_data",
          "type": "bytes"
        }
      ],
      "name": "safeTransferFrom",
      "outputs": [],
      "stateMutability": "nonpayable",
      "type": "function"
    },
    {
      "inputs": [
        {
          "internalType": "address",
          "name": "operator",
          "type": "address"
        },
        {
          "internalType": "bool",
          "name": "approved",
          "type": "bool"
        }
      ],
      "name": "setApprovalForAll",
      "outputs": [],
      "stateMutability": "nonpayable",
      "type": "function"
    },
    {
      "inputs": [],
      "name": "spaceCapacityInBytes",
      "outputs": [
        {
          "internalType": "uint256",
          "name": "",
          "type": "uint256"
        }
      ],
      "stateMutability": "view",
      "type": "function"
    },
    {
      "inputs": [],
      "name": "supply",
      "outputs": [
        {
          "internalType": "uint256",
          "name": "",
          "type": "uint256"
        }
      ],
      "stateMutability": "view",
      "type": "function"
    },
    {
      "inputs": [
        {
          "internalType": "bytes4",
          "name": "interfaceId",
          "type": "bytes4"
        }
      ],
      "name": "supportsInterface",
      "outputs": [
        {
          "internalType": "bool",
          "name": "",
          "type": "bool"
        }
      ],
      "stateMutability": "view",
      "type": "function"
    },
    {
      "inputs": [],
      "name": "symbol",
      "outputs": [
        {
          "internalType": "string",
          "name": "",
          "type": "string"
        }
      ],
      "stateMutability": "view",
      "type": "function"
    },
    {
      "inputs": [
        {
          "internalType": "uint256",
          "name": "index",
          "type": "uint256"
        }
      ],
      "name": "tokenByIndex",
      "outputs": [
        {
          "internalType": "uint256",
          "name": "",
          "type": "uint256"
        }
      ],
      "stateMutability": "view",
      "type": "function"
    },
    {
      "inputs": [
        {
          "internalType": "address",
          "name": "owner",
          "type": "address"
        },
        {
          "internalType": "uint256",
          "name": "index",
          "type": "uint256"
        }
      ],
      "name": "tokenOfOwnerByIndex",
      "outputs": [
        {
          "internalType": "uint256",
          "name": "",
          "type": "uint256"
        }
      ],
      "stateMutability": "view",
      "type": "function"
    },
    {
      "inputs": [
        {
          "internalType": "uint256",
          "name": "tokenId",
          "type": "uint256"
        }
      ],
      "name": "tokenURI",
      "outputs": [
        {
          "internalType": "string",
          "name": "",
          "type": "string"
        }
      ],
      "stateMutability": "view",
      "type": "function"
    },
    {
      "inputs": [],
      "name": "totalSupply",
      "outputs": [
        {
          "internalType": "uint256",
          "name": "",
          "type": "uint256"
        }
      ],
      "stateMutability": "view",
      "type": "function"
    },
    {
      "inputs": [
        {
          "internalType": "address",
          "name": "from",
          "type": "address"
        },
        {
          "internalType": "address",
          "name": "to",
          "type": "address"
        },
        {
          "internalType": "uint256",
          "name": "tokenId",
          "type": "uint256"
        }
      ],
      "name": "transferFrom",
      "outputs": [],
      "stateMutability": "nonpayable",
      "type": "function"
    },
    {
      "inputs": [
        {
          "internalType": "address",
          "name": "newOwner",
          "type": "address"
        }
      ],
      "name": "transferOwnership",
      "outputs": [],
      "stateMutability": "nonpayable",
      "type": "function"
    },
    {
      "inputs": [],
      "name": "version",
      "outputs": [
        {
          "internalType": "string",
          "name": "",
          "type": "string"
        }
      ],
      "stateMutability": "pure",
      "type": "function"
    },
    {
      "inputs": [],
      "name": "pay",
      "outputs": [
        {
          "internalType": "bool",
          "name": "",
          "type": "bool"
        }
      ],
      "stateMutability": "payable",
      "type": "function"
    },
    {
      "inputs": [],
      "name": "release",
      "outputs": [],
      "stateMutability": "nonpayable",
      "type": "function"
    },
    {
      "inputs": [
        {
          "internalType": "address",
          "name": "to",
          "type": "address"
        }
      ],
      "name": "releaseTo",
      "outputs": [],
      "stateMutability": "nonpayable",
      "type": "function"
    },
    {
      "inputs": [
        {
          "internalType": "address",
          "name": "to",
          "type": "address"
        }
      ],
      "name": "_grantAccess",
      "outputs": [],
      "stateMutability": "nonpayable",
      "type": "function"
    },
    {
      "inputs": [],
      "name": "remainingSupply",
      "outputs": [
        {
          "internalType": "uint256",
          "name": "",
          "type": "uint256"
        }
      ],
      "stateMutability": "view",
      "type": "function"
    },
    {
      "inputs": [
        {
          "internalType": "uint256",
          "name": "_accessPriceInWei",
          "type": "uint256"
        }
      ],
      "name": "setAccessPriceInWei",
      "outputs": [],
      "stateMutability": "nonpayable",
      "type": "function"
    },
    {
      "inputs": [
        {
          "internalType": "bool",
          "name": "_purchasable",
          "type": "bool"
        }
      ],
      "name": "setPurchasable",
      "outputs": [],
      "stateMutability": "nonpayable",
      "type": "function"
    },
    {
      "inputs": [
        {
          "internalType": "uint256",
          "name": "additionalSpaceCapacityInBytes",
          "type": "uint256"
        }
      ],
      "name": "_addSpaceCapacityInBytes",
      "outputs": [],
      "stateMutability": "nonpayable",
      "type": "function"
    }
  ],
  "bytecode": "0x60806040523480156200001157600080fd5b5060405162002e4c38038062002e4c83398101604081905262000034916200050c565b878760006200004262000190565b600080546001600160a01b0319166001600160a01b0383169081178255604051929350917f8be0079c531659141344cd1fd0a4f28419497f9722a3daafe3b4186f6b6457e0908290a3506200009e6301ffc9a760e01b62000194565b8151620000b3906007906020850190620003be565b508051620000c9906008906020840190620003be565b50620000dc6380ac58cd60e01b62000194565b620000ee635b5e139f60e01b62000194565b6200010063780e9d6360e01b62000194565b5050600b869055600c859055600d849055600e805460ff60a01b1916600160a01b85151502176001600160a01b0319166001600160a01b038416179055620001828162000159306200021c602090811b6200134217901c565b6040516020016200016c929190620005dc565b60408051601f19818403018152919052620003a5565b50505050505050506200066b565b3390565b6001600160e01b03198082161415620001f4576040805162461bcd60e51b815260206004820152601c60248201527f4552433136353a20696e76616c696420696e7465726661636520696400000000604482015290519081900360640190fd5b6001600160e01b0319166000908152600160208190526040909120805460ff19169091179055565b604080518082018252601081526f181899199a1a9b1b9c1cb0b131b232b360811b60208201528151602a80825260608281019094526001600160a01b0385169291600091602082018180368337019050509050600360fc1b816000815181106200028257fe5b60200101906001600160f81b031916908160001a905350600f60fb1b81600181518110620002ac57fe5b60200101906001600160f81b031916908160001a90535060005b60148110156200039a578260048583600c0160208110620002e357fe5b1a60f81b6001600160f81b031916901c60f81c60ff16815181106200030457fe5b602001015160f81c60f81b8282600202600201815181106200032257fe5b60200101906001600160f81b031916908160001a905350828482600c01602081106200034a57fe5b825191901a600f169081106200035c57fe5b602001015160f81c60f81b8282600202600301815181106200037a57fe5b60200101906001600160f81b031916908160001a905350600101620002c6565b50925050505b919050565b8051620003ba90600a906020840190620003be565b5050565b828054600181600116156101000203166002900490600052602060002090601f016020900481019282620003f6576000855562000441565b82601f106200041157805160ff191683800117855562000441565b8280016001018555821562000441579182015b828111156200044157825182559160200191906001019062000424565b506200044f92915062000453565b5090565b5b808211156200044f576000815560010162000454565b80516001600160a01b0381168114620003a057600080fd5b80518015158114620003a057600080fd5b600082601f830112620004a4578081fd5b81516001600160401b0380821115620004b957fe5b604051601f8301601f191681016020018281118282101715620004d857fe5b604052828152848301602001861015620004f0578384fd5b6200050383602083016020880162000638565b95945050505050565b600080600080600080600080610100898b03121562000529578384fd5b88516001600160401b038082111562000540578586fd5b6200054e8c838d0162000493565b995060208b015191508082111562000564578586fd5b620005728c838d0162000493565b985060408b0151975060608b0151965060808b015195506200059760a08c0162000482565b9450620005a760c08c016200046a565b935060e08b0151915080821115620005bd578283fd5b50620005cc8b828c0162000493565b9150509295985092959890939650565b60008351620005f081846020880162000638565b6e73706163652d6d657461646174612f60881b90830190815283516200061e81600f84016020880162000638565b602f60f81b600f9290910191820152601001949350505050565b60005b83811015620006555781810151838201526020016200063b565b8381111562000665576000848401525b50505050565b6127d1806200067b6000396000f3fe6080604052600436106101f95760003560e01c806370a082311161010d578063a22cb465116100a0578063da0239a61161006f578063da0239a614610536578063dbadc7ef1461054b578063e985e9c51461056b578063eb8d0e4e1461058b578063f2fde38b146105ab576101f9565b8063a22cb465146104b6578063b88d4fde146104d6578063c87b56dd146104f6578063d1fb564614610516576101f9565b80637fdc1312116100dc5780637fdc13121461046257806386d1a69f146104775780638da5cb5b1461048c57806395d89b41146104a1576101f9565b806370a08231146103f8578063715018a61461041857806376052df81461042d5780637aa039b81461044d576101f9565b806323b872dd116101905780634f6ccce71161015f5780634f6ccce71461036e57806354fd4d501461038e5780635a1498b0146103a35780636352211e146103c35780636c0360eb146103e3576101f9565b806323b872dd146102f95780632f745c59146103195780633f3d83c31461033957806342842e0e1461034e576101f9565b8063081812fc116101cc578063081812fc1461029a578063095ea7b3146102ba57806318160ddd146102dc5780631b9265b8146102f1576101f9565b806301ffc9a7146101fe57806302d05d3f14610234578063047fc9aa1461025657806306fdde0314610278575b600080fd5b34801561020a57600080fd5b5061021e6102193660046123ab565b6105cb565b60405161022b9190612402565b60405180910390f35b34801561024057600080fd5b506102496105ee565b60405161022b91906123ee565b34801561026257600080fd5b5061026b6105fd565b60405161022b91906124ff565b34801561028457600080fd5b5061028d610603565b60405161022b919061240d565b3480156102a657600080fd5b506102496102b53660046123d3565b610699565b3480156102c657600080fd5b506102da6102d5366004612368565b6106fb565b005b3480156102e857600080fd5b5061026b6107d1565b61021e6107e2565b34801561030557600080fd5b506102da610314366004612244565b6107e7565b34801561032557600080fd5b5061026b610334366004612368565b61083e565b34801561034557600080fd5b5061021e610869565b34801561035a57600080fd5b506102da610369366004612244565b610879565b34801561037a57600080fd5b5061026b6103893660046123d3565b610894565b34801561039a57600080fd5b5061028d6108aa565b3480156103af57600080fd5b506102da6103be3660046123d3565b6108c6565b3480156103cf57600080fd5b506102496103de3660046123d3565b610909565b3480156103ef57600080fd5b5061028d610931565b34801561040457600080fd5b5061026b6104133660046121f8565b610992565b34801561042457600080fd5b506102da6109fa565b34801561043957600080fd5b506102da610448366004612391565b610aa6565b34801561045957600080fd5b5061026b610af9565b34801561046e57600080fd5b5061026b610aff565b34801561048357600080fd5b506102da610b05565b34801561049857600080fd5b50610249610bbe565b3480156104ad57600080fd5b5061028d610bcd565b3480156104c257600080fd5b506102da6104d136600461233f565b610c2e565b3480156104e257600080fd5b506102da6104f136600461227f565b610d33565b34801561050257600080fd5b5061028d6105113660046123d3565b610d91565b34801561052257600080fd5b506102da6105313660046121f8565b611012565b34801561054257600080fd5b5061026b6110c7565b34801561055757600080fd5b506102da6105663660046121f8565b6110dc565b34801561057757600080fd5b5061021e610586366004612212565b6111a5565b34801561059757600080fd5b506102da6105a63660046123d3565b6111d3565b3480156105b757600080fd5b506102da6105c63660046121f8565b611240565b6001600160e01b0319811660009081526001602052604090205460ff165b919050565b600e546001600160a01b031681565b600b5481565b60078054604080516020601f600260001961010060018816150201909516949094049384018190048102820181019092528281526060939092909183018282801561068f5780601f106106645761010080835404028352916020019161068f565b820191906000526020600020905b81548152906001019060200180831161067257829003601f168201915b5050505050905090565b60006106a4826114bf565b6106df5760405162461bcd60e51b815260040180806020018281038252602c8152602001806126a6602c913960400191505060405180910390fd5b506000908152600560205260409020546001600160a01b031690565b600061070682610909565b9050806001600160a01b0316836001600160a01b031614156107595760405162461bcd60e51b815260040180806020018281038252602181526020018061274a6021913960400191505060405180910390fd5b806001600160a01b031661076b6114cc565b6001600160a01b031614806107875750610787816105866114cc565b6107c25760405162461bcd60e51b81526004018080602001828103825260388152602001806125f96038913960400191505060405180910390fd5b6107cc83836114d0565b505050565b60006107dd600361153e565b905090565b600190565b6107f86107f26114cc565b82611549565b6108335760405162461bcd60e51b815260040180806020018281038252603181526020018061276b6031913960400191505060405180910390fd5b6107cc8383836115ed565b6001600160a01b03821660009081526002602052604081206108609083611739565b90505b92915050565b600e54600160a01b900460ff1681565b6107cc83838360405180602001604052806000815250610d33565b6000806108a2600384611745565b509392505050565b604080518082019091526002815261563160f01b602082015290565b6108ce6114cc565b600e546001600160a01b039081169116146109045760405162461bcd60e51b81526004016108fb90612460565b60405180910390fd5b600d55565b60006108638260405180606001604052806029815260200161265b6029913960039190611761565b600a8054604080516020601f600260001961010060018816150201909516949094049384018190048102820181019092528281526060939092909183018282801561068f5780601f106106645761010080835404028352916020019161068f565b60006001600160a01b0382166109d95760405162461bcd60e51b815260040180806020018281038252602a815260200180612631602a913960400191505060405180910390fd5b6001600160a01b03821660009081526002602052604090206108639061153e565b610a026114cc565b6001600160a01b0316610a13610bbe565b6001600160a01b031614610a5c576040805162461bcd60e51b815260206004820181905260248201526000805160206126d2833981519152604482015290519081900360640190fd5b600080546040516001600160a01b03909116907f8be0079c531659141344cd1fd0a4f28419497f9722a3daafe3b4186f6b6457e0908390a3600080546001600160a01b0319169055565b610aae6114cc565b600e546001600160a01b03908116911614610adb5760405162461bcd60e51b81526004016108fb90612460565b600e8054911515600160a01b0260ff60a01b19909216919091179055565b600c5481565b600d5481565b610b0d6114cc565b600e546001600160a01b03908116911614610b3a5760405162461bcd60e51b81526004016108fb90612460565b600e546040516000916001600160a01b0316904790610b58906123eb565b60006040518083038185875af1925050503d8060008114610b95576040519150601f19603f3d011682016040523d82523d6000602084013e610b9a565b606091505b5050905080610bbb5760405162461bcd60e51b81526004016108fb906124d4565b50565b6000546001600160a01b031690565b60088054604080516020601f600260001961010060018816150201909516949094049384018190048102820181019092528281526060939092909183018282801561068f5780601f106106645761010080835404028352916020019161068f565b610c366114cc565b6001600160a01b0316826001600160a01b03161415610c9c576040805162461bcd60e51b815260206004820152601960248201527f4552433732313a20617070726f766520746f2063616c6c657200000000000000604482015290519081900360640190fd5b8060066000610ca96114cc565b6001600160a01b03908116825260208083019390935260409182016000908120918716808252919093529120805460ff191692151592909217909155610ced6114cc565b6001600160a01b03167f17307eab39ab6107e8899845ad3d59bd9653f200f220920489ca2b5937696c318360405180821515815260200191505060405180910390a35050565b610d44610d3e6114cc565b83611549565b610d7f5760405162461bcd60e51b815260040180806020018281038252603181526020018061276b6031913960400191505060405180910390fd5b610d8b84848484611778565b50505050565b6060610d9c826114bf565b610dd75760405162461bcd60e51b815260040180806020018281038252602f81526020018061271b602f913960400191505060405180910390fd5b60008281526009602090815260408083208054825160026001831615610100026000190190921691909104601f810185900485028201850190935282815292909190830182828015610e6a5780601f10610e3f57610100808354040283529160200191610e6a565b820191906000526020600020905b815481529060010190602001808311610e4d57829003601f168201915b505050505090506000610e7b610931565b9050805160001415610e8f575090506105e9565b815115610f505780826040516020018083805190602001908083835b60208310610eca5780518252601f199092019160209182019101610eab565b51815160209384036101000a600019018019909216911617905285519190930192850191508083835b60208310610f125780518252601f199092019160209182019101610ef3565b6001836020036101000a03801982511681845116808217855250505050505090500192505050604051602081830303815290604052925050506105e9565b80610f5a856117ca565b6040516020018083805190602001908083835b60208310610f8c5780518252601f199092019160209182019101610f6d565b51815160209384036101000a600019018019909216911617905285519190930192850191508083835b60208310610fd45780518252601f199092019160209182019101610fb5565b6001836020036101000a0380198251168184511680821785525050505050509050019250505060405160208183030381529060405292505050919050565b61101a6114cc565b600e546001600160a01b039081169116146110475760405162461bcd60e51b81526004016108fb90612460565b6000816001600160a01b031647604051611060906123eb565b60006040518083038185875af1925050503d806000811461109d576040519150601f19603f3d011682016040523d82523d6000602084013e6110a2565b606091505b50509050806110c35760405162461bcd60e51b81526004016108fb906124d4565b5050565b60006107dd600b546110d76107d1565b61189c565b6110e46114cc565b6001600160a01b03166110f5610bbe565b6001600160a01b03161461113e576040805162461bcd60e51b815260206004820181905260248201526000805160206126d2833981519152604482015290519081900360640190fd5b60006111486107d1565b9050600b54811061116b5760405162461bcd60e51b81526004016108fb906124b2565b61117482610992565b156111915760405162461bcd60e51b81526004016108fb90612486565b6110c3826111a08360016118f9565b611953565b6001600160a01b03918216600090815260066020908152604080832093909416825291909152205460ff1690565b6111db6114cc565b6001600160a01b03166111ec610bbe565b6001600160a01b031614611235576040805162461bcd60e51b815260206004820181905260248201526000805160206126d2833981519152604482015290519081900360640190fd5b600c80549091019055565b6112486114cc565b6001600160a01b0316611259610bbe565b6001600160a01b0316146112a2576040805162461bcd60e51b815260206004820181905260248201526000805160206126d2833981519152604482015290519081900360640190fd5b6001600160a01b0381166112e75760405162461bcd60e51b815260040180806020018281038252602681526020018061255d6026913960400191505060405180910390fd5b600080546040516001600160a01b03808516939216917f8be0079c531659141344cd1fd0a4f28419497f9722a3daafe3b4186f6b6457e091a3600080546001600160a01b0319166001600160a01b0392909216919091179055565b604080518082018252601081526f181899199a1a9b1b9c1cb0b131b232b360811b60208201528151602a80825260608281019094526001600160a01b0385169291600091602082018180368337019050509050600360fc1b816000815181106113a757fe5b60200101906001600160f81b031916908160001a905350600f60fb1b816001815181106113d057fe5b60200101906001600160f81b031916908160001a90535060005b60148110156114b6578260048583600c016020811061140557fe5b1a60f81b6001600160f81b031916901c60f81c60ff168151811061142557fe5b602001015160f81c60f81b82826002026002018151811061144257fe5b60200101906001600160f81b031916908160001a905350828482600c016020811061146957fe5b825191901a600f1690811061147a57fe5b602001015160f81c60f81b82826002026003018151811061149757fe5b60200101906001600160f81b031916908160001a9053506001016113ea565b50949350505050565b600061086360038361196d565b3390565b600081815260056020526040902080546001600160a01b0319166001600160a01b038416908117909155819061150582610909565b6001600160a01b03167f8c5be1e5ebec7d5bd14f71427d1e84f3dd0314c0f7b2291e5b200ac8c7c3b92560405160405180910390a45050565b600061086382611979565b6000611554826114bf565b61158f5760405162461bcd60e51b815260040180806020018281038252602c8152602001806125cd602c913960400191505060405180910390fd5b600061159a83610909565b9050806001600160a01b0316846001600160a01b031614806115d55750836001600160a01b03166115ca84610699565b6001600160a01b0316145b806115e557506115e581856111a5565b949350505050565b826001600160a01b031661160082610909565b6001600160a01b0316146116455760405162461bcd60e51b81526004018080602001828103825260298152602001806126f26029913960400191505060405180910390fd5b6001600160a01b03821661168a5760405162461bcd60e51b81526004018080602001828103825260248152602001806125836024913960400191505060405180910390fd5b6116958383836107cc565b6116a06000826114d0565b6001600160a01b03831660009081526002602052604090206116c2908261197d565b506001600160a01b03821660009081526002602052604090206116e59082611989565b506116f260038284611995565b5080826001600160a01b0316846001600160a01b03167fddf252ad1be2c89b69c2b068fc378daa952ba7f163c4a11628f55a4df523b3ef60405160405180910390a4505050565b600061086083836119ab565b60008080806117548686611a0f565b9097909650945050505050565b600061176e848484611a8a565b90505b9392505050565b6117838484846115ed565b61178f84848484611b54565b610d8b5760405162461bcd60e51b815260040180806020018281038252603281526020018061252b6032913960400191505060405180910390fd5b6060816117ef57506040805180820190915260018152600360fc1b60208201526105e9565b8160005b811561180757600101600a820491506117f3565b60008167ffffffffffffffff8111801561182057600080fd5b506040519080825280601f01601f19166020018201604052801561184b576020820181803683370190505b50859350905060001982015b83156114b657600a840660300160f81b8282806001900393508151811061187a57fe5b60200101906001600160f81b031916908160001a905350600a84049350611857565b6000828211156118f3576040805162461bcd60e51b815260206004820152601e60248201527f536166654d6174683a207375627472616374696f6e206f766572666c6f770000604482015290519081900360640190fd5b50900390565b600082820183811015610860576040805162461bcd60e51b815260206004820152601b60248201527f536166654d6174683a206164646974696f6e206f766572666c6f770000000000604482015290519081900360640190fd5b6110c3828260405180602001604052806000815250611cbc565b60006108608383611d0e565b5490565b60006108608383611d26565b60006108608383611dec565b600061176e84846001600160a01b038516611e36565b815460009082106119ed5760405162461bcd60e51b81526004018080602001828103825260228152602001806125096022913960400191505060405180910390fd5b8260000182815481106119fc57fe5b9060005260206000200154905092915050565b815460009081908310611a535760405162461bcd60e51b81526004018080602001828103825260228152602001806126846022913960400191505060405180910390fd5b6000846000018481548110611a6457fe5b906000526020600020906002020190508060000154816001015492509250509250929050565b60008281526001840160205260408120548281611b255760405162461bcd60e51b81526004018080602001828103825283818151815260200191508051906020019080838360005b83811015611aea578181015183820152602001611ad2565b50505050905090810190601f168015611b175780820380516001836020036101000a031916815260200191505b509250505060405180910390fd5b50846000016001820381548110611b3857fe5b9060005260206000209060020201600101549150509392505050565b6000611b68846001600160a01b0316611ecd565b611b74575060016115e5565b6000611c82630a85bd0160e11b611b896114cc565b88878760405160240180856001600160a01b03168152602001846001600160a01b0316815260200183815260200180602001828103825283818151815260200191508051906020019080838360005b83811015611bf0578181015183820152602001611bd8565b50505050905090810190601f168015611c1d5780820380516001836020036101000a031916815260200191505b5095505050505050604051602081830303815290604052906001600160e01b0319166020820180516001600160e01b03838183161783525050505060405180606001604052806032815260200161252b603291396001600160a01b0388169190611ed3565b90506000818060200190516020811015611c9b57600080fd5b50516001600160e01b031916630a85bd0160e11b1492505050949350505050565b611cc68383611ee2565b611cd36000848484611b54565b6107cc5760405162461bcd60e51b815260040180806020018281038252603281526020018061252b6032913960400191505060405180910390fd5b60009081526001919091016020526040902054151590565b60008181526001830160205260408120548015611de25783546000198083019190810190600090879083908110611d5957fe5b9060005260206000200154905080876000018481548110611d7657fe5b600091825260208083209091019290925582815260018981019092526040902090840190558654879080611da657fe5b60019003818190600052602060002001600090559055866001016000878152602001908152602001600020600090556001945050505050610863565b6000915050610863565b6000611df88383611d0e565b611e2e57508154600181810184556000848152602080822090930184905584548482528286019093526040902091909155610863565b506000610863565b600082815260018401602052604081205480611e9b575050604080518082018252838152602080820184815286546001818101895560008981528481209551600290930290950191825591519082015586548684528188019092529290912055611771565b82856000016001830381548110611eae57fe5b9060005260206000209060020201600101819055506000915050611771565b3b151590565b606061176e8484600085612010565b6001600160a01b038216611f3d576040805162461bcd60e51b815260206004820181905260248201527f4552433732313a206d696e7420746f20746865207a65726f2061646472657373604482015290519081900360640190fd5b611f46816114bf565b15611f98576040805162461bcd60e51b815260206004820152601c60248201527f4552433732313a20746f6b656e20616c7265616479206d696e74656400000000604482015290519081900360640190fd5b611fa4600083836107cc565b6001600160a01b0382166000908152600260205260409020611fc69082611989565b50611fd360038284611995565b5060405181906001600160a01b038416906000907fddf252ad1be2c89b69c2b068fc378daa952ba7f163c4a11628f55a4df523b3ef908290a45050565b6060824710156120515760405162461bcd60e51b81526004018080602001828103825260268152602001806125a76026913960400191505060405180910390fd5b61205a85611ecd565b6120ab576040805162461bcd60e51b815260206004820152601d60248201527f416464726573733a2063616c6c20746f206e6f6e2d636f6e7472616374000000604482015290519081900360640190fd5b600080866001600160a01b031685876040518082805190602001908083835b602083106120e95780518252601f1990920191602091820191016120ca565b6001836020036101000a03801982511681845116808217855250505050505090500191505060006040518083038185875af1925050503d806000811461214b576040519150601f19603f3d011682016040523d82523d6000602084013e612150565b606091505b509150915061216082828661216b565b979650505050505050565b6060831561217a575081611771565b82511561218a5782518084602001fd5b60405162461bcd60e51b8152602060048201818152845160248401528451859391928392604401919085019080838360008315611aea578181015183820152602001611ad2565b80356001600160a01b03811681146105e957600080fd5b803580151581146105e957600080fd5b600060208284031215612209578081fd5b610860826121d1565b60008060408385031215612224578081fd5b61222d836121d1565b915061223b602084016121d1565b90509250929050565b600080600060608486031215612258578081fd5b612261846121d1565b925061226f602085016121d1565b9150604084013590509250925092565b60008060008060808587031215612294578081fd5b61229d856121d1565b935060206122ac8187016121d1565b935060408601359250606086013567ffffffffffffffff808211156122cf578384fd5b818801915088601f8301126122e2578384fd5b8135818111156122ee57fe5b604051601f8201601f191681018501838111828210171561230b57fe5b60405281815283820185018b1015612321578586fd5b81858501868301379081019093019390935250939692955090935050565b60008060408385031215612351578182fd5b61235a836121d1565b915061223b602084016121e8565b6000806040838503121561237a578182fd5b612383836121d1565b946020939093013593505050565b6000602082840312156123a2578081fd5b610860826121e8565b6000602082840312156123bc578081fd5b81356001600160e01b031981168114610860578182fd5b6000602082840312156123e4578081fd5b5035919050565b90565b6001600160a01b0391909116815260200190565b901515815260200190565b6000602080835283518082850152825b818110156124395785810183015185820160400152820161241d565b8181111561244a5783604083870101525b50601f01601f1916929092016040019392505050565b6020808252600c908201526b37b7363cafb1b932b0ba37b960a11b604082015260600190565b602080825260129082015271616c72656164795f6f776e735f737061636560701b604082015260600190565b6020808252600890820152671cdbdb1917dbdd5d60c21b604082015260600190565b6020808252601190820152706661696c65645f746f5f72656c6561736560781b604082015260600190565b9081526020019056fe456e756d657261626c655365743a20696e646578206f7574206f6620626f756e64734552433732313a207472616e7366657220746f206e6f6e20455243373231526563656976657220696d706c656d656e7465724f776e61626c653a206e6577206f776e657220697320746865207a65726f20616464726573734552433732313a207472616e7366657220746f20746865207a65726f2061646472657373416464726573733a20696e73756666696369656e742062616c616e636520666f722063616c6c4552433732313a206f70657261746f7220717565727920666f72206e6f6e6578697374656e7420746f6b656e4552433732313a20617070726f76652063616c6c6572206973206e6f74206f776e6572206e6f7220617070726f76656420666f7220616c6c4552433732313a2062616c616e636520717565727920666f7220746865207a65726f20616464726573734552433732313a206f776e657220717565727920666f72206e6f6e6578697374656e7420746f6b656e456e756d657261626c654d61703a20696e646578206f7574206f6620626f756e64734552433732313a20617070726f76656420717565727920666f72206e6f6e6578697374656e7420746f6b656e4f776e61626c653a2063616c6c6572206973206e6f7420746865206f776e65724552433732313a207472616e73666572206f6620746f6b656e2074686174206973206e6f74206f776e4552433732314d657461646174613a2055524920717565727920666f72206e6f6e6578697374656e7420746f6b656e4552433732313a20617070726f76616c20746f2063757272656e74206f776e65724552433732313a207472616e736665722063616c6c6572206973206e6f74206f776e6572206e6f7220617070726f766564a2646970667358221220ecdbe1ef514eaa7e35be762cc1660eb0e95559b8c7cc1aa4c71a2f968ecfee1f64736f6c63430007060033",
  "immutableReferences": {},
  "source": "// SPDX-License-Identifier: MIT\n\npragma solidity ^0.7.6;\npragma abicoder v2;\n\nimport \"@openzeppelin/contracts/token/ERC721/ERC721.sol\";\nimport \"@openzeppelin/contracts/access/Ownable.sol\";\nimport \"@openzeppelin/contracts/math/SafeMath.sol\";\nimport \"@openzeppelin/contracts/utils/Strings.sol\";\nimport \"./AddressToString.sol\";\n\ncontract AQVSSpaceV1 is Ownable, ERC721 {\n  using SafeMath for uint256;\n  using Strings for uint256;\n  using AddressToString for address;\n\n  uint256 public supply;\n  uint256 public spaceCapacityInBytes;\n  uint256 public accessPriceInWei;\n  address public creator;\n  bool public purchasable;\n\n  function version() public pure returns (string memory) {\n    return \"V1\";\n  }\n\n  modifier onlyCreator() {\n    require(creator == _msgSender(), \"only_creator\");\n    _;\n  }\n\n  function pay() public payable returns (bool) {\n    return true;\n  }\n\n  function release() public onlyCreator {\n    (bool success, ) = payable(creator).call{ value: address(this).balance }(\"\");\n    require(success, \"failed_to_release\");\n  }\n\n  function releaseTo(address to) public onlyCreator {\n    (bool success, ) = payable(to).call{ value: address(this).balance }(\"\");\n    require(success, \"failed_to_release\");\n  }\n\n  constructor(\n    string memory _name,\n    string memory _symbol,\n    uint256 _supply,\n    uint256 _spaceCapacityInBytes,\n    uint256 _accessPriceInWei,\n    bool _purchasable,\n    address _creator,\n    string memory _proxy\n  ) ERC721(_name, _symbol) {\n    supply = _supply;\n    spaceCapacityInBytes = _spaceCapacityInBytes;\n    accessPriceInWei = _accessPriceInWei;\n    purchasable = _purchasable;\n    creator = _creator;\n    _setBaseURI(\n      string(abi.encodePacked(_proxy, \"space-metadata/\", address(this).toString(), \"/\"))\n    );\n  }\n\n  function _grantAccess(address to) public onlyOwner {\n    uint256 totalSupply = totalSupply();\n    require(totalSupply < supply, \"sold_out\");\n    require(balanceOf(to) == 0, \"already_owns_space\");\n    _safeMint(to, SafeMath.add(totalSupply, 1));\n  }\n\n  function remainingSupply() public view returns (uint256) {\n    return SafeMath.sub(supply, totalSupply());\n  }\n\n  function setAccessPriceInWei(uint256 _accessPriceInWei) public onlyCreator {\n    accessPriceInWei = _accessPriceInWei;\n  }\n\n  function setPurchasable(bool _purchasable) public onlyCreator {\n    purchasable = _purchasable;\n  }\n\n  function _addSpaceCapacityInBytes(\n    uint256 additionalSpaceCapacityInBytes\n  ) public onlyOwner {\n    spaceCapacityInBytes = spaceCapacityInBytes + additionalSpaceCapacityInBytes;\n  }\n}\n",
  "sourcePath": "/Users/hhff/dev/aqueous-varnish/contracts/contracts/AQVSSpaceV1.sol",
  "compiler": {
    "name": "solc",
    "version": "0.7.6+commit.7338295f.Emscripten.clang"
  },
  "schemaVersion": "3.3.3",
  "updatedAt": "2021-09-06T15:13:13.888Z",
  "devdoc": {
    "kind": "dev",
    "methods": {
      "approve(address,uint256)": {
        "details": "See {IERC721-approve}."
      },
      "balanceOf(address)": {
        "details": "See {IERC721-balanceOf}."
      },
      "baseURI()": {
        "details": "Returns the base URI set via {_setBaseURI}. This will be automatically added as a prefix in {tokenURI} to each token's URI, or to the token ID if no specific URI is set for that token ID."
      },
      "getApproved(uint256)": {
        "details": "See {IERC721-getApproved}."
      },
      "isApprovedForAll(address,address)": {
        "details": "See {IERC721-isApprovedForAll}."
      },
      "name()": {
        "details": "See {IERC721Metadata-name}."
      },
      "owner()": {
        "details": "Returns the address of the current owner."
      },
      "ownerOf(uint256)": {
        "details": "See {IERC721-ownerOf}."
      },
      "renounceOwnership()": {
        "details": "Leaves the contract without owner. It will not be possible to call `onlyOwner` functions anymore. Can only be called by the current owner. NOTE: Renouncing ownership will leave the contract without an owner, thereby removing any functionality that is only available to the owner."
      },
      "safeTransferFrom(address,address,uint256)": {
        "details": "See {IERC721-safeTransferFrom}."
      },
      "safeTransferFrom(address,address,uint256,bytes)": {
        "details": "See {IERC721-safeTransferFrom}."
      },
      "setApprovalForAll(address,bool)": {
        "details": "See {IERC721-setApprovalForAll}."
      },
      "supportsInterface(bytes4)": {
        "details": "See {IERC165-supportsInterface}. Time complexity O(1), guaranteed to always use less than 30 000 gas."
      },
      "symbol()": {
        "details": "See {IERC721Metadata-symbol}."
      },
      "tokenByIndex(uint256)": {
        "details": "See {IERC721Enumerable-tokenByIndex}."
      },
      "tokenOfOwnerByIndex(address,uint256)": {
        "details": "See {IERC721Enumerable-tokenOfOwnerByIndex}."
      },
      "tokenURI(uint256)": {
        "details": "See {IERC721Metadata-tokenURI}."
      },
      "totalSupply()": {
        "details": "See {IERC721Enumerable-totalSupply}."
      },
      "transferFrom(address,address,uint256)": {
        "details": "See {IERC721-transferFrom}."
      },
      "transferOwnership(address)": {
        "details": "Transfers ownership of the contract to a new account (`newOwner`). Can only be called by the current owner."
      }
    },
    "version": 1
  },
  "userdoc": {
    "kind": "user",
    "methods": {},
    "version": 1
  }
}