{
  "contractName": "AQVSSpace",
  "abi": [
    {
      "inputs": [
        {
          "internalType": "uint256",
          "name": "_supply",
          "type": "uint256"
        },
        {
          "internalType": "uint256",
          "name": "_spaceCapacityInBytes",
          "type": "uint256"
        },
        {
          "internalType": "uint256",
          "name": "_accessPriceInWei",
          "type": "uint256"
        },
        {
          "internalType": "bool",
          "name": "_purchasable",
          "type": "bool"
        },
        {
          "internalType": "address",
          "name": "_creator",
          "type": "address"
        }
      ],
      "stateMutability": "nonpayable",
      "type": "constructor"
    },
    {
      "anonymous": false,
      "inputs": [
        {
          "indexed": true,
          "internalType": "address",
          "name": "previousOwner",
          "type": "address"
        },
        {
          "indexed": true,
          "internalType": "address",
          "name": "newOwner",
          "type": "address"
        }
      ],
      "name": "OwnershipTransferred",
      "type": "event"
    },
    {
      "inputs": [],
      "name": "accessPriceInWei",
      "outputs": [
        {
          "internalType": "uint256",
          "name": "",
          "type": "uint256"
        }
      ],
      "stateMutability": "view",
      "type": "function"
    },
    {
      "inputs": [],
      "name": "creator",
      "outputs": [
        {
          "internalType": "address",
          "name": "",
          "type": "address"
        }
      ],
      "stateMutability": "view",
      "type": "function"
    },
    {
      "inputs": [],
      "name": "owner",
      "outputs": [
        {
          "internalType": "address",
          "name": "",
          "type": "address"
        }
      ],
      "stateMutability": "view",
      "type": "function"
    },
    {
      "inputs": [],
      "name": "purchasable",
      "outputs": [
        {
          "internalType": "bool",
          "name": "",
          "type": "bool"
        }
      ],
      "stateMutability": "view",
      "type": "function"
    },
    {
      "inputs": [],
      "name": "renounceOwnership",
      "outputs": [],
      "stateMutability": "nonpayable",
      "type": "function"
    },
    {
      "inputs": [],
      "name": "spaceCapacityInBytes",
      "outputs": [
        {
          "internalType": "uint256",
          "name": "",
          "type": "uint256"
        }
      ],
      "stateMutability": "view",
      "type": "function"
    },
    {
      "inputs": [],
      "name": "supply",
      "outputs": [
        {
          "internalType": "uint256",
          "name": "",
          "type": "uint256"
        }
      ],
      "stateMutability": "view",
      "type": "function"
    },
    {
      "inputs": [
        {
          "internalType": "address",
          "name": "newOwner",
          "type": "address"
        }
      ],
      "name": "transferOwnership",
      "outputs": [],
      "stateMutability": "nonpayable",
      "type": "function"
    },
    {
      "inputs": [],
      "name": "buy",
      "outputs": [
        {
          "internalType": "bool",
          "name": "",
          "type": "bool"
        }
      ],
      "stateMutability": "payable",
      "type": "function"
    },
    {
      "inputs": [],
      "name": "release",
      "outputs": [],
      "stateMutability": "nonpayable",
      "type": "function"
    },
    {
      "inputs": [
        {
          "internalType": "uint256",
          "name": "_accessPriceInWei",
          "type": "uint256"
        }
      ],
      "name": "setAccessPriceInWei",
      "outputs": [],
      "stateMutability": "nonpayable",
      "type": "function"
    },
    {
      "inputs": [
        {
          "internalType": "bool",
          "name": "_purchasable",
          "type": "bool"
        }
      ],
      "name": "setPurchasable",
      "outputs": [],
      "stateMutability": "nonpayable",
      "type": "function"
    },
    {
      "inputs": [
        {
          "internalType": "uint256",
          "name": "additionalSpaceCapacityInBytes",
          "type": "uint256"
        }
      ],
      "name": "_addSpaceCapacityInBytes",
      "outputs": [],
      "stateMutability": "nonpayable",
      "type": "function"
    }
  ],
  "bytecode": "0x608060405234801561001057600080fd5b5060405161091f38038061091f83398101604081905261002f916100d1565b60006100396100cd565b600080546001600160a01b0319166001600160a01b0383169081178255604051929350917f8be0079c531659141344cd1fd0a4f28419497f9722a3daafe3b4186f6b6457e0908290a3506001949094556002929092556003556004805460ff60a01b1916600160a01b92151592909202919091176001600160a01b0319166001600160a01b03909216919091179055610136565b3390565b600080600080600060a086880312156100e8578081fd5b8551945060208601519350604086015192506060860151801515811461010c578182fd5b60808701519092506001600160a01b0381168114610128578182fd5b809150509295509295909350565b6107da806101456000396000f3fe6080604052600436106100c25760003560e01c80637aa039b81161007f5780638da5cb5b116100595780638da5cb5b146101cc578063a6f2ae3a146101e1578063eb8d0e4e146101e9578063f2fde38b14610209576100c2565b80637aa039b81461018d5780637fdc1312146101a257806386d1a69f146101b7576100c2565b806302d05d3f146100c7578063047fc9aa146100f25780633f3d83c3146101145780635a1498b014610136578063715018a61461015857806376052df81461016d575b600080fd5b3480156100d357600080fd5b506100dc610229565b6040516100e991906106f6565b60405180910390f35b3480156100fe57600080fd5b50610107610238565b6040516100e9919061073b565b34801561012057600080fd5b5061012961023e565b6040516100e9919061070a565b34801561014257600080fd5b506101566101513660046106de565b61024e565b005b34801561016457600080fd5b50610156610291565b34801561017957600080fd5b506101566101883660046106be565b61034f565b34801561019957600080fd5b506101076103a2565b3480156101ae57600080fd5b506101076103a8565b3480156101c357600080fd5b506101566103ae565b3480156101d857600080fd5b506100dc6103fb565b61012961040a565b3480156101f557600080fd5b506101566102043660046106de565b61040f565b34801561021557600080fd5b50610156610224366004610690565b61048e565b6004546001600160a01b031681565b60015481565b600454600160a01b900460ff1681565b6102566105a2565b6004546001600160a01b0390811691161461028c5760405162461bcd60e51b815260040161028390610715565b60405180910390fd5b600355565b6102996105a2565b6001600160a01b03166102aa6103fb565b6001600160a01b031614610305576040805162461bcd60e51b815260206004820181905260248201527f4f776e61626c653a2063616c6c6572206973206e6f7420746865206f776e6572604482015290519081900360640190fd5b600080546040516001600160a01b03909116907f8be0079c531659141344cd1fd0a4f28419497f9722a3daafe3b4186f6b6457e0908390a3600080546001600160a01b0319169055565b6103576105a2565b6004546001600160a01b039081169116146103845760405162461bcd60e51b815260040161028390610715565b60048054911515600160a01b0260ff60a01b19909216919091179055565b60025481565b60035481565b6103b66105a2565b6004546001600160a01b039081169116146103e35760405162461bcd60e51b815260040161028390610715565b6004546103f9906001600160a01b0316476105a6565b565b6000546001600160a01b031690565b600190565b6104176105a2565b6001600160a01b03166104286103fb565b6001600160a01b031614610483576040805162461bcd60e51b815260206004820181905260248201527f4f776e61626c653a2063616c6c6572206973206e6f7420746865206f776e6572604482015290519081900360640190fd5b600280549091019055565b6104966105a2565b6001600160a01b03166104a76103fb565b6001600160a01b031614610502576040805162461bcd60e51b815260206004820181905260248201527f4f776e61626c653a2063616c6c6572206973206e6f7420746865206f776e6572604482015290519081900360640190fd5b6001600160a01b0381166105475760405162461bcd60e51b81526004018080602001828103825260268152602001806107456026913960400191505060405180910390fd5b600080546040516001600160a01b03808516939216917f8be0079c531659141344cd1fd0a4f28419497f9722a3daafe3b4186f6b6457e091a3600080546001600160a01b0319166001600160a01b0392909216919091179055565b3390565b804710156105fb576040805162461bcd60e51b815260206004820152601d60248201527f416464726573733a20696e73756666696369656e742062616c616e6365000000604482015290519081900360640190fd5b6040516000906001600160a01b0384169083908381818185875af1925050503d8060008114610646576040519150601f19603f3d011682016040523d82523d6000602084013e61064b565b606091505b505090508061068b5760405162461bcd60e51b815260040180806020018281038252603a81526020018061076b603a913960400191505060405180910390fd5b505050565b6000602082840312156106a1578081fd5b81356001600160a01b03811681146106b7578182fd5b9392505050565b6000602082840312156106cf578081fd5b813580151581146106b7578182fd5b6000602082840312156106ef578081fd5b5035919050565b6001600160a01b0391909116815260200190565b901515815260200190565b6020808252600c908201526b37b7363cafb1b932b0ba37b960a11b604082015260600190565b9081526020019056fe4f776e61626c653a206e6577206f776e657220697320746865207a65726f2061646472657373416464726573733a20756e61626c6520746f2073656e642076616c75652c20726563697069656e74206d61792068617665207265766572746564a2646970667358221220de7deaddb521be2460d3a20bdd199fdff4b1ee830ef6960af2e6eb75554062c364736f6c63430007060033",
  "immutableReferences": {},
  "source": "// SPDX-License-Identifier: MIT\n\npragma solidity ^0.7.6;\npragma abicoder v2;\n\nimport \"@openzeppelin/contracts/access/Ownable.sol\";\nimport \"@openzeppelin/contracts/math/SafeMath.sol\";\nimport \"@openzeppelin/contracts/utils/Address.sol\";\n\ncontract AQVSSpace is Ownable {\n  using SafeMath for uint256;\n\n  uint256 public supply;\n  uint256 public spaceCapacityInBytes;\n  uint256 public accessPriceInWei;\n  address public creator;\n  bool public purchasable;\n\n  modifier onlyCreator() {\n    require(creator == _msgSender(), \"only_creator\");\n    _;\n  }\n\n  function buy() public payable returns (bool) {\n    return true;\n  }\n\n  function release() public onlyCreator {\n    Address.sendValue(payable(creator), address(this).balance);\n  }\n\n  constructor(\n    uint256 _supply,\n    uint256 _spaceCapacityInBytes,\n    uint256 _accessPriceInWei,\n    bool _purchasable,\n    address _creator\n  ) {\n    supply = _supply;\n    spaceCapacityInBytes = _spaceCapacityInBytes;\n    accessPriceInWei = _accessPriceInWei;\n    purchasable = _purchasable;\n\n    creator = _creator;\n  }\n\n  function setAccessPriceInWei(uint256 _accessPriceInWei) public onlyCreator {\n    accessPriceInWei = _accessPriceInWei;\n  }\n\n  function setPurchasable(bool _purchasable) public onlyCreator {\n    purchasable = _purchasable;\n  }\n\n  function _addSpaceCapacityInBytes(\n    uint256 additionalSpaceCapacityInBytes\n  ) public onlyOwner {\n    spaceCapacityInBytes = spaceCapacityInBytes + additionalSpaceCapacityInBytes;\n  }\n}\n",
  "sourcePath": "/Users/hhff/dev/aqueous-varnish/contracts/contracts/AQVSSpace.sol",
  "compiler": {
    "name": "solc",
    "version": "0.7.6+commit.7338295f.Emscripten.clang"
  },
  "schemaVersion": "3.3.3",
  "updatedAt": "2021-08-15T21:18:19.168Z",
  "devdoc": {
    "kind": "dev",
    "methods": {
      "owner()": {
        "details": "Returns the address of the current owner."
      },
      "renounceOwnership()": {
        "details": "Leaves the contract without owner. It will not be possible to call `onlyOwner` functions anymore. Can only be called by the current owner. NOTE: Renouncing ownership will leave the contract without an owner, thereby removing any functionality that is only available to the owner."
      },
      "transferOwnership(address)": {
        "details": "Transfers ownership of the contract to a new account (`newOwner`). Can only be called by the current owner."
      }
    },
    "version": 1
  },
  "userdoc": {
    "kind": "user",
    "methods": {},
    "version": 1
  }
}