{
  "contractName": "AQVS",
  "abi": [
    {
      "anonymous": false,
      "inputs": [
        {
          "indexed": false,
          "internalType": "uint256",
          "name": "spaceId",
          "type": "uint256"
        },
        {
          "indexed": false,
          "internalType": "address",
          "name": "spaceAddress",
          "type": "address"
        }
      ],
      "name": "DidAccessSpace",
      "type": "event"
    },
    {
      "anonymous": false,
      "inputs": [
        {
          "indexed": false,
          "internalType": "uint256",
          "name": "spaceId",
          "type": "uint256"
        },
        {
          "indexed": false,
          "internalType": "address",
          "name": "spaceAddress",
          "type": "address"
        }
      ],
      "name": "DidGiftSpaceAccess",
      "type": "event"
    },
    {
      "anonymous": false,
      "inputs": [
        {
          "indexed": false,
          "internalType": "uint256",
          "name": "spaceId",
          "type": "uint256"
        },
        {
          "indexed": false,
          "internalType": "address",
          "name": "spaceAddress",
          "type": "address"
        }
      ],
      "name": "DidMintSpace",
      "type": "event"
    },
    {
      "anonymous": false,
      "inputs": [
        {
          "indexed": true,
          "internalType": "address",
          "name": "previousOwner",
          "type": "address"
        },
        {
          "indexed": true,
          "internalType": "address",
          "name": "newOwner",
          "type": "address"
        }
      ],
      "name": "OwnershipTransferred",
      "type": "event"
    },
    {
      "inputs": [],
      "name": "owner",
      "outputs": [
        {
          "internalType": "address",
          "name": "",
          "type": "address"
        }
      ],
      "stateMutability": "view",
      "type": "function"
    },
    {
      "inputs": [],
      "name": "renounceOwnership",
      "outputs": [],
      "stateMutability": "nonpayable",
      "type": "function"
    },
    {
      "inputs": [],
      "name": "spaceCount",
      "outputs": [
        {
          "internalType": "uint256",
          "name": "",
          "type": "uint256"
        }
      ],
      "stateMutability": "view",
      "type": "function"
    },
    {
      "inputs": [
        {
          "internalType": "address",
          "name": "",
          "type": "address"
        },
        {
          "internalType": "uint256",
          "name": "",
          "type": "uint256"
        }
      ],
      "name": "spaceIdsByAccessor",
      "outputs": [
        {
          "internalType": "uint256",
          "name": "",
          "type": "uint256"
        }
      ],
      "stateMutability": "view",
      "type": "function"
    },
    {
      "inputs": [
        {
          "internalType": "address",
          "name": "",
          "type": "address"
        },
        {
          "internalType": "uint256",
          "name": "",
          "type": "uint256"
        }
      ],
      "name": "spaceIdsByCreator",
      "outputs": [
        {
          "internalType": "uint256",
          "name": "",
          "type": "uint256"
        }
      ],
      "stateMutability": "view",
      "type": "function"
    },
    {
      "inputs": [
        {
          "internalType": "uint256",
          "name": "",
          "type": "uint256"
        }
      ],
      "name": "spacesById",
      "outputs": [
        {
          "internalType": "address",
          "name": "",
          "type": "address"
        }
      ],
      "stateMutability": "view",
      "type": "function"
    },
    {
      "inputs": [],
      "name": "tokens",
      "outputs": [
        {
          "internalType": "contract AQVSTokens",
          "name": "",
          "type": "address"
        }
      ],
      "stateMutability": "view",
      "type": "function"
    },
    {
      "inputs": [
        {
          "internalType": "address",
          "name": "newOwner",
          "type": "address"
        }
      ],
      "name": "transferOwnership",
      "outputs": [],
      "stateMutability": "nonpayable",
      "type": "function"
    },
    {
      "inputs": [],
      "name": "weiCostPerStorageByte",
      "outputs": [
        {
          "internalType": "uint256",
          "name": "",
          "type": "uint256"
        }
      ],
      "stateMutability": "view",
      "type": "function"
    },
    {
      "inputs": [
        {
          "internalType": "string",
          "name": "uri",
          "type": "string"
        }
      ],
      "name": "init",
      "outputs": [],
      "stateMutability": "nonpayable",
      "type": "function"
    },
    {
      "inputs": [],
      "name": "release",
      "outputs": [],
      "stateMutability": "nonpayable",
      "type": "function"
    },
    {
      "inputs": [
        {
          "internalType": "address",
          "name": "to",
          "type": "address"
        }
      ],
      "name": "releaseTo",
      "outputs": [],
      "stateMutability": "nonpayable",
      "type": "function"
    },
    {
      "inputs": [
        {
          "internalType": "uint256",
          "name": "_weiCostPerStorageByte",
          "type": "uint256"
        }
      ],
      "name": "setWeiCostPerStorageByte",
      "outputs": [],
      "stateMutability": "nonpayable",
      "type": "function"
    },
    {
      "inputs": [
        {
          "internalType": "uint256",
          "name": "supply",
          "type": "uint256"
        },
        {
          "internalType": "uint256",
          "name": "spaceCapacityInBytes",
          "type": "uint256"
        },
        {
          "internalType": "uint256",
          "name": "accessPriceInWei",
          "type": "uint256"
        },
        {
          "internalType": "bool",
          "name": "purchasable",
          "type": "bool"
        }
      ],
      "name": "mintSpace",
      "outputs": [
        {
          "internalType": "uint256",
          "name": "",
          "type": "uint256"
        }
      ],
      "stateMutability": "payable",
      "type": "function"
    },
    {
      "inputs": [
        {
          "internalType": "uint256",
          "name": "spaceId",
          "type": "uint256"
        }
      ],
      "name": "accessSpace",
      "outputs": [
        {
          "internalType": "bool",
          "name": "",
          "type": "bool"
        }
      ],
      "stateMutability": "payable",
      "type": "function"
    },
    {
      "inputs": [
        {
          "internalType": "uint256",
          "name": "spaceId",
          "type": "uint256"
        },
        {
          "internalType": "uint256",
          "name": "additionalSpaceCapacityInBytes",
          "type": "uint256"
        }
      ],
      "name": "addSpaceCapacityInBytes",
      "outputs": [
        {
          "internalType": "bool",
          "name": "",
          "type": "bool"
        }
      ],
      "stateMutability": "payable",
      "type": "function"
    },
    {
      "inputs": [
        {
          "internalType": "uint256",
          "name": "spaceId",
          "type": "uint256"
        },
        {
          "internalType": "address",
          "name": "giftee",
          "type": "address"
        }
      ],
      "name": "giftSpaceAccess",
      "outputs": [
        {
          "internalType": "bool",
          "name": "",
          "type": "bool"
        }
      ],
      "stateMutability": "nonpayable",
      "type": "function"
    },
    {
      "inputs": [
        {
          "internalType": "uint256",
          "name": "supply",
          "type": "uint256"
        },
        {
          "internalType": "uint256",
          "name": "spaceCapacityInBytes",
          "type": "uint256"
        },
        {
          "internalType": "uint256",
          "name": "accessPriceInWei",
          "type": "uint256"
        }
      ],
      "name": "estimateSpaceFees",
      "outputs": [
        {
          "internalType": "uint256",
          "name": "",
          "type": "uint256"
        }
      ],
      "stateMutability": "view",
      "type": "function"
    },
    {
      "inputs": [
        {
          "internalType": "uint256",
          "name": "spaceId",
          "type": "uint256"
        }
      ],
      "name": "remainingSupply",
      "outputs": [
        {
          "internalType": "uint256",
          "name": "",
          "type": "uint256"
        }
      ],
      "stateMutability": "view",
      "type": "function"
    },
    {
      "inputs": [
        {
          "internalType": "uint256",
          "name": "spaceId",
          "type": "uint256"
        }
      ],
      "name": "spaceFees",
      "outputs": [
        {
          "internalType": "uint256",
          "name": "",
          "type": "uint256"
        }
      ],
      "stateMutability": "view",
      "type": "function"
    },
    {
      "inputs": [
        {
          "internalType": "uint256",
          "name": "spaceCapacityInBytes",
          "type": "uint256"
        }
      ],
      "name": "weiCostToMintSpace",
      "outputs": [
        {
          "internalType": "uint256",
          "name": "",
          "type": "uint256"
        }
      ],
      "stateMutability": "view",
      "type": "function"
    },
    {
      "inputs": [
        {
          "internalType": "address",
          "name": "creator",
          "type": "address"
        }
      ],
      "name": "spaceIdsCreatedBy",
      "outputs": [
        {
          "internalType": "uint256[]",
          "name": "",
          "type": "uint256[]"
        }
      ],
      "stateMutability": "view",
      "type": "function"
    },
    {
      "inputs": [
        {
          "internalType": "address",
          "name": "buyer",
          "type": "address"
        }
      ],
      "name": "spaceIdsOwnedBy",
      "outputs": [
        {
          "internalType": "uint256[]",
          "name": "",
          "type": "uint256[]"
        }
      ],
      "stateMutability": "view",
      "type": "function"
    }
  ],
  "bytecode": "0x608060405234801561001057600080fd5b50614c9a806100206000396000f3fe6080604052600436106200015e5760003560e01c80639639fedc11620000c7578063c4f012381162000079578063c4f0123814620003b5578063d1fb564614620003cc578063e47d9d5114620003f1578063f2fde38b1462000416578063f9fbdb9e146200043b578063fa8f9a2e1462000460576200015e565b80639639fedc14620002d55780639d63848a14620002fa578063a054fc531462000312578063a8b0668d1462000346578063b9abd588146200036b578063c2b7bd141462000390576200015e565b8063715018a61162000121578063715018a6146200020c57806375c3e435146200022657806380e4a36d146200024b57806385a99b03146200027f57806386d1a69f14620002a55780638da5cb5b14620002bd576200015e565b80631da6dcdf1462000163578063319ae4b21462000193578063369c3d2914620001ab57806347fda41a14620001d057806349a4625b14620001f5575b600080fd5b3480156200017057600080fd5b506200017b62000485565b6040516200018a91906200249e565b60405180910390f35b348015620001a057600080fd5b506200017b6200048b565b348015620001b857600080fd5b506200017b620001ca36600462002062565b62000491565b348015620001dd57600080fd5b506200017b620001ef36600462002062565b620006bd565b6200017b6200020636600462002114565b62000882565b3480156200021957600080fd5b506200022462000a5b565b005b3480156200023357600080fd5b506200017b6200024536600462002062565b62000b0d565b3480156200025857600080fd5b50620002706200026a36600462002062565b62000b14565b6040516200018a91906200215a565b620002966200029036600462002062565b62000b2f565b6040516200018a919062002226565b348015620002b257600080fd5b506200022462000fed565b348015620002ca57600080fd5b5062000270620010e4565b348015620002e257600080fd5b5062000224620002f436600462002062565b620010f3565b3480156200030757600080fd5b506200027062001160565b3480156200031f57600080fd5b50620003376200033136600462001f3c565b6200116f565b6040516200018a9190620021e0565b3480156200035357600080fd5b506200017b62000365366004620020e8565b620011dd565b3480156200037857600080fd5b506200017b6200038a36600462001f7a565b6200128e565b3480156200039d57600080fd5b506200017b620003af36600462001f7a565b620012c0565b62000296620003c6366004620020c6565b620012dd565b348015620003d957600080fd5b5062000224620003eb36600462001f3c565b620014e0565b348015620003fe57600080fd5b50620002966200041036600462002094565b620015cf565b3480156200042357600080fd5b50620002246200043536600462001f3c565b62001943565b3480156200044857600080fd5b50620002246200045a36600462001fc7565b62001a4e565b3480156200046d57600080fd5b50620003376200047f36600462001f3c565b62001b68565b60675481565b60665481565b60008181526068602090815260408083205481516302d05d3f60e01b815291516001600160a01b0390911692849284926302d05d3f92600480840193919291829003018186803b158015620004e557600080fd5b505afa158015620004fa573d6000803e3d6000fd5b505050506040513d601f19601f8201168201806040525081019062000520919062001f5b565b6001600160a01b03161415620005535760405162461bcd60e51b81526004016200054a90620023a0565b60405180910390fd5b620006b6816001600160a01b031663047fc9aa6040518163ffffffff1660e01b815260040160206040518083038186803b1580156200059157600080fd5b505afa158015620005a6573d6000803e3d6000fd5b505050506040513d601f19601f82011682018060405250810190620005cc91906200207b565b826001600160a01b0316637aa039b86040518163ffffffff1660e01b815260040160206040518083038186803b1580156200060657600080fd5b505afa1580156200061b573d6000803e3d6000fd5b505050506040513d601f19601f820116820180604052508101906200064191906200207b565b836001600160a01b0316637fdc13126040518163ffffffff1660e01b815260040160206040518083038186803b1580156200067b57600080fd5b505afa15801562000690573d6000803e3d6000fd5b505050506040513d601f19601f820116820180604052508101906200036591906200207b565b9392505050565b60008181526068602090815260408083205481516302d05d3f60e01b815291516001600160a01b0390911692849284926302d05d3f92600480840193919291829003018186803b1580156200071157600080fd5b505afa15801562000726573d6000803e3d6000fd5b505050506040513d601f19601f820116820180604052508101906200074c919062001f5b565b6001600160a01b03161415620007765760405162461bcd60e51b81526004016200054a90620023a0565b606560009054906101000a90046001600160a01b03166001600160a01b031662fdd58e826001600160a01b03166302d05d3f6040518163ffffffff1660e01b815260040160206040518083038186803b158015620007d357600080fd5b505afa158015620007e8573d6000803e3d6000fd5b505050506040513d601f19601f820116820180604052508101906200080e919062001f5b565b856040518363ffffffff1660e01b81526004016200082e929190620021a6565b60206040518083038186803b1580156200084757600080fd5b505afa1580156200085c573d6000803e3d6000fd5b505050506040513d601f19601f82011682018060405250810190620006b691906200207b565b60006200088f8462000b0d565b341015620008b15760405162461bcd60e51b81526004016200054a9062002425565b620008be858585620011dd565b831015620008e05760405162461bcd60e51b81526004016200054a90620022ff565b6000620008ec62001bd4565b60668054600101905560405190915086908690869086908590620009109062001f20565b62000920959493929190620024be565b604051809103906000f08015620009345760015b620009535760405162461bcd60e51b81526004016200054a90620022d4565b606554606654604051630ab714fb60e11b81526001600160a01b039092169163156e29f6916200098b918691908c90600401620021bf565b600060405180830381600087803b158015620009a657600080fd5b505af1158015620009bb573d6000803e3d6000fd5b505060668054600090815260686020908152604080832080546001600160a01b0319166001600160a01b03898116919091179091558816835260698252808320845481546001810183559185529290932090920155905490517f1fce8e247008119c5002087d6dfc56155c506f4108c23698fc9c1b6018995d54935062000a4592508490620024a7565b60405180910390a1505050606654949350505050565b62000a6562001bd4565b6001600160a01b031662000a78620010e4565b6001600160a01b03161462000ac3576040805162461bcd60e51b8152602060048201819052602482015260008051602062004c45833981519152604482015290519081900360640190fd5b6033546040516000916001600160a01b0316907f8be0079c531659141344cd1fd0a4f28419497f9722a3daafe3b4186f6b6457e0908390a3603380546001600160a01b0319169055565b6067540290565b6068602052600090815260409020546001600160a01b031681565b60008181526068602090815260408083205481516302d05d3f60e01b815291516001600160a01b0390911692849284926302d05d3f92600480840193919291829003018186803b15801562000b8357600080fd5b505afa15801562000b98573d6000803e3d6000fd5b505050506040513d601f19601f8201168201806040525081019062000bbe919062001f5b565b6001600160a01b0316141562000be85760405162461bcd60e51b81526004016200054a90620023a0565b806001600160a01b0316637fdc13126040518163ffffffff1660e01b815260040160206040518083038186803b15801562000c2257600080fd5b505afa15801562000c37573d6000803e3d6000fd5b505050506040513d601f19601f8201168201806040525081019062000c5d91906200207b565b34101562000c7f5760405162461bcd60e51b81526004016200054a9062002425565b806001600160a01b0316633f3d83c36040518163ffffffff1660e01b815260040160206040518083038186803b15801562000cb957600080fd5b505afa15801562000cce573d6000803e3d6000fd5b505050506040513d601f19601f8201168201806040525081019062000cf4919062001fa8565b151560011462000d185760405162461bcd60e51b81526004016200054a9062002326565b600062000d2462001bd4565b606554604051627eeac760e11b81529192506001600160a01b03169062fdd58e9062000d579084908890600401620021a6565b60206040518083038186803b15801562000d7057600080fd5b505afa15801562000d85573d6000803e3d6000fd5b505050506040513d601f19601f8201168201806040525081019062000dab91906200207b565b1562000dcb5760405162461bcd60e51b81526004016200054a90620023ca565b606560009054906101000a90046001600160a01b03166001600160a01b031663f242432a836001600160a01b03166302d05d3f6040518163ffffffff1660e01b815260040160206040518083038186803b15801562000e2957600080fd5b505afa15801562000e3e573d6000803e3d6000fd5b505050506040513d601f19601f8201168201806040525081019062000e64919062001f5b565b838760016040518563ffffffff1660e01b815260040162000e8994939291906200216e565b600060405180830381600087803b15801562000ea457600080fd5b505af115801562000eb9573d6000803e3d6000fd5b50505050600062000eca8562000491565b9050600062000eda348362001bd8565b90506000846001600160a01b031663a6f2ae3a836040518263ffffffff1660e01b81526004016020604051808303818588803b15801562000f1a57600080fd5b505af115801562000f2f573d6000803e3d6000fd5b50505050506040513d601f19601f8201168201806040525081019062000f56919062001fa8565b90508062000f785760405162461bcd60e51b81526004016200054a90620023f6565b6001600160a01b0384166000908152606a6020908152604080832080546001810182559084529190922001889055517f3529f9f3c13f3ef4654872d6333a2ab23645d74430b1a5ee2e4a16f935fd69ad9062000fd89089908890620024a7565b60405180910390a15060019695505050505050565b62000ff762001bd4565b6001600160a01b03166200100a620010e4565b6001600160a01b03161462001055576040805162461bcd60e51b8152602060048201819052602482015260008051602062004c45833981519152604482015290519081900360640190fd5b600062001061620010e4565b6001600160a01b031647604051620010799062002157565b60006040518083038185875af1925050503d8060008114620010b8576040519150601f19603f3d011682016040523d82523d6000602084013e620010bd565b606091505b5050905080620010e15760405162461bcd60e51b81526004016200054a9062002473565b50565b6033546001600160a01b031690565b620010fd62001bd4565b6001600160a01b031662001110620010e4565b6001600160a01b0316146200115b576040805162461bcd60e51b8152602060048201819052602482015260008051602062004c45833981519152604482015290519081900360640190fd5b606755565b6065546001600160a01b031681565b6001600160a01b038116600090815260696020908152604091829020805483518184028101840190945280845260609392830182828015620011d157602002820191906000526020600020905b815481526020019060010190808311620011bc575b50505050509050919050565b6000808411620012015760405162461bcd60e51b81526004016200054a9062002378565b620f42408410620012265760405162461bcd60e51b81526004016200054a906200234f565b6203e7ff83116200124b5760405162461bcd60e51b81526004016200054a906200244a565b64174876e8018310620012725760405162461bcd60e51b81526004016200054a90620022ad565b6200127f82606462001c36565b60675484020190509392505050565b60696020528160005260406000208181548110620012ab57600080fd5b90600052602060002001600091509150505481565b606a6020528160005260406000208181548110620012ab57600080fd5b60008281526068602090815260408083205481516302d05d3f60e01b815291516001600160a01b0390911692849284926302d05d3f92600480840193919291829003018186803b1580156200133157600080fd5b505afa15801562001346573d6000803e3d6000fd5b505050506040513d601f19601f820116820180604052508101906200136c919062001f5b565b6001600160a01b03161415620013965760405162461bcd60e51b81526004016200054a90620023a0565b620013a062001bd4565b6001600160a01b0316816001600160a01b03166302d05d3f6040518163ffffffff1660e01b815260040160206040518083038186803b158015620013e357600080fd5b505afa158015620013f8573d6000803e3d6000fd5b505050506040513d601f19601f820116820180604052508101906200141e919062001f5b565b6001600160a01b031614620014475760405162461bcd60e51b81526004016200054a9062002287565b34620014538462000b0d565b1015620014745760405162461bcd60e51b81526004016200054a9062002425565b6040516375c6872760e11b81526001600160a01b0382169063eb8d0e4e90620014a29086906004016200249e565b600060405180830381600087803b158015620014bd57600080fd5b505af1158015620014d2573d6000803e3d6000fd5b506001979650505050505050565b620014ea62001bd4565b6001600160a01b0316620014fd620010e4565b6001600160a01b03161462001548576040805162461bcd60e51b8152602060048201819052602482015260008051602062004c45833981519152604482015290519081900360640190fd5b6000816001600160a01b031647604051620015639062002157565b60006040518083038185875af1925050503d8060008114620015a2576040519150601f19603f3d011682016040523d82523d6000602084013e620015a7565b606091505b5050905080620015cb5760405162461bcd60e51b81526004016200054a9062002473565b5050565b60008281526068602090815260408083205481516302d05d3f60e01b815291516001600160a01b0390911692849284926302d05d3f92600480840193919291829003018186803b1580156200162357600080fd5b505afa15801562001638573d6000803e3d6000fd5b505050506040513d601f19601f820116820180604052508101906200165e919062001f5b565b6001600160a01b03161415620016885760405162461bcd60e51b81526004016200054a90620023a0565b6200169262001bd4565b6001600160a01b0316816001600160a01b03166302d05d3f6040518163ffffffff1660e01b815260040160206040518083038186803b158015620016d557600080fd5b505afa158015620016ea573d6000803e3d6000fd5b505050506040513d601f19601f8201168201806040525081019062001710919062001f5b565b6001600160a01b031614620017395760405162461bcd60e51b81526004016200054a9062002287565b606554604051627eeac760e11b81526001600160a01b039091169062fdd58e906200176b9086908890600401620021a6565b60206040518083038186803b1580156200178457600080fd5b505afa15801562001799573d6000803e3d6000fd5b505050506040513d601f19601f82011682018060405250810190620017bf91906200207b565b15620017df5760405162461bcd60e51b81526004016200054a90620023ca565b606560009054906101000a90046001600160a01b03166001600160a01b031663f242432a826001600160a01b03166302d05d3f6040518163ffffffff1660e01b815260040160206040518083038186803b1580156200183d57600080fd5b505afa15801562001852573d6000803e3d6000fd5b505050506040513d601f19601f8201168201806040525081019062001878919062001f5b565b858760016040518563ffffffff1660e01b81526004016200189d94939291906200216e565b600060405180830381600087803b158015620018b857600080fd5b505af1158015620018cd573d6000803e3d6000fd5b5050506001600160a01b0384166000908152606a6020908152604080832080546001810182559084529190922001869055517f6ba0f9aba48b0cbcb84e4f14142a3fa09245a4395c829c359aac5fed95fcf5a19150620019319086908490620024a7565b60405180910390a15060019392505050565b6200194d62001bd4565b6001600160a01b031662001960620010e4565b6001600160a01b031614620019ab576040805162461bcd60e51b8152602060048201819052602482015260008051602062004c45833981519152604482015290519081900360640190fd5b6001600160a01b038116620019f25760405162461bcd60e51b815260040180806020018281038252602681526020018062004bf16026913960400191505060405180910390fd5b6033546040516001600160a01b038084169216907f8be0079c531659141344cd1fd0a4f28419497f9722a3daafe3b4186f6b6457e090600090a3603380546001600160a01b0319166001600160a01b0392909216919091179055565b600054610100900460ff168062001a6a575062001a6a62001c9f565b8062001a79575060005460ff16155b62001ab65760405162461bcd60e51b815260040180806020018281038252602e81526020018062004c17602e913960400191505060405180910390fd5b600054610100900460ff1615801562001ae2576000805460ff1961ff0019909116610100171660011790555b62001aec62001cb2565b8160405162001afb9062001f2e565b62001b07919062002231565b604051809103906000f08015801562001b24573d6000803e3d6000fd5b50606580546001600160a01b0319166001600160a01b03929092169190911790556000606655637d2b75006067558015620015cb576000805461ff00191690555050565b6001600160a01b0381166000908152606a6020908152604091829020805483518184028101840190945280845260609392830182828015620011d15760200282019190600052602060002090815481526020019060010190808311620011bc5750505050509050919050565b3390565b60008282111562001c30576040805162461bcd60e51b815260206004820152601e60248201527f536166654d6174683a207375627472616374696f6e206f766572666c6f770000604482015290519081900360640190fd5b50900390565b600080821162001c8d576040805162461bcd60e51b815260206004820152601a60248201527f536166654d6174683a206469766973696f6e206279207a65726f000000000000604482015290519081900360640190fd5b81838162001c9757fe5b049392505050565b600062001cac3062001d6f565b15905090565b600054610100900460ff168062001cce575062001cce62001c9f565b8062001cdd575060005460ff16155b62001d1a5760405162461bcd60e51b815260040180806020018281038252602e81526020018062004c17602e913960400191505060405180910390fd5b600054610100900460ff1615801562001d46576000805460ff1961ff0019909116610100171660011790555b62001d5062001d75565b62001d5a62001e1d565b8015620010e1576000805461ff001916905550565b3b151590565b600054610100900460ff168062001d91575062001d9162001c9f565b8062001da0575060005460ff16155b62001ddd5760405162461bcd60e51b815260040180806020018281038252602e81526020018062004c17602e913960400191505060405180910390fd5b600054610100900460ff1615801562001d5a576000805460ff1961ff0019909116610100171660011790558015620010e1576000805461ff001916905550565b600054610100900460ff168062001e39575062001e3962001c9f565b8062001e48575060005460ff16155b62001e855760405162461bcd60e51b815260040180806020018281038252602e81526020018062004c17602e913960400191505060405180910390fd5b600054610100900460ff1615801562001eb1576000805460ff1961ff0019909116610100171660011790555b600062001ebd62001bd4565b603380546001600160a01b0319166001600160a01b038316908117909155604051919250906000907f8be0079c531659141344cd1fd0a4f28419497f9722a3daafe3b4186f6b6457e0908290a3508015620010e1576000805461ff001916905550565b610985806200251283390190565b611d5a8062002e9783390190565b60006020828403121562001f4e578081fd5b8135620006b681620024ec565b60006020828403121562001f6d578081fd5b8151620006b681620024ec565b6000806040838503121562001f8d578081fd5b823562001f9a81620024ec565b946020939093013593505050565b60006020828403121562001fba578081fd5b8151620006b68162002502565b6000602080838503121562001fda578182fd5b823567ffffffffffffffff8082111562001ff2578384fd5b818501915085601f83011262002006578384fd5b8135818111156200201357fe5b604051601f8201601f19168101850183811182821017156200203157fe5b604052818152838201850188101562002048578586fd5b818585018683013790810190930193909352509392505050565b60006020828403121562002074578081fd5b5035919050565b6000602082840312156200208d578081fd5b5051919050565b60008060408385031215620020a7578182fd5b823591506020830135620020bb81620024ec565b809150509250929050565b60008060408385031215620020d9578182fd5b50508035926020909101359150565b600080600060608486031215620020fd578081fd5b505081359360208301359350604090920135919050565b600080600080608085870312156200212a578081fd5b84359350602085013592506040850135915060608501356200214c8162002502565b939692955090935050565b90565b6001600160a01b0391909116815260200190565b6001600160a01b0394851681529290931660208301526040820152606081019190915260a06080820181905260009082015260c00190565b6001600160a01b03929092168252602082015260400190565b6001600160a01b039390931683526020830191909152604082015260600190565b6020808252825182820181905260009190848201906040850190845b818110156200221a57835183529284019291840191600101620021fc565b50909695505050505050565b901515815260200190565b6000602080835283518082850152825b818110156200225f5785810183015185820160400152820162002241565b81811115620022715783604083870101525b50601f01601f1916929092016040019392505050565b6020808252600c908201526b37b7363cafb1b932b0ba37b960a11b604082015260600190565b6020808252600d908201526c73706163655f746f6f5f62696760981b604082015260600190565b6020808252601190820152701b585ad957dcdc1858d957d9985a5b1959607a1b604082015260600190565b6020808252600d908201526c70726963655f746f6f5f6c6f7760981b604082015260600190565b6020808252600f908201526e6e6f745f7075726368617361626c6560881b604082015260600190565b6020808252600f908201526e0e6eae0e0d8f2bee8dedebed0d2ced608b1b604082015260600190565b6020808252600e908201526d737570706c795f746f6f5f6c6f7760901b604082015260600190565b60208082526010908201526f1cdc1858d957db5d5cdd17d95e1a5cdd60821b604082015260600190565b602080825260129082015271616c72656164795f6f776e735f737061636560701b604082015260600190565b6020808252601590820152743330b4b632b22fba37afb830bcafb1b932b0ba37b960591b604082015260600190565b6020808252600b908201526a18985917dc185e5b595b9d60aa1b604082015260600190565b6020808252600f908201526e1cdc1858d957dd1bdbd7dcdb585b1b608a1b604082015260600190565b6020808252601190820152706661696c65645f746f5f72656c6561736560781b604082015260600190565b90815260200190565b9182526001600160a01b0316602082015260400190565b94855260208501939093526040840191909152151560608301526001600160a01b0316608082015260a00190565b6001600160a01b0381168114620010e157600080fd5b8015158114620010e157600080fdfe608060405234801561001057600080fd5b5060405161098538038061098583398101604081905261002f916100d1565b60006100396100cd565b600080546001600160a01b0319166001600160a01b0383169081178255604051929350917f8be0079c531659141344cd1fd0a4f28419497f9722a3daafe3b4186f6b6457e0908290a3506001949094556002929092556003556004805460ff60a01b1916600160a01b92151592909202919091176001600160a01b0319166001600160a01b03909216919091179055610136565b3390565b600080600080600060a086880312156100e8578081fd5b8551945060208601519350604086015192506060860151801515811461010c578182fd5b60808701519092506001600160a01b0381168114610128578182fd5b809150509295509295909350565b610840806101456000396000f3fe6080604052600436106100dd5760003560e01c80637fdc13121161007f578063a6f2ae3a11610059578063a6f2ae3a146101fc578063d1fb564614610204578063eb8d0e4e14610224578063f2fde38b14610244576100dd565b80637fdc1312146101bd57806386d1a69f146101d25780638da5cb5b146101e7576100dd565b80635a1498b0116100bb5780635a1498b014610151578063715018a61461017357806376052df8146101885780637aa039b8146101a8576100dd565b806302d05d3f146100e2578063047fc9aa1461010d5780633f3d83c31461012f575b600080fd5b3480156100ee57600080fd5b506100f7610264565b604051610104919061076b565b60405180910390f35b34801561011957600080fd5b50610122610273565b60405161010491906107db565b34801561013b57600080fd5b50610144610279565b604051610104919061077f565b34801561015d57600080fd5b5061017161016c366004610750565b610289565b005b34801561017f57600080fd5b506101716102cc565b34801561019457600080fd5b506101716101a3366004610730565b61038a565b3480156101b457600080fd5b506101226103dd565b3480156101c957600080fd5b506101226103e3565b3480156101de57600080fd5b506101716103e9565b3480156101f357600080fd5b506100f76104a2565b6101446104b1565b34801561021057600080fd5b5061017161021f366004610702565b6104b6565b34801561023057600080fd5b5061017161023f366004610750565b61056b565b34801561025057600080fd5b5061017161025f366004610702565b6105ea565b6004546001600160a01b031681565b60015481565b600454600160a01b900460ff1681565b6102916106fe565b6004546001600160a01b039081169116146102c75760405162461bcd60e51b81526004016102be9061078a565b60405180910390fd5b600355565b6102d46106fe565b6001600160a01b03166102e56104a2565b6001600160a01b031614610340576040805162461bcd60e51b815260206004820181905260248201527f4f776e61626c653a2063616c6c6572206973206e6f7420746865206f776e6572604482015290519081900360640190fd5b600080546040516001600160a01b03909116907f8be0079c531659141344cd1fd0a4f28419497f9722a3daafe3b4186f6b6457e0908390a3600080546001600160a01b0319169055565b6103926106fe565b6004546001600160a01b039081169116146103bf5760405162461bcd60e51b81526004016102be9061078a565b60048054911515600160a01b0260ff60a01b19909216919091179055565b60025481565b60035481565b6103f16106fe565b6004546001600160a01b0390811691161461041e5760405162461bcd60e51b81526004016102be9061078a565b6004546040516000916001600160a01b031690479061043c90610768565b60006040518083038185875af1925050503d8060008114610479576040519150601f19603f3d011682016040523d82523d6000602084013e61047e565b606091505b505090508061049f5760405162461bcd60e51b81526004016102be906107b0565b50565b6000546001600160a01b031690565b600190565b6104be6106fe565b6004546001600160a01b039081169116146104eb5760405162461bcd60e51b81526004016102be9061078a565b6000816001600160a01b03164760405161050490610768565b60006040518083038185875af1925050503d8060008114610541576040519150601f19603f3d011682016040523d82523d6000602084013e610546565b606091505b50509050806105675760405162461bcd60e51b81526004016102be906107b0565b5050565b6105736106fe565b6001600160a01b03166105846104a2565b6001600160a01b0316146105df576040805162461bcd60e51b815260206004820181905260248201527f4f776e61626c653a2063616c6c6572206973206e6f7420746865206f776e6572604482015290519081900360640190fd5b600280549091019055565b6105f26106fe565b6001600160a01b03166106036104a2565b6001600160a01b03161461065e576040805162461bcd60e51b815260206004820181905260248201527f4f776e61626c653a2063616c6c6572206973206e6f7420746865206f776e6572604482015290519081900360640190fd5b6001600160a01b0381166106a35760405162461bcd60e51b81526004018080602001828103825260268152602001806107e56026913960400191505060405180910390fd5b600080546040516001600160a01b03808516939216917f8be0079c531659141344cd1fd0a4f28419497f9722a3daafe3b4186f6b6457e091a3600080546001600160a01b0319166001600160a01b0392909216919091179055565b3390565b600060208284031215610713578081fd5b81356001600160a01b0381168114610729578182fd5b9392505050565b600060208284031215610741578081fd5b81358015158114610729578182fd5b600060208284031215610761578081fd5b5035919050565b90565b6001600160a01b0391909116815260200190565b901515815260200190565b6020808252600c908201526b37b7363cafb1b932b0ba37b960a11b604082015260600190565b6020808252601190820152706661696c65645f746f5f72656c6561736560781b604082015260600190565b9081526020019056fe4f776e61626c653a206e6577206f776e657220697320746865207a65726f2061646472657373a2646970667358221220b46e9182ace7a499f7b1ecabf02162dfea6a24db6f02830b062bae5f6e3cb3cb64736f6c6343000706003360806040523480156200001157600080fd5b5060405162001d5a38038062001d5a833981810160405260208110156200003757600080fd5b81019080805160405193929190846401000000008211156200005857600080fd5b9083019060208201858111156200006e57600080fd5b82516401000000008111828201881017156200008957600080fd5b82525081516020918201929091019080838360005b83811015620000b85781810151838201526020016200009e565b50505050905090810190601f168015620000e65780820380516001836020036101000a031916815260200191505b50604052505050806000620001006200019360201b60201c565b600080546001600160a01b0319166001600160a01b0383169081178255604051929350917f8be0079c531659141344cd1fd0a4f28419497f9722a3daafe3b4186f6b6457e0908290a3506200015c6301ffc9a760e01b62000197565b62000167816200021f565b62000179636cdb3d1360e11b62000197565b6200018b6303a24d0760e21b62000197565b5050620002e4565b3390565b6001600160e01b03198082161415620001f7576040805162461bcd60e51b815260206004820152601c60248201527f4552433136353a20696e76616c696420696e7465726661636520696400000000604482015290519081900360640190fd5b6001600160e01b0319166000908152600160208190526040909120805460ff19169091179055565b80516200023490600490602084019062000238565b5050565b828054600181600116156101000203166002900490600052602060002090601f016020900481019282620002705760008555620002bb565b82601f106200028b57805160ff1916838001178555620002bb565b82800160010185558215620002bb579182015b82811115620002bb5782518255916020019190600101906200029e565b50620002c9929150620002cd565b5090565b5b80821115620002c95760008155600101620002ce565b611a6680620002f46000396000f3fe608060405234801561001057600080fd5b50600436106100b35760003560e01c8063715018a611610071578063715018a61461052b5780638da5cb5b14610533578063a22cb46514610557578063e985e9c514610585578063f242432a146105b3578063f2fde38b1461067c576100b3565b8062fdd58e146100b857806301ffc9a7146100f65780630e89341c14610131578063156e29f6146101c35780632eb2c2d6146101f75780634e1273f4146103b8575b600080fd5b6100e4600480360360408110156100ce57600080fd5b506001600160a01b0381351690602001356106a2565b60408051918252519081900360200190f35b61011d6004803603602081101561010c57600080fd5b50356001600160e01b031916610714565b604080519115158252519081900360200190f35b61014e6004803603602081101561014757600080fd5b5035610733565b6040805160208082528351818301528351919283929083019185019080838360005b83811015610188578181015183820152602001610170565b50505050905090810190601f1680156101b55780820380516001836020036101000a031916815260200191505b509250505060405180910390f35b6101f5600480360360608110156101d957600080fd5b506001600160a01b0381351690602081013590604001356107cb565b005b6101f5600480360360a081101561020d57600080fd5b6001600160a01b038235811692602081013590911691810190606081016040820135600160201b81111561024057600080fd5b82018360208201111561025257600080fd5b803590602001918460208302840111600160201b8311171561027357600080fd5b9190808060200260200160405190810160405280939291908181526020018383602002808284376000920191909152509295949360208101935035915050600160201b8111156102c257600080fd5b8201836020820111156102d457600080fd5b803590602001918460208302840111600160201b831117156102f557600080fd5b9190808060200260200160405190810160405280939291908181526020018383602002808284376000920191909152509295949360208101935035915050600160201b81111561034457600080fd5b82018360208201111561035657600080fd5b803590602001918460018302840111600160201b8311171561037757600080fd5b91908080601f01602080910402602001604051908101604052809392919081815260200183838082843760009201919091525092955061085f945050505050565b6104db600480360360408110156103ce57600080fd5b810190602081018135600160201b8111156103e857600080fd5b8201836020820111156103fa57600080fd5b803590602001918460208302840111600160201b8311171561041b57600080fd5b9190808060200260200160405190810160405280939291908181526020018383602002808284376000920191909152509295949360208101935035915050600160201b81111561046a57600080fd5b82018360208201111561047c57600080fd5b803590602001918460208302840111600160201b8311171561049d57600080fd5b919080806020026020016040519081016040528093929190818152602001838360200280828437600092019190915250929550610b62945050505050565b60408051602080825283518183015283519192839290830191858101910280838360005b838110156105175781810151838201526020016104ff565b505050509050019250505060405180910390f35b6101f5610c4e565b61053b610d0c565b604080516001600160a01b039092168252519081900360200190f35b6101f56004803603604081101561056d57600080fd5b506001600160a01b0381351690602001351515610d1c565b61011d6004803603604081101561059b57600080fd5b506001600160a01b0381358116916020013516610e0b565b6101f5600480360360a08110156105c957600080fd5b6001600160a01b03823581169260208101359091169160408201359160608101359181019060a081016080820135600160201b81111561060857600080fd5b82018360208201111561061a57600080fd5b803590602001918460018302840111600160201b8311171561063b57600080fd5b91908080601f016020809104026020016040519081016040528093929190818152602001838380828437600092019190915250929550610e4e945050505050565b6101f56004803603602081101561069257600080fd5b50356001600160a01b0316611019565b60006001600160a01b0383166106e95760405162461bcd60e51b815260040180806020018281038252602b81526020018061189b602b913960400191505060405180910390fd5b5060008181526002602090815260408083206001600160a01b03861684529091529020545b92915050565b6001600160e01b03191660009081526001602052604090205460ff1690565b60048054604080516020601f60026000196101006001881615020190951694909404938401819004810282018101909252828152606093909290918301828280156107bf5780601f10610794576101008083540402835291602001916107bf565b820191906000526020600020905b8154815290600101906020018083116107a257829003601f168201915b50505050509050919050565b6107d361112d565b6001600160a01b03166107e4610d0c565b6001600160a01b03161461083f576040805162461bcd60e51b815260206004820181905260248201527f4f776e61626c653a2063616c6c6572206973206e6f7420746865206f776e6572604482015290519081900360640190fd5b61085a83838360405180602001604052806000815250611131565b505050565b815183511461089f5760405162461bcd60e51b81526004018080602001828103825260288152602001806119e86028913960400191505060405180910390fd5b6001600160a01b0384166108e45760405162461bcd60e51b81526004018080602001828103825260258152602001806119156025913960400191505060405180910390fd5b6108ec61112d565b6001600160a01b0316856001600160a01b0316148061091757506109178561091261112d565b610e0b565b6109525760405162461bcd60e51b815260040180806020018281038252603281526020018061193a6032913960400191505060405180910390fd5b600061095c61112d565b905061096c818787878787610b5a565b60005b8451811015610a7257600085828151811061098657fe5b60200260200101519050600085838151811061099e57fe5b60200260200101519050610a0b816040518060600160405280602a815260200161196c602a91396002600086815260200190815260200160002060008d6001600160a01b03166001600160a01b03168152602001908152602001600020546112399092919063ffffffff16565b60008381526002602090815260408083206001600160a01b038e811685529252808320939093558a1681522054610a4290826112d0565b60009283526002602090815260408085206001600160a01b038c168652909152909220919091555060010161096f565b50846001600160a01b0316866001600160a01b0316826001600160a01b03167f4a39dc06d4c0dbc64b70af90fd698a233a518aa5d07e595d983b8c0526c8f7fb8787604051808060200180602001838103835285818151815260200191508051906020019060200280838360005b83811015610af8578181015183820152602001610ae0565b50505050905001838103825284818151815260200191508051906020019060200280838360005b83811015610b37578181015183820152602001610b1f565b5050505090500194505050505060405180910390a4610b5a81878787878761132a565b505050505050565b60608151835114610ba45760405162461bcd60e51b81526004018080602001828103825260298152602001806119bf6029913960400191505060405180910390fd5b6000835167ffffffffffffffff81118015610bbe57600080fd5b50604051908082528060200260200182016040528015610be8578160200160208202803683370190505b50905060005b8451811015610c4657610c27858281518110610c0657fe5b6020026020010151858381518110610c1a57fe5b60200260200101516106a2565b828281518110610c3357fe5b6020908102919091010152600101610bee565b509392505050565b610c5661112d565b6001600160a01b0316610c67610d0c565b6001600160a01b031614610cc2576040805162461bcd60e51b815260206004820181905260248201527f4f776e61626c653a2063616c6c6572206973206e6f7420746865206f776e6572604482015290519081900360640190fd5b600080546040516001600160a01b03909116907f8be0079c531659141344cd1fd0a4f28419497f9722a3daafe3b4186f6b6457e0908390a3600080546001600160a01b0319169055565b6000546001600160a01b03165b90565b816001600160a01b0316610d2e61112d565b6001600160a01b03161415610d745760405162461bcd60e51b81526004018080602001828103825260298152602001806119966029913960400191505060405180910390fd5b8060036000610d8161112d565b6001600160a01b03908116825260208083019390935260409182016000908120918716808252919093529120805460ff191692151592909217909155610dc561112d565b6001600160a01b03167f17307eab39ab6107e8899845ad3d59bd9653f200f220920489ca2b5937696c318360405180821515815260200191505060405180910390a35050565b6000610e15610d0c565b6001600160a01b0316610e2661112d565b6001600160a01b03161415610e3d5750600161070e565b610e4783836115a9565b9392505050565b6001600160a01b038416610e935760405162461bcd60e51b81526004018080602001828103825260258152602001806119156025913960400191505060405180910390fd5b610e9b61112d565b6001600160a01b0316856001600160a01b03161480610ec15750610ec18561091261112d565b610efc5760405162461bcd60e51b81526004018080602001828103825260298152602001806118ec6029913960400191505060405180910390fd5b6000610f0661112d565b9050610f26818787610f17886115d7565b610f20886115d7565b87610b5a565b610f6d836040518060600160405280602a815260200161196c602a913960008781526002602090815260408083206001600160a01b038d1684529091529020549190611239565b60008581526002602090815260408083206001600160a01b038b81168552925280832093909355871681522054610fa490846112d0565b60008581526002602090815260408083206001600160a01b03808b168086529184529382902094909455805188815291820187905280518a8416938616927fc3d58168c5ae7397731d063d5bbf3d657854427343f4c083240f7aacaa2d0f6292908290030190a4610b5a81878787878761161c565b61102161112d565b6001600160a01b0316611032610d0c565b6001600160a01b03161461108d576040805162461bcd60e51b815260206004820181905260248201527f4f776e61626c653a2063616c6c6572206973206e6f7420746865206f776e6572604482015290519081900360640190fd5b6001600160a01b0381166110d25760405162461bcd60e51b81526004018080602001828103825260268152602001806118c66026913960400191505060405180910390fd5b600080546040516001600160a01b03808516939216917f8be0079c531659141344cd1fd0a4f28419497f9722a3daafe3b4186f6b6457e091a3600080546001600160a01b0319166001600160a01b0392909216919091179055565b3390565b6001600160a01b0384166111765760405162461bcd60e51b8152600401808060200182810382526021815260200180611a106021913960400191505060405180910390fd5b600061118061112d565b905061119281600087610f17886115d7565b60008481526002602090815260408083206001600160a01b03891684529091529020546111bf90846112d0565b60008581526002602090815260408083206001600160a01b03808b16808652918452828520959095558151898152928301889052815190948616927fc3d58168c5ae7397731d063d5bbf3d657854427343f4c083240f7aacaa2d0f6292908290030190a46112328160008787878761161c565b5050505050565b600081848411156112c85760405162461bcd60e51b81526004018080602001828103825283818151815260200191508051906020019080838360005b8381101561128d578181015183820152602001611275565b50505050905090810190601f1680156112ba5780820380516001836020036101000a031916815260200191505b509250505060405180910390fd5b505050900390565b600082820183811015610e47576040805162461bcd60e51b815260206004820152601b60248201527f536166654d6174683a206164646974696f6e206f766572666c6f770000000000604482015290519081900360640190fd5b61133c846001600160a01b031661178d565b15610b5a57836001600160a01b031663bc197c8187878686866040518663ffffffff1660e01b815260040180866001600160a01b03168152602001856001600160a01b03168152602001806020018060200180602001848103845287818151815260200191508051906020019060200280838360005b838110156113ca5781810151838201526020016113b2565b50505050905001848103835286818151815260200191508051906020019060200280838360005b838110156114095781810151838201526020016113f1565b50505050905001848103825285818151815260200191508051906020019080838360005b8381101561144557818101518382015260200161142d565b50505050905090810190601f1680156114725780820380516001836020036101000a031916815260200191505b5098505050505050505050602060405180830381600087803b15801561149757600080fd5b505af19250505080156114bc57506040513d60208110156114b757600080fd5b505160015b611551576114c8611799565b806114d3575061151a565b60405162461bcd60e51b815260206004820181815283516024840152835184939192839260440191908501908083836000831561128d578181015183820152602001611275565b60405162461bcd60e51b815260040180806020018281038252603481526020018061183f6034913960400191505060405180910390fd5b6001600160e01b0319811663bc197c8160e01b146115a05760405162461bcd60e51b81526004018080602001828103825260288152602001806118736028913960400191505060405180910390fd5b50505050505050565b6001600160a01b03918216600090815260036020908152604080832093909416825291909152205460ff1690565b6040805160018082528183019092526060916000919060208083019080368337019050509050828160008151811061160b57fe5b602090810291909101015292915050565b61162e846001600160a01b031661178d565b15610b5a57836001600160a01b031663f23a6e6187878686866040518663ffffffff1660e01b815260040180866001600160a01b03168152602001856001600160a01b0316815260200184815260200183815260200180602001828103825283818151815260200191508051906020019080838360005b838110156116bd5781810151838201526020016116a5565b50505050905090810190601f1680156116ea5780820380516001836020036101000a031916815260200191505b509650505050505050602060405180830381600087803b15801561170d57600080fd5b505af192505050801561173257506040513d602081101561172d57600080fd5b505160015b61173e576114c8611799565b6001600160e01b0319811663f23a6e6160e01b146115a05760405162461bcd60e51b81526004018080602001828103825260288152602001806118736028913960400191505060405180910390fd5b3b151590565b60e01c90565b600060443d10156117a957610d19565b600481823e6308c379a06117bd8251611793565b146117c757610d19565b6040513d600319016004823e80513d67ffffffffffffffff81602484011181841117156117f75750505050610d19565b828401925082519150808211156118115750505050610d19565b503d8301602082840101111561182957505050610d19565b601f01601f191681016020016040529150509056fe455243313135353a207472616e7366657220746f206e6f6e2045524331313535526563656976657220696d706c656d656e746572455243313135353a204552433131353552656365697665722072656a656374656420746f6b656e73455243313135353a2062616c616e636520717565727920666f7220746865207a65726f20616464726573734f776e61626c653a206e6577206f776e657220697320746865207a65726f2061646472657373455243313135353a2063616c6c6572206973206e6f74206f776e6572206e6f7220617070726f766564455243313135353a207472616e7366657220746f20746865207a65726f2061646472657373455243313135353a207472616e736665722063616c6c6572206973206e6f74206f776e6572206e6f7220617070726f766564455243313135353a20696e73756666696369656e742062616c616e636520666f72207472616e73666572455243313135353a2073657474696e6720617070726f76616c2073746174757320666f722073656c66455243313135353a206163636f756e747320616e6420696473206c656e677468206d69736d61746368455243313135353a2069647320616e6420616d6f756e7473206c656e677468206d69736d61746368455243313135353a206d696e7420746f20746865207a65726f2061646472657373a2646970667358221220ad773b0fa337832aa522c50c041865adc58bc3729273960b6bea59c7b173784264736f6c634300070600334f776e61626c653a206e6577206f776e657220697320746865207a65726f2061646472657373496e697469616c697a61626c653a20636f6e747261637420697320616c726561647920696e697469616c697a65644f776e61626c653a2063616c6c6572206973206e6f7420746865206f776e6572a2646970667358221220676c652f3e9b5d00da921cfda6e67e0f397c628bd52804105a275fefd9c368f764736f6c63430007060033",
  "immutableReferences": {},
  "source": "// SPDX-License-Identifier: MIT\n\npragma solidity ^0.7.6;\npragma abicoder v2;\n\nimport \"@openzeppelin/contracts-upgradeable/access/OwnableUpgradeable.sol\";\nimport \"@openzeppelin/contracts/math/SafeMath.sol\";\n\nimport \"./AQVSTokens.sol\";\nimport \"./AQVSSpace.sol\";\n\ncontract AQVS is OwnableUpgradeable {\n  using SafeMath for uint256;\n\n  event DidMintSpace(uint256 spaceId, address spaceAddress);\n  event DidAccessSpace(uint256 spaceId, address spaceAddress);\n  event DidGiftSpaceAccess(uint256 spaceId, address spaceAddress);\n\n  AQVSTokens public tokens;\n  uint256 public spaceCount;\n  uint256 public weiCostPerStorageByte;\n  mapping (uint256 => address) public spacesById;\n  mapping (address => uint256[]) public spaceIdsByCreator;\n  mapping (address => uint256[]) public spaceIdsByAccessor;\n\n  function init(\n    string memory uri\n  ) public initializer {\n    OwnableUpgradeable.__Ownable_init();\n    tokens = new AQVSTokens(uri);\n    spaceCount = 0;\n    // At an ETH price for ~$3200, a space of ~5mb will be\n    // around $34 USD. Given we're paying for data transfer\n    // and CDN costs for perpetuity, that feels about right.\n    weiCostPerStorageByte = 2100000000;\n  }\n\n  function release() public onlyOwner {\n    (bool success, ) = payable(owner()).call{ value: address(this).balance }(\"\");\n    require(success, \"failed_to_release\");\n  }\n\n  function releaseTo(address to) public onlyOwner {\n    (bool success, ) = payable(to).call{ value: address(this).balance }(\"\");\n    require(success, \"failed_to_release\");\n  }\n\n  function setWeiCostPerStorageByte(\n    uint256 _weiCostPerStorageByte\n  ) public onlyOwner {\n    weiCostPerStorageByte = _weiCostPerStorageByte;\n  }\n\n  function mintSpace(\n    uint256 supply,\n    uint256 spaceCapacityInBytes,\n    uint256 accessPriceInWei,\n    bool purchasable\n  ) public payable returns (uint256) {\n    require(\n       msg.value >= weiCostToMintSpace(spaceCapacityInBytes),\n      \"bad_payment\"\n    );\n    require(\n      accessPriceInWei >= estimateSpaceFees(supply, spaceCapacityInBytes, accessPriceInWei),\n      \"price_too_low\"\n    );\n\n    address creator = _msgSender();\n    spaceCount++;\n\n    try new AQVSSpace(supply, spaceCapacityInBytes, accessPriceInWei, purchasable, creator)\n      returns (AQVSSpace aqvsSpace)\n    {\n      tokens.mint(creator, spaceCount, supply);\n      spacesById[spaceCount] = address(aqvsSpace);\n      spaceIdsByCreator[creator].push(spaceCount);\n      emit DidMintSpace(spaceCount, address(aqvsSpace));\n    } catch {\n      revert(\"make_space_failed\");\n    }\n\n    return spaceCount;\n  }\n\n  function accessSpace(\n    uint256 spaceId\n  ) public payable returns (bool) {\n    AQVSSpace space = AQVSSpace(spacesById[spaceId]);\n    require(space.creator() != address(0), \"space_must_exist\");\n    require(msg.value >= space.accessPriceInWei(), \"bad_payment\");\n    require(true == space.purchasable(), \"not_purchasable\");\n\n    address buyer = _msgSender();\n    require(tokens.balanceOf(buyer, spaceId) == 0, \"already_owns_space\");\n\n    tokens.safeTransferFrom(space.creator(), buyer, spaceId, 1, \"\");\n    uint256 fee = spaceFees(spaceId);\n    uint256 remainder = SafeMath.sub(msg.value, fee);\n    bool success = space.buy{ value: remainder }();\n    require(success, \"failed_to_pay_creator\");\n    spaceIdsByAccessor[buyer].push(spaceId);\n    emit DidAccessSpace(spaceId, address(space));\n    return true;\n  }\n\n  function addSpaceCapacityInBytes(\n    uint256 spaceId,\n    uint256 additionalSpaceCapacityInBytes\n  ) public payable returns (bool) {\n    AQVSSpace space = AQVSSpace(spacesById[spaceId]);\n    require(space.creator() != address(0), \"space_must_exist\");\n    require(space.creator() == _msgSender(), \"only_creator\");\n    require(\n      weiCostToMintSpace(additionalSpaceCapacityInBytes) >= msg.value,\n      \"bad_payment\"\n    );\n    space._addSpaceCapacityInBytes(additionalSpaceCapacityInBytes);\n    return true;\n  }\n\n  function giftSpaceAccess(\n    uint256 spaceId,\n    address giftee\n  ) public returns (bool) {\n    AQVSSpace space = AQVSSpace(spacesById[spaceId]);\n    require(space.creator() != address(0), \"space_must_exist\");\n    require(space.creator() == _msgSender(), \"only_creator\");\n    require(tokens.balanceOf(giftee, spaceId) == 0, \"already_owns_space\");\n    tokens.safeTransferFrom(space.creator(), giftee, spaceId, 1, \"\");\n    spaceIdsByAccessor[giftee].push(spaceId);\n    emit DidGiftSpaceAccess(spaceId, address(space));\n    return true;\n  }\n\n  /* Views */\n  function estimateSpaceFees(\n    uint256 supply,\n    uint256 spaceCapacityInBytes,\n    uint256 accessPriceInWei\n  ) public view returns (uint256) {\n    require(supply > 0, \"supply_too_low\");\n    require(supply < 1000000, \"supply_too_high\");\n    require(spaceCapacityInBytes > 255999, \"space_too_small\");\n    require(spaceCapacityInBytes < 100000000001, \"space_too_big\");\n    return (\n      spaceCapacityInBytes * weiCostPerStorageByte\n    ) + SafeMath.div(accessPriceInWei, 100);\n  }\n\n  function remainingSupply(\n    uint256 spaceId\n  ) public view returns (uint256) {\n    AQVSSpace space = AQVSSpace(spacesById[spaceId]);\n    require(space.creator() != address(0), \"space_must_exist\");\n    return tokens.balanceOf(space.creator(), spaceId);\n  }\n\n  function spaceFees(\n    uint256 spaceId\n  ) public view returns (uint256) {\n    AQVSSpace space = AQVSSpace(spacesById[spaceId]);\n    require(space.creator() != address(0), \"space_must_exist\");\n    return estimateSpaceFees(\n      space.supply(),\n      space.spaceCapacityInBytes(),\n      space.accessPriceInWei()\n    );\n  }\n\n  function weiCostToMintSpace(\n    uint256 spaceCapacityInBytes\n  ) public view returns (uint256) {\n    return spaceCapacityInBytes * weiCostPerStorageByte;\n  }\n\n  function spaceIdsCreatedBy(\n    address creator\n  ) public view returns (uint256[] memory) {\n    return spaceIdsByCreator[creator];\n  }\n\n  function spaceIdsOwnedBy(\n    address buyer\n  ) public view returns (uint256[] memory) {\n    return spaceIdsByAccessor[buyer];\n  }\n}\n",
  "sourcePath": "/Users/hhff/dev/aqueous-varnish/contracts/contracts/AQVS.sol",
  "compiler": {
    "name": "solc",
    "version": "0.7.6+commit.7338295f.Emscripten.clang"
  },
  "schemaVersion": "3.3.3",
  "updatedAt": "2021-08-15T21:55:04.156Z",
  "devdoc": {
    "kind": "dev",
    "methods": {
      "owner()": {
        "details": "Returns the address of the current owner."
      },
      "renounceOwnership()": {
        "details": "Leaves the contract without owner. It will not be possible to call `onlyOwner` functions anymore. Can only be called by the current owner. NOTE: Renouncing ownership will leave the contract without an owner, thereby removing any functionality that is only available to the owner."
      },
      "transferOwnership(address)": {
        "details": "Transfers ownership of the contract to a new account (`newOwner`). Can only be called by the current owner."
      }
    },
    "version": 1
  },
  "userdoc": {
    "kind": "user",
    "methods": {},
    "version": 1
  }
}