{
  "contractName": "AQVSTokens",
  "abi": [
    {
      "inputs": [
        {
          "internalType": "string",
          "name": "uri",
          "type": "string"
        }
      ],
      "stateMutability": "nonpayable",
      "type": "constructor"
    },
    {
      "anonymous": false,
      "inputs": [
        {
          "indexed": true,
          "internalType": "address",
          "name": "account",
          "type": "address"
        },
        {
          "indexed": true,
          "internalType": "address",
          "name": "operator",
          "type": "address"
        },
        {
          "indexed": false,
          "internalType": "bool",
          "name": "approved",
          "type": "bool"
        }
      ],
      "name": "ApprovalForAll",
      "type": "event"
    },
    {
      "anonymous": false,
      "inputs": [
        {
          "indexed": true,
          "internalType": "address",
          "name": "previousOwner",
          "type": "address"
        },
        {
          "indexed": true,
          "internalType": "address",
          "name": "newOwner",
          "type": "address"
        }
      ],
      "name": "OwnershipTransferred",
      "type": "event"
    },
    {
      "anonymous": false,
      "inputs": [
        {
          "indexed": true,
          "internalType": "address",
          "name": "operator",
          "type": "address"
        },
        {
          "indexed": true,
          "internalType": "address",
          "name": "from",
          "type": "address"
        },
        {
          "indexed": true,
          "internalType": "address",
          "name": "to",
          "type": "address"
        },
        {
          "indexed": false,
          "internalType": "uint256[]",
          "name": "ids",
          "type": "uint256[]"
        },
        {
          "indexed": false,
          "internalType": "uint256[]",
          "name": "values",
          "type": "uint256[]"
        }
      ],
      "name": "TransferBatch",
      "type": "event"
    },
    {
      "anonymous": false,
      "inputs": [
        {
          "indexed": true,
          "internalType": "address",
          "name": "operator",
          "type": "address"
        },
        {
          "indexed": true,
          "internalType": "address",
          "name": "from",
          "type": "address"
        },
        {
          "indexed": true,
          "internalType": "address",
          "name": "to",
          "type": "address"
        },
        {
          "indexed": false,
          "internalType": "uint256",
          "name": "id",
          "type": "uint256"
        },
        {
          "indexed": false,
          "internalType": "uint256",
          "name": "value",
          "type": "uint256"
        }
      ],
      "name": "TransferSingle",
      "type": "event"
    },
    {
      "anonymous": false,
      "inputs": [
        {
          "indexed": false,
          "internalType": "string",
          "name": "value",
          "type": "string"
        },
        {
          "indexed": true,
          "internalType": "uint256",
          "name": "id",
          "type": "uint256"
        }
      ],
      "name": "URI",
      "type": "event"
    },
    {
      "inputs": [
        {
          "internalType": "address",
          "name": "account",
          "type": "address"
        },
        {
          "internalType": "uint256",
          "name": "id",
          "type": "uint256"
        }
      ],
      "name": "balanceOf",
      "outputs": [
        {
          "internalType": "uint256",
          "name": "",
          "type": "uint256"
        }
      ],
      "stateMutability": "view",
      "type": "function"
    },
    {
      "inputs": [
        {
          "internalType": "address[]",
          "name": "accounts",
          "type": "address[]"
        },
        {
          "internalType": "uint256[]",
          "name": "ids",
          "type": "uint256[]"
        }
      ],
      "name": "balanceOfBatch",
      "outputs": [
        {
          "internalType": "uint256[]",
          "name": "",
          "type": "uint256[]"
        }
      ],
      "stateMutability": "view",
      "type": "function"
    },
    {
      "inputs": [],
      "name": "owner",
      "outputs": [
        {
          "internalType": "address",
          "name": "",
          "type": "address"
        }
      ],
      "stateMutability": "view",
      "type": "function"
    },
    {
      "inputs": [],
      "name": "renounceOwnership",
      "outputs": [],
      "stateMutability": "nonpayable",
      "type": "function"
    },
    {
      "inputs": [
        {
          "internalType": "address",
          "name": "from",
          "type": "address"
        },
        {
          "internalType": "address",
          "name": "to",
          "type": "address"
        },
        {
          "internalType": "uint256[]",
          "name": "ids",
          "type": "uint256[]"
        },
        {
          "internalType": "uint256[]",
          "name": "amounts",
          "type": "uint256[]"
        },
        {
          "internalType": "bytes",
          "name": "data",
          "type": "bytes"
        }
      ],
      "name": "safeBatchTransferFrom",
      "outputs": [],
      "stateMutability": "nonpayable",
      "type": "function"
    },
    {
      "inputs": [
        {
          "internalType": "address",
          "name": "from",
          "type": "address"
        },
        {
          "internalType": "address",
          "name": "to",
          "type": "address"
        },
        {
          "internalType": "uint256",
          "name": "id",
          "type": "uint256"
        },
        {
          "internalType": "uint256",
          "name": "amount",
          "type": "uint256"
        },
        {
          "internalType": "bytes",
          "name": "data",
          "type": "bytes"
        }
      ],
      "name": "safeTransferFrom",
      "outputs": [],
      "stateMutability": "nonpayable",
      "type": "function"
    },
    {
      "inputs": [
        {
          "internalType": "address",
          "name": "operator",
          "type": "address"
        },
        {
          "internalType": "bool",
          "name": "approved",
          "type": "bool"
        }
      ],
      "name": "setApprovalForAll",
      "outputs": [],
      "stateMutability": "nonpayable",
      "type": "function"
    },
    {
      "inputs": [
        {
          "internalType": "bytes4",
          "name": "interfaceId",
          "type": "bytes4"
        }
      ],
      "name": "supportsInterface",
      "outputs": [
        {
          "internalType": "bool",
          "name": "",
          "type": "bool"
        }
      ],
      "stateMutability": "view",
      "type": "function"
    },
    {
      "inputs": [
        {
          "internalType": "address",
          "name": "newOwner",
          "type": "address"
        }
      ],
      "name": "transferOwnership",
      "outputs": [],
      "stateMutability": "nonpayable",
      "type": "function"
    },
    {
      "inputs": [
        {
          "internalType": "uint256",
          "name": "",
          "type": "uint256"
        }
      ],
      "name": "uri",
      "outputs": [
        {
          "internalType": "string",
          "name": "",
          "type": "string"
        }
      ],
      "stateMutability": "view",
      "type": "function"
    },
    {
      "inputs": [
        {
          "internalType": "address",
          "name": "creator",
          "type": "address"
        },
        {
          "internalType": "uint256",
          "name": "id",
          "type": "uint256"
        },
        {
          "internalType": "uint256",
          "name": "supply",
          "type": "uint256"
        }
      ],
      "name": "mint",
      "outputs": [],
      "stateMutability": "nonpayable",
      "type": "function"
    },
    {
      "inputs": [
        {
          "internalType": "address",
          "name": "_tokenOwner",
          "type": "address"
        },
        {
          "internalType": "address",
          "name": "_operator",
          "type": "address"
        }
      ],
      "name": "isApprovedForAll",
      "outputs": [
        {
          "internalType": "bool",
          "name": "",
          "type": "bool"
        }
      ],
      "stateMutability": "view",
      "type": "function"
    }
  ],
  "bytecode": "0x60806040523480156200001157600080fd5b5060405162001d5a38038062001d5a833981810160405260208110156200003757600080fd5b81019080805160405193929190846401000000008211156200005857600080fd5b9083019060208201858111156200006e57600080fd5b82516401000000008111828201881017156200008957600080fd5b82525081516020918201929091019080838360005b83811015620000b85781810151838201526020016200009e565b50505050905090810190601f168015620000e65780820380516001836020036101000a031916815260200191505b50604052505050806000620001006200019360201b60201c565b600080546001600160a01b0319166001600160a01b0383169081178255604051929350917f8be0079c531659141344cd1fd0a4f28419497f9722a3daafe3b4186f6b6457e0908290a3506200015c6301ffc9a760e01b62000197565b62000167816200021f565b62000179636cdb3d1360e11b62000197565b6200018b6303a24d0760e21b62000197565b5050620002e4565b3390565b6001600160e01b03198082161415620001f7576040805162461bcd60e51b815260206004820152601c60248201527f4552433136353a20696e76616c696420696e7465726661636520696400000000604482015290519081900360640190fd5b6001600160e01b0319166000908152600160208190526040909120805460ff19169091179055565b80516200023490600490602084019062000238565b5050565b828054600181600116156101000203166002900490600052602060002090601f016020900481019282620002705760008555620002bb565b82601f106200028b57805160ff1916838001178555620002bb565b82800160010185558215620002bb579182015b82811115620002bb5782518255916020019190600101906200029e565b50620002c9929150620002cd565b5090565b5b80821115620002c95760008155600101620002ce565b611a6680620002f46000396000f3fe608060405234801561001057600080fd5b50600436106100b35760003560e01c8063715018a611610071578063715018a61461052b5780638da5cb5b14610533578063a22cb46514610557578063e985e9c514610585578063f242432a146105b3578063f2fde38b1461067c576100b3565b8062fdd58e146100b857806301ffc9a7146100f65780630e89341c14610131578063156e29f6146101c35780632eb2c2d6146101f75780634e1273f4146103b8575b600080fd5b6100e4600480360360408110156100ce57600080fd5b506001600160a01b0381351690602001356106a2565b60408051918252519081900360200190f35b61011d6004803603602081101561010c57600080fd5b50356001600160e01b031916610714565b604080519115158252519081900360200190f35b61014e6004803603602081101561014757600080fd5b5035610733565b6040805160208082528351818301528351919283929083019185019080838360005b83811015610188578181015183820152602001610170565b50505050905090810190601f1680156101b55780820380516001836020036101000a031916815260200191505b509250505060405180910390f35b6101f5600480360360608110156101d957600080fd5b506001600160a01b0381351690602081013590604001356107cb565b005b6101f5600480360360a081101561020d57600080fd5b6001600160a01b038235811692602081013590911691810190606081016040820135600160201b81111561024057600080fd5b82018360208201111561025257600080fd5b803590602001918460208302840111600160201b8311171561027357600080fd5b9190808060200260200160405190810160405280939291908181526020018383602002808284376000920191909152509295949360208101935035915050600160201b8111156102c257600080fd5b8201836020820111156102d457600080fd5b803590602001918460208302840111600160201b831117156102f557600080fd5b9190808060200260200160405190810160405280939291908181526020018383602002808284376000920191909152509295949360208101935035915050600160201b81111561034457600080fd5b82018360208201111561035657600080fd5b803590602001918460018302840111600160201b8311171561037757600080fd5b91908080601f01602080910402602001604051908101604052809392919081815260200183838082843760009201919091525092955061085f945050505050565b6104db600480360360408110156103ce57600080fd5b810190602081018135600160201b8111156103e857600080fd5b8201836020820111156103fa57600080fd5b803590602001918460208302840111600160201b8311171561041b57600080fd5b9190808060200260200160405190810160405280939291908181526020018383602002808284376000920191909152509295949360208101935035915050600160201b81111561046a57600080fd5b82018360208201111561047c57600080fd5b803590602001918460208302840111600160201b8311171561049d57600080fd5b919080806020026020016040519081016040528093929190818152602001838360200280828437600092019190915250929550610b62945050505050565b60408051602080825283518183015283519192839290830191858101910280838360005b838110156105175781810151838201526020016104ff565b505050509050019250505060405180910390f35b6101f5610c4e565b61053b610d0c565b604080516001600160a01b039092168252519081900360200190f35b6101f56004803603604081101561056d57600080fd5b506001600160a01b0381351690602001351515610d1c565b61011d6004803603604081101561059b57600080fd5b506001600160a01b0381358116916020013516610e0b565b6101f5600480360360a08110156105c957600080fd5b6001600160a01b03823581169260208101359091169160408201359160608101359181019060a081016080820135600160201b81111561060857600080fd5b82018360208201111561061a57600080fd5b803590602001918460018302840111600160201b8311171561063b57600080fd5b91908080601f016020809104026020016040519081016040528093929190818152602001838380828437600092019190915250929550610e4e945050505050565b6101f56004803603602081101561069257600080fd5b50356001600160a01b0316611019565b60006001600160a01b0383166106e95760405162461bcd60e51b815260040180806020018281038252602b81526020018061189b602b913960400191505060405180910390fd5b5060008181526002602090815260408083206001600160a01b03861684529091529020545b92915050565b6001600160e01b03191660009081526001602052604090205460ff1690565b60048054604080516020601f60026000196101006001881615020190951694909404938401819004810282018101909252828152606093909290918301828280156107bf5780601f10610794576101008083540402835291602001916107bf565b820191906000526020600020905b8154815290600101906020018083116107a257829003601f168201915b50505050509050919050565b6107d361112d565b6001600160a01b03166107e4610d0c565b6001600160a01b03161461083f576040805162461bcd60e51b815260206004820181905260248201527f4f776e61626c653a2063616c6c6572206973206e6f7420746865206f776e6572604482015290519081900360640190fd5b61085a83838360405180602001604052806000815250611131565b505050565b815183511461089f5760405162461bcd60e51b81526004018080602001828103825260288152602001806119e86028913960400191505060405180910390fd5b6001600160a01b0384166108e45760405162461bcd60e51b81526004018080602001828103825260258152602001806119156025913960400191505060405180910390fd5b6108ec61112d565b6001600160a01b0316856001600160a01b0316148061091757506109178561091261112d565b610e0b565b6109525760405162461bcd60e51b815260040180806020018281038252603281526020018061193a6032913960400191505060405180910390fd5b600061095c61112d565b905061096c818787878787610b5a565b60005b8451811015610a7257600085828151811061098657fe5b60200260200101519050600085838151811061099e57fe5b60200260200101519050610a0b816040518060600160405280602a815260200161196c602a91396002600086815260200190815260200160002060008d6001600160a01b03166001600160a01b03168152602001908152602001600020546112399092919063ffffffff16565b60008381526002602090815260408083206001600160a01b038e811685529252808320939093558a1681522054610a4290826112d0565b60009283526002602090815260408085206001600160a01b038c168652909152909220919091555060010161096f565b50846001600160a01b0316866001600160a01b0316826001600160a01b03167f4a39dc06d4c0dbc64b70af90fd698a233a518aa5d07e595d983b8c0526c8f7fb8787604051808060200180602001838103835285818151815260200191508051906020019060200280838360005b83811015610af8578181015183820152602001610ae0565b50505050905001838103825284818151815260200191508051906020019060200280838360005b83811015610b37578181015183820152602001610b1f565b5050505090500194505050505060405180910390a4610b5a81878787878761132a565b505050505050565b60608151835114610ba45760405162461bcd60e51b81526004018080602001828103825260298152602001806119bf6029913960400191505060405180910390fd5b6000835167ffffffffffffffff81118015610bbe57600080fd5b50604051908082528060200260200182016040528015610be8578160200160208202803683370190505b50905060005b8451811015610c4657610c27858281518110610c0657fe5b6020026020010151858381518110610c1a57fe5b60200260200101516106a2565b828281518110610c3357fe5b6020908102919091010152600101610bee565b509392505050565b610c5661112d565b6001600160a01b0316610c67610d0c565b6001600160a01b031614610cc2576040805162461bcd60e51b815260206004820181905260248201527f4f776e61626c653a2063616c6c6572206973206e6f7420746865206f776e6572604482015290519081900360640190fd5b600080546040516001600160a01b03909116907f8be0079c531659141344cd1fd0a4f28419497f9722a3daafe3b4186f6b6457e0908390a3600080546001600160a01b0319169055565b6000546001600160a01b03165b90565b816001600160a01b0316610d2e61112d565b6001600160a01b03161415610d745760405162461bcd60e51b81526004018080602001828103825260298152602001806119966029913960400191505060405180910390fd5b8060036000610d8161112d565b6001600160a01b03908116825260208083019390935260409182016000908120918716808252919093529120805460ff191692151592909217909155610dc561112d565b6001600160a01b03167f17307eab39ab6107e8899845ad3d59bd9653f200f220920489ca2b5937696c318360405180821515815260200191505060405180910390a35050565b6000610e15610d0c565b6001600160a01b0316610e2661112d565b6001600160a01b03161415610e3d5750600161070e565b610e4783836115a9565b9392505050565b6001600160a01b038416610e935760405162461bcd60e51b81526004018080602001828103825260258152602001806119156025913960400191505060405180910390fd5b610e9b61112d565b6001600160a01b0316856001600160a01b03161480610ec15750610ec18561091261112d565b610efc5760405162461bcd60e51b81526004018080602001828103825260298152602001806118ec6029913960400191505060405180910390fd5b6000610f0661112d565b9050610f26818787610f17886115d7565b610f20886115d7565b87610b5a565b610f6d836040518060600160405280602a815260200161196c602a913960008781526002602090815260408083206001600160a01b038d1684529091529020549190611239565b60008581526002602090815260408083206001600160a01b038b81168552925280832093909355871681522054610fa490846112d0565b60008581526002602090815260408083206001600160a01b03808b168086529184529382902094909455805188815291820187905280518a8416938616927fc3d58168c5ae7397731d063d5bbf3d657854427343f4c083240f7aacaa2d0f6292908290030190a4610b5a81878787878761161c565b61102161112d565b6001600160a01b0316611032610d0c565b6001600160a01b03161461108d576040805162461bcd60e51b815260206004820181905260248201527f4f776e61626c653a2063616c6c6572206973206e6f7420746865206f776e6572604482015290519081900360640190fd5b6001600160a01b0381166110d25760405162461bcd60e51b81526004018080602001828103825260268152602001806118c66026913960400191505060405180910390fd5b600080546040516001600160a01b03808516939216917f8be0079c531659141344cd1fd0a4f28419497f9722a3daafe3b4186f6b6457e091a3600080546001600160a01b0319166001600160a01b0392909216919091179055565b3390565b6001600160a01b0384166111765760405162461bcd60e51b8152600401808060200182810382526021815260200180611a106021913960400191505060405180910390fd5b600061118061112d565b905061119281600087610f17886115d7565b60008481526002602090815260408083206001600160a01b03891684529091529020546111bf90846112d0565b60008581526002602090815260408083206001600160a01b03808b16808652918452828520959095558151898152928301889052815190948616927fc3d58168c5ae7397731d063d5bbf3d657854427343f4c083240f7aacaa2d0f6292908290030190a46112328160008787878761161c565b5050505050565b600081848411156112c85760405162461bcd60e51b81526004018080602001828103825283818151815260200191508051906020019080838360005b8381101561128d578181015183820152602001611275565b50505050905090810190601f1680156112ba5780820380516001836020036101000a031916815260200191505b509250505060405180910390fd5b505050900390565b600082820183811015610e47576040805162461bcd60e51b815260206004820152601b60248201527f536166654d6174683a206164646974696f6e206f766572666c6f770000000000604482015290519081900360640190fd5b61133c846001600160a01b031661178d565b15610b5a57836001600160a01b031663bc197c8187878686866040518663ffffffff1660e01b815260040180866001600160a01b03168152602001856001600160a01b03168152602001806020018060200180602001848103845287818151815260200191508051906020019060200280838360005b838110156113ca5781810151838201526020016113b2565b50505050905001848103835286818151815260200191508051906020019060200280838360005b838110156114095781810151838201526020016113f1565b50505050905001848103825285818151815260200191508051906020019080838360005b8381101561144557818101518382015260200161142d565b50505050905090810190601f1680156114725780820380516001836020036101000a031916815260200191505b5098505050505050505050602060405180830381600087803b15801561149757600080fd5b505af19250505080156114bc57506040513d60208110156114b757600080fd5b505160015b611551576114c8611799565b806114d3575061151a565b60405162461bcd60e51b815260206004820181815283516024840152835184939192839260440191908501908083836000831561128d578181015183820152602001611275565b60405162461bcd60e51b815260040180806020018281038252603481526020018061183f6034913960400191505060405180910390fd5b6001600160e01b0319811663bc197c8160e01b146115a05760405162461bcd60e51b81526004018080602001828103825260288152602001806118736028913960400191505060405180910390fd5b50505050505050565b6001600160a01b03918216600090815260036020908152604080832093909416825291909152205460ff1690565b6040805160018082528183019092526060916000919060208083019080368337019050509050828160008151811061160b57fe5b602090810291909101015292915050565b61162e846001600160a01b031661178d565b15610b5a57836001600160a01b031663f23a6e6187878686866040518663ffffffff1660e01b815260040180866001600160a01b03168152602001856001600160a01b0316815260200184815260200183815260200180602001828103825283818151815260200191508051906020019080838360005b838110156116bd5781810151838201526020016116a5565b50505050905090810190601f1680156116ea5780820380516001836020036101000a031916815260200191505b509650505050505050602060405180830381600087803b15801561170d57600080fd5b505af192505050801561173257506040513d602081101561172d57600080fd5b505160015b61173e576114c8611799565b6001600160e01b0319811663f23a6e6160e01b146115a05760405162461bcd60e51b81526004018080602001828103825260288152602001806118736028913960400191505060405180910390fd5b3b151590565b60e01c90565b600060443d10156117a957610d19565b600481823e6308c379a06117bd8251611793565b146117c757610d19565b6040513d600319016004823e80513d67ffffffffffffffff81602484011181841117156117f75750505050610d19565b828401925082519150808211156118115750505050610d19565b503d8301602082840101111561182957505050610d19565b601f01601f191681016020016040529150509056fe455243313135353a207472616e7366657220746f206e6f6e2045524331313535526563656976657220696d706c656d656e746572455243313135353a204552433131353552656365697665722072656a656374656420746f6b656e73455243313135353a2062616c616e636520717565727920666f7220746865207a65726f20616464726573734f776e61626c653a206e6577206f776e657220697320746865207a65726f2061646472657373455243313135353a2063616c6c6572206973206e6f74206f776e6572206e6f7220617070726f766564455243313135353a207472616e7366657220746f20746865207a65726f2061646472657373455243313135353a207472616e736665722063616c6c6572206973206e6f74206f776e6572206e6f7220617070726f766564455243313135353a20696e73756666696369656e742062616c616e636520666f72207472616e73666572455243313135353a2073657474696e6720617070726f76616c2073746174757320666f722073656c66455243313135353a206163636f756e747320616e6420696473206c656e677468206d69736d61746368455243313135353a2069647320616e6420616d6f756e7473206c656e677468206d69736d61746368455243313135353a206d696e7420746f20746865207a65726f2061646472657373a2646970667358221220ad773b0fa337832aa522c50c041865adc58bc3729273960b6bea59c7b173784264736f6c63430007060033",
  "immutableReferences": {},
  "source": "// SPDX-License-Identifier: MIT\n\npragma solidity ^0.7.6;\n\nimport \"@openzeppelin/contracts/access/Ownable.sol\";\nimport \"@openzeppelin/contracts/token/ERC1155/ERC1155.sol\";\nimport \"@openzeppelin/contracts/math/Math.sol\";\n\ncontract AQVSTokens is Ownable, ERC1155 {\n  using SafeMath for uint256;\n\n  constructor(string memory uri) ERC1155(uri) {}\n\n  function mint(address creator, uint256 id, uint256 supply) public onlyOwner {\n    _mint(creator, id, supply, \"\");\n  }\n\n  function isApprovedForAll(\n    address _tokenOwner,\n    address _operator\n  ) public override view returns (bool) {\n    if (_msgSender() == owner()) {\n      return true;\n    }\n    return ERC1155.isApprovedForAll(_tokenOwner, _operator);\n  }\n}\n",
  "sourcePath": "/Users/hhff/dev/aqueous-varnish/contracts/contracts/AQVSTokens.sol",
  "compiler": {
    "name": "solc",
    "version": "0.7.6+commit.7338295f.Emscripten.clang"
  },
  "schemaVersion": "3.3.3",
  "updatedAt": "2021-08-15T21:55:04.166Z",
  "devdoc": {
    "kind": "dev",
    "methods": {
      "balanceOf(address,uint256)": {
        "details": "See {IERC1155-balanceOf}. Requirements: - `account` cannot be the zero address."
      },
      "balanceOfBatch(address[],uint256[])": {
        "details": "See {IERC1155-balanceOfBatch}. Requirements: - `accounts` and `ids` must have the same length."
      },
      "owner()": {
        "details": "Returns the address of the current owner."
      },
      "renounceOwnership()": {
        "details": "Leaves the contract without owner. It will not be possible to call `onlyOwner` functions anymore. Can only be called by the current owner. NOTE: Renouncing ownership will leave the contract without an owner, thereby removing any functionality that is only available to the owner."
      },
      "safeBatchTransferFrom(address,address,uint256[],uint256[],bytes)": {
        "details": "See {IERC1155-safeBatchTransferFrom}."
      },
      "safeTransferFrom(address,address,uint256,uint256,bytes)": {
        "details": "See {IERC1155-safeTransferFrom}."
      },
      "setApprovalForAll(address,bool)": {
        "details": "See {IERC1155-setApprovalForAll}."
      },
      "supportsInterface(bytes4)": {
        "details": "See {IERC165-supportsInterface}. Time complexity O(1), guaranteed to always use less than 30 000 gas."
      },
      "transferOwnership(address)": {
        "details": "Transfers ownership of the contract to a new account (`newOwner`). Can only be called by the current owner."
      },
      "uri(uint256)": {
        "details": "See {IERC1155MetadataURI-uri}. This implementation returns the same URI for *all* token types. It relies on the token type ID substitution mechanism https://eips.ethereum.org/EIPS/eip-1155#metadata[defined in the EIP]. Clients calling this function must replace the `\\{id\\}` substring with the actual token type ID."
      }
    },
    "version": 1
  },
  "userdoc": {
    "kind": "user",
    "methods": {},
    "version": 1
  }
}