{
  "contractName": "AQVSSpace",
  "abi": [
    {
      "inputs": [
        {
          "internalType": "string",
          "name": "_name",
          "type": "string"
        },
        {
          "internalType": "string",
          "name": "_symbol",
          "type": "string"
        },
        {
          "internalType": "uint256",
          "name": "_id",
          "type": "uint256"
        },
        {
          "internalType": "uint256",
          "name": "_supply",
          "type": "uint256"
        },
        {
          "internalType": "uint256",
          "name": "_spaceCapacityInBytes",
          "type": "uint256"
        },
        {
          "internalType": "uint256",
          "name": "_accessPriceInWei",
          "type": "uint256"
        },
        {
          "internalType": "bool",
          "name": "_purchasable",
          "type": "bool"
        },
        {
          "internalType": "address",
          "name": "_creator",
          "type": "address"
        },
        {
          "internalType": "string",
          "name": "_baseURI",
          "type": "string"
        }
      ],
      "stateMutability": "nonpayable",
      "type": "constructor"
    },
    {
      "anonymous": false,
      "inputs": [
        {
          "indexed": true,
          "internalType": "address",
          "name": "owner",
          "type": "address"
        },
        {
          "indexed": true,
          "internalType": "address",
          "name": "approved",
          "type": "address"
        },
        {
          "indexed": true,
          "internalType": "uint256",
          "name": "tokenId",
          "type": "uint256"
        }
      ],
      "name": "Approval",
      "type": "event"
    },
    {
      "anonymous": false,
      "inputs": [
        {
          "indexed": true,
          "internalType": "address",
          "name": "owner",
          "type": "address"
        },
        {
          "indexed": true,
          "internalType": "address",
          "name": "operator",
          "type": "address"
        },
        {
          "indexed": false,
          "internalType": "bool",
          "name": "approved",
          "type": "bool"
        }
      ],
      "name": "ApprovalForAll",
      "type": "event"
    },
    {
      "anonymous": false,
      "inputs": [
        {
          "indexed": true,
          "internalType": "address",
          "name": "previousOwner",
          "type": "address"
        },
        {
          "indexed": true,
          "internalType": "address",
          "name": "newOwner",
          "type": "address"
        }
      ],
      "name": "OwnershipTransferred",
      "type": "event"
    },
    {
      "anonymous": false,
      "inputs": [
        {
          "indexed": true,
          "internalType": "address",
          "name": "from",
          "type": "address"
        },
        {
          "indexed": true,
          "internalType": "address",
          "name": "to",
          "type": "address"
        },
        {
          "indexed": true,
          "internalType": "uint256",
          "name": "tokenId",
          "type": "uint256"
        }
      ],
      "name": "Transfer",
      "type": "event"
    },
    {
      "inputs": [],
      "name": "accessPriceInWei",
      "outputs": [
        {
          "internalType": "uint256",
          "name": "",
          "type": "uint256"
        }
      ],
      "stateMutability": "view",
      "type": "function"
    },
    {
      "inputs": [
        {
          "internalType": "address",
          "name": "to",
          "type": "address"
        },
        {
          "internalType": "uint256",
          "name": "tokenId",
          "type": "uint256"
        }
      ],
      "name": "approve",
      "outputs": [],
      "stateMutability": "nonpayable",
      "type": "function"
    },
    {
      "inputs": [
        {
          "internalType": "address",
          "name": "owner",
          "type": "address"
        }
      ],
      "name": "balanceOf",
      "outputs": [
        {
          "internalType": "uint256",
          "name": "",
          "type": "uint256"
        }
      ],
      "stateMutability": "view",
      "type": "function"
    },
    {
      "inputs": [],
      "name": "baseURI",
      "outputs": [
        {
          "internalType": "string",
          "name": "",
          "type": "string"
        }
      ],
      "stateMutability": "view",
      "type": "function"
    },
    {
      "inputs": [],
      "name": "creator",
      "outputs": [
        {
          "internalType": "address",
          "name": "",
          "type": "address"
        }
      ],
      "stateMutability": "view",
      "type": "function"
    },
    {
      "inputs": [
        {
          "internalType": "uint256",
          "name": "tokenId",
          "type": "uint256"
        }
      ],
      "name": "getApproved",
      "outputs": [
        {
          "internalType": "address",
          "name": "",
          "type": "address"
        }
      ],
      "stateMutability": "view",
      "type": "function"
    },
    {
      "inputs": [],
      "name": "id",
      "outputs": [
        {
          "internalType": "uint256",
          "name": "",
          "type": "uint256"
        }
      ],
      "stateMutability": "view",
      "type": "function"
    },
    {
      "inputs": [
        {
          "internalType": "address",
          "name": "owner",
          "type": "address"
        },
        {
          "internalType": "address",
          "name": "operator",
          "type": "address"
        }
      ],
      "name": "isApprovedForAll",
      "outputs": [
        {
          "internalType": "bool",
          "name": "",
          "type": "bool"
        }
      ],
      "stateMutability": "view",
      "type": "function"
    },
    {
      "inputs": [],
      "name": "name",
      "outputs": [
        {
          "internalType": "string",
          "name": "",
          "type": "string"
        }
      ],
      "stateMutability": "view",
      "type": "function"
    },
    {
      "inputs": [],
      "name": "owner",
      "outputs": [
        {
          "internalType": "address",
          "name": "",
          "type": "address"
        }
      ],
      "stateMutability": "view",
      "type": "function"
    },
    {
      "inputs": [
        {
          "internalType": "uint256",
          "name": "tokenId",
          "type": "uint256"
        }
      ],
      "name": "ownerOf",
      "outputs": [
        {
          "internalType": "address",
          "name": "",
          "type": "address"
        }
      ],
      "stateMutability": "view",
      "type": "function"
    },
    {
      "inputs": [],
      "name": "purchasable",
      "outputs": [
        {
          "internalType": "bool",
          "name": "",
          "type": "bool"
        }
      ],
      "stateMutability": "view",
      "type": "function"
    },
    {
      "inputs": [],
      "name": "renounceOwnership",
      "outputs": [],
      "stateMutability": "nonpayable",
      "type": "function"
    },
    {
      "inputs": [
        {
          "internalType": "address",
          "name": "from",
          "type": "address"
        },
        {
          "internalType": "address",
          "name": "to",
          "type": "address"
        },
        {
          "internalType": "uint256",
          "name": "tokenId",
          "type": "uint256"
        }
      ],
      "name": "safeTransferFrom",
      "outputs": [],
      "stateMutability": "nonpayable",
      "type": "function"
    },
    {
      "inputs": [
        {
          "internalType": "address",
          "name": "from",
          "type": "address"
        },
        {
          "internalType": "address",
          "name": "to",
          "type": "address"
        },
        {
          "internalType": "uint256",
          "name": "tokenId",
          "type": "uint256"
        },
        {
          "internalType": "bytes",
          "name": "_data",
          "type": "bytes"
        }
      ],
      "name": "safeTransferFrom",
      "outputs": [],
      "stateMutability": "nonpayable",
      "type": "function"
    },
    {
      "inputs": [
        {
          "internalType": "address",
          "name": "operator",
          "type": "address"
        },
        {
          "internalType": "bool",
          "name": "approved",
          "type": "bool"
        }
      ],
      "name": "setApprovalForAll",
      "outputs": [],
      "stateMutability": "nonpayable",
      "type": "function"
    },
    {
      "inputs": [],
      "name": "spaceCapacityInBytes",
      "outputs": [
        {
          "internalType": "uint256",
          "name": "",
          "type": "uint256"
        }
      ],
      "stateMutability": "view",
      "type": "function"
    },
    {
      "inputs": [],
      "name": "supply",
      "outputs": [
        {
          "internalType": "uint256",
          "name": "",
          "type": "uint256"
        }
      ],
      "stateMutability": "view",
      "type": "function"
    },
    {
      "inputs": [
        {
          "internalType": "bytes4",
          "name": "interfaceId",
          "type": "bytes4"
        }
      ],
      "name": "supportsInterface",
      "outputs": [
        {
          "internalType": "bool",
          "name": "",
          "type": "bool"
        }
      ],
      "stateMutability": "view",
      "type": "function"
    },
    {
      "inputs": [],
      "name": "symbol",
      "outputs": [
        {
          "internalType": "string",
          "name": "",
          "type": "string"
        }
      ],
      "stateMutability": "view",
      "type": "function"
    },
    {
      "inputs": [
        {
          "internalType": "uint256",
          "name": "index",
          "type": "uint256"
        }
      ],
      "name": "tokenByIndex",
      "outputs": [
        {
          "internalType": "uint256",
          "name": "",
          "type": "uint256"
        }
      ],
      "stateMutability": "view",
      "type": "function"
    },
    {
      "inputs": [
        {
          "internalType": "address",
          "name": "owner",
          "type": "address"
        },
        {
          "internalType": "uint256",
          "name": "index",
          "type": "uint256"
        }
      ],
      "name": "tokenOfOwnerByIndex",
      "outputs": [
        {
          "internalType": "uint256",
          "name": "",
          "type": "uint256"
        }
      ],
      "stateMutability": "view",
      "type": "function"
    },
    {
      "inputs": [
        {
          "internalType": "uint256",
          "name": "tokenId",
          "type": "uint256"
        }
      ],
      "name": "tokenURI",
      "outputs": [
        {
          "internalType": "string",
          "name": "",
          "type": "string"
        }
      ],
      "stateMutability": "view",
      "type": "function"
    },
    {
      "inputs": [],
      "name": "totalSupply",
      "outputs": [
        {
          "internalType": "uint256",
          "name": "",
          "type": "uint256"
        }
      ],
      "stateMutability": "view",
      "type": "function"
    },
    {
      "inputs": [
        {
          "internalType": "address",
          "name": "from",
          "type": "address"
        },
        {
          "internalType": "address",
          "name": "to",
          "type": "address"
        },
        {
          "internalType": "uint256",
          "name": "tokenId",
          "type": "uint256"
        }
      ],
      "name": "transferFrom",
      "outputs": [],
      "stateMutability": "nonpayable",
      "type": "function"
    },
    {
      "inputs": [
        {
          "internalType": "address",
          "name": "newOwner",
          "type": "address"
        }
      ],
      "name": "transferOwnership",
      "outputs": [],
      "stateMutability": "nonpayable",
      "type": "function"
    },
    {
      "inputs": [],
      "name": "pay",
      "outputs": [
        {
          "internalType": "bool",
          "name": "",
          "type": "bool"
        }
      ],
      "stateMutability": "payable",
      "type": "function"
    },
    {
      "inputs": [],
      "name": "release",
      "outputs": [],
      "stateMutability": "nonpayable",
      "type": "function"
    },
    {
      "inputs": [
        {
          "internalType": "address",
          "name": "to",
          "type": "address"
        }
      ],
      "name": "releaseTo",
      "outputs": [],
      "stateMutability": "nonpayable",
      "type": "function"
    },
    {
      "inputs": [
        {
          "internalType": "address",
          "name": "to",
          "type": "address"
        }
      ],
      "name": "_grantAccess",
      "outputs": [],
      "stateMutability": "nonpayable",
      "type": "function"
    },
    {
      "inputs": [],
      "name": "remainingSupply",
      "outputs": [
        {
          "internalType": "uint256",
          "name": "",
          "type": "uint256"
        }
      ],
      "stateMutability": "view",
      "type": "function"
    },
    {
      "inputs": [
        {
          "internalType": "uint256",
          "name": "_accessPriceInWei",
          "type": "uint256"
        }
      ],
      "name": "setAccessPriceInWei",
      "outputs": [],
      "stateMutability": "nonpayable",
      "type": "function"
    },
    {
      "inputs": [
        {
          "internalType": "bool",
          "name": "_purchasable",
          "type": "bool"
        }
      ],
      "name": "setPurchasable",
      "outputs": [],
      "stateMutability": "nonpayable",
      "type": "function"
    },
    {
      "inputs": [
        {
          "internalType": "uint256",
          "name": "additionalSpaceCapacityInBytes",
          "type": "uint256"
        }
      ],
      "name": "_addSpaceCapacityInBytes",
      "outputs": [],
      "stateMutability": "nonpayable",
      "type": "function"
    }
  ],
  "bytecode": "0x60806040523480156200001157600080fd5b5060405162002e2938038062002e29833981016040819052620000349162000512565b888860006200004262000196565b600080546001600160a01b0319166001600160a01b0383169081178255604051929350917f8be0079c531659141344cd1fd0a4f28419497f9722a3daafe3b4186f6b6457e0908290a3506200009e6301ffc9a760e01b6200019a565b8151620000b3906007906020850190620003c4565b508051620000c9906008906020840190620003c4565b50620000dc6380ac58cd60e01b6200019a565b620000ee635b5e139f60e01b6200019a565b6200010063780e9d6360e01b6200019a565b5050600b879055600c869055600d859055600e849055600f805460ff60a01b1916600160a01b85151502176001600160a01b0319166001600160a01b03841617905562000187816200015e3062000222602090811b6200132c17901c565b60405160200162000171929190620005ec565b60408051601f19818403018152919052620003ab565b5050505050505050506200065e565b3390565b6001600160e01b03198082161415620001fa576040805162461bcd60e51b815260206004820152601c60248201527f4552433136353a20696e76616c696420696e7465726661636520696400000000604482015290519081900360640190fd5b6001600160e01b0319166000908152600160208190526040909120805460ff19169091179055565b604080518082018252601081526f181899199a1a9b1b9c1cb0b131b232b360811b60208201528151602a80825260608281019094526001600160a01b0385169291600091602082018180368337019050509050600360fc1b816000815181106200028857fe5b60200101906001600160f81b031916908160001a905350600f60fb1b81600181518110620002b257fe5b60200101906001600160f81b031916908160001a90535060005b6014811015620003a0578260048583600c0160208110620002e957fe5b1a60f81b6001600160f81b031916901c60f81c60ff16815181106200030a57fe5b602001015160f81c60f81b8282600202600201815181106200032857fe5b60200101906001600160f81b031916908160001a905350828482600c01602081106200035057fe5b825191901a600f169081106200036257fe5b602001015160f81c60f81b8282600202600301815181106200038057fe5b60200101906001600160f81b031916908160001a905350600101620002cc565b50925050505b919050565b8051620003c090600a906020840190620003c4565b5050565b828054600181600116156101000203166002900490600052602060002090601f016020900481019282620003fc576000855562000447565b82601f106200041757805160ff191683800117855562000447565b8280016001018555821562000447579182015b82811115620004475782518255916020019190600101906200042a565b506200045592915062000459565b5090565b5b808211156200045557600081556001016200045a565b80516001600160a01b0381168114620003a657600080fd5b80518015158114620003a657600080fd5b600082601f830112620004aa578081fd5b81516001600160401b0380821115620004bf57fe5b604051601f8301601f191681016020018281118282101715620004de57fe5b604052828152848301602001861015620004f6578384fd5b620005098360208301602088016200062b565b95945050505050565b60008060008060008060008060006101208a8c03121562000531578485fd5b89516001600160401b038082111562000548578687fd5b620005568d838e0162000499565b9a5060208c01519150808211156200056c578687fd5b6200057a8d838e0162000499565b995060408c0151985060608c0151975060808c0151965060a08c01519550620005a660c08d0162000488565b9450620005b660e08d0162000470565b93506101008c0151915080821115620005cd578283fd5b50620005dc8c828d0162000499565b9150509295985092959850929598565b60008351620006008184602088016200062b565b835190830190620006168183602088016200062b565b602f60f81b9101908152600101949350505050565b60005b83811015620006485781810151838201526020016200062e565b8381111562000658576000848401525b50505050565b6127bb806200066e6000396000f3fe6080604052600436106101f95760003560e01c8063715018a61161010d578063af640d0f116100a0578063da0239a61161006f578063da0239a614610536578063dbadc7ef1461054b578063e985e9c51461056b578063eb8d0e4e1461058b578063f2fde38b146105ab576101f9565b8063af640d0f146104c1578063b88d4fde146104d6578063c87b56dd146104f6578063d1fb564614610516576101f9565b806386d1a69f116100dc57806386d1a69f146104625780638da5cb5b1461047757806395d89b411461048c578063a22cb465146104a1576101f9565b8063715018a61461040357806376052df8146104185780637aa039b8146104385780637fdc13121461044d576101f9565b806323b872dd116101905780634f6ccce71161015f5780634f6ccce71461036e5780635a1498b01461038e5780636352211e146103ae5780636c0360eb146103ce57806370a08231146103e3576101f9565b806323b872dd146102f95780632f745c59146103195780633f3d83c31461033957806342842e0e1461034e576101f9565b8063081812fc116101cc578063081812fc1461029a578063095ea7b3146102ba57806318160ddd146102dc5780631b9265b8146102f1576101f9565b806301ffc9a7146101fe57806302d05d3f14610234578063047fc9aa1461025657806306fdde0314610278575b600080fd5b34801561020a57600080fd5b5061021e610219366004612395565b6105cb565b60405161022b91906123ec565b60405180910390f35b34801561024057600080fd5b506102496105ee565b60405161022b91906123d8565b34801561026257600080fd5b5061026b6105fd565b60405161022b91906124e9565b34801561028457600080fd5b5061028d610603565b60405161022b91906123f7565b3480156102a657600080fd5b506102496102b53660046123bd565b610699565b3480156102c657600080fd5b506102da6102d5366004612352565b6106fb565b005b3480156102e857600080fd5b5061026b6107d1565b61021e6107e2565b34801561030557600080fd5b506102da61031436600461222e565b6107e7565b34801561032557600080fd5b5061026b610334366004612352565b61083e565b34801561034557600080fd5b5061021e610869565b34801561035a57600080fd5b506102da61036936600461222e565b610879565b34801561037a57600080fd5b5061026b6103893660046123bd565b610894565b34801561039a57600080fd5b506102da6103a93660046123bd565b6108aa565b3480156103ba57600080fd5b506102496103c93660046123bd565b6108ed565b3480156103da57600080fd5b5061028d610915565b3480156103ef57600080fd5b5061026b6103fe3660046121e2565b610976565b34801561040f57600080fd5b506102da6109de565b34801561042457600080fd5b506102da61043336600461237b565b610a8a565b34801561044457600080fd5b5061026b610add565b34801561045957600080fd5b5061026b610ae3565b34801561046e57600080fd5b506102da610ae9565b34801561048357600080fd5b50610249610ba2565b34801561049857600080fd5b5061028d610bb1565b3480156104ad57600080fd5b506102da6104bc366004612329565b610c12565b3480156104cd57600080fd5b5061026b610d17565b3480156104e257600080fd5b506102da6104f1366004612269565b610d1d565b34801561050257600080fd5b5061028d6105113660046123bd565b610d7b565b34801561052257600080fd5b506102da6105313660046121e2565b610ffc565b34801561054257600080fd5b5061026b6110b1565b34801561055757600080fd5b506102da6105663660046121e2565b6110c6565b34801561057757600080fd5b5061021e6105863660046121fc565b61118f565b34801561059757600080fd5b506102da6105a63660046123bd565b6111bd565b3480156105b757600080fd5b506102da6105c63660046121e2565b61122a565b6001600160e01b0319811660009081526001602052604090205460ff165b919050565b600f546001600160a01b031681565b600c5481565b60078054604080516020601f600260001961010060018816150201909516949094049384018190048102820181019092528281526060939092909183018282801561068f5780601f106106645761010080835404028352916020019161068f565b820191906000526020600020905b81548152906001019060200180831161067257829003601f168201915b5050505050905090565b60006106a4826114a9565b6106df5760405162461bcd60e51b815260040180806020018281038252602c815260200180612690602c913960400191505060405180910390fd5b506000908152600560205260409020546001600160a01b031690565b6000610706826108ed565b9050806001600160a01b0316836001600160a01b031614156107595760405162461bcd60e51b81526004018080602001828103825260218152602001806127346021913960400191505060405180910390fd5b806001600160a01b031661076b6114b6565b6001600160a01b031614806107875750610787816105866114b6565b6107c25760405162461bcd60e51b81526004018080602001828103825260388152602001806125e36038913960400191505060405180910390fd5b6107cc83836114ba565b505050565b60006107dd6003611528565b905090565b600190565b6107f86107f26114b6565b82611533565b6108335760405162461bcd60e51b81526004018080602001828103825260318152602001806127556031913960400191505060405180910390fd5b6107cc8383836115d7565b6001600160a01b03821660009081526002602052604081206108609083611723565b90505b92915050565b600f54600160a01b900460ff1681565b6107cc83838360405180602001604052806000815250610d1d565b6000806108a260038461172f565b509392505050565b6108b26114b6565b600f546001600160a01b039081169116146108e85760405162461bcd60e51b81526004016108df9061244a565b60405180910390fd5b600e55565b600061086382604051806060016040528060298152602001612645602991396003919061174b565b600a8054604080516020601f600260001961010060018816150201909516949094049384018190048102820181019092528281526060939092909183018282801561068f5780601f106106645761010080835404028352916020019161068f565b60006001600160a01b0382166109bd5760405162461bcd60e51b815260040180806020018281038252602a81526020018061261b602a913960400191505060405180910390fd5b6001600160a01b038216600090815260026020526040902061086390611528565b6109e66114b6565b6001600160a01b03166109f7610ba2565b6001600160a01b031614610a40576040805162461bcd60e51b815260206004820181905260248201526000805160206126bc833981519152604482015290519081900360640190fd5b600080546040516001600160a01b03909116907f8be0079c531659141344cd1fd0a4f28419497f9722a3daafe3b4186f6b6457e0908390a3600080546001600160a01b0319169055565b610a926114b6565b600f546001600160a01b03908116911614610abf5760405162461bcd60e51b81526004016108df9061244a565b600f8054911515600160a01b0260ff60a01b19909216919091179055565b600d5481565b600e5481565b610af16114b6565b600f546001600160a01b03908116911614610b1e5760405162461bcd60e51b81526004016108df9061244a565b600f546040516000916001600160a01b0316904790610b3c906123d5565b60006040518083038185875af1925050503d8060008114610b79576040519150601f19603f3d011682016040523d82523d6000602084013e610b7e565b606091505b5050905080610b9f5760405162461bcd60e51b81526004016108df906124be565b50565b6000546001600160a01b031690565b60088054604080516020601f600260001961010060018816150201909516949094049384018190048102820181019092528281526060939092909183018282801561068f5780601f106106645761010080835404028352916020019161068f565b610c1a6114b6565b6001600160a01b0316826001600160a01b03161415610c80576040805162461bcd60e51b815260206004820152601960248201527f4552433732313a20617070726f766520746f2063616c6c657200000000000000604482015290519081900360640190fd5b8060066000610c8d6114b6565b6001600160a01b03908116825260208083019390935260409182016000908120918716808252919093529120805460ff191692151592909217909155610cd16114b6565b6001600160a01b03167f17307eab39ab6107e8899845ad3d59bd9653f200f220920489ca2b5937696c318360405180821515815260200191505060405180910390a35050565b600b5481565b610d2e610d286114b6565b83611533565b610d695760405162461bcd60e51b81526004018080602001828103825260318152602001806127556031913960400191505060405180910390fd5b610d7584848484611762565b50505050565b6060610d86826114a9565b610dc15760405162461bcd60e51b815260040180806020018281038252602f815260200180612705602f913960400191505060405180910390fd5b60008281526009602090815260408083208054825160026001831615610100026000190190921691909104601f810185900485028201850190935282815292909190830182828015610e545780601f10610e2957610100808354040283529160200191610e54565b820191906000526020600020905b815481529060010190602001808311610e3757829003601f168201915b505050505090506000610e65610915565b9050805160001415610e79575090506105e9565b815115610f3a5780826040516020018083805190602001908083835b60208310610eb45780518252601f199092019160209182019101610e95565b51815160209384036101000a600019018019909216911617905285519190930192850191508083835b60208310610efc5780518252601f199092019160209182019101610edd565b6001836020036101000a03801982511681845116808217855250505050505090500192505050604051602081830303815290604052925050506105e9565b80610f44856117b4565b6040516020018083805190602001908083835b60208310610f765780518252601f199092019160209182019101610f57565b51815160209384036101000a600019018019909216911617905285519190930192850191508083835b60208310610fbe5780518252601f199092019160209182019101610f9f565b6001836020036101000a0380198251168184511680821785525050505050509050019250505060405160208183030381529060405292505050919050565b6110046114b6565b600f546001600160a01b039081169116146110315760405162461bcd60e51b81526004016108df9061244a565b6000816001600160a01b03164760405161104a906123d5565b60006040518083038185875af1925050503d8060008114611087576040519150601f19603f3d011682016040523d82523d6000602084013e61108c565b606091505b50509050806110ad5760405162461bcd60e51b81526004016108df906124be565b5050565b60006107dd600c546110c16107d1565b611886565b6110ce6114b6565b6001600160a01b03166110df610ba2565b6001600160a01b031614611128576040805162461bcd60e51b815260206004820181905260248201526000805160206126bc833981519152604482015290519081900360640190fd5b60006111326107d1565b9050600c5481106111555760405162461bcd60e51b81526004016108df9061249c565b61115e82610976565b1561117b5760405162461bcd60e51b81526004016108df90612470565b6110ad8261118a8360016118e3565b61193d565b6001600160a01b03918216600090815260066020908152604080832093909416825291909152205460ff1690565b6111c56114b6565b6001600160a01b03166111d6610ba2565b6001600160a01b03161461121f576040805162461bcd60e51b815260206004820181905260248201526000805160206126bc833981519152604482015290519081900360640190fd5b600d80549091019055565b6112326114b6565b6001600160a01b0316611243610ba2565b6001600160a01b03161461128c576040805162461bcd60e51b815260206004820181905260248201526000805160206126bc833981519152604482015290519081900360640190fd5b6001600160a01b0381166112d15760405162461bcd60e51b81526004018080602001828103825260268152602001806125476026913960400191505060405180910390fd5b600080546040516001600160a01b03808516939216917f8be0079c531659141344cd1fd0a4f28419497f9722a3daafe3b4186f6b6457e091a3600080546001600160a01b0319166001600160a01b0392909216919091179055565b604080518082018252601081526f181899199a1a9b1b9c1cb0b131b232b360811b60208201528151602a80825260608281019094526001600160a01b0385169291600091602082018180368337019050509050600360fc1b8160008151811061139157fe5b60200101906001600160f81b031916908160001a905350600f60fb1b816001815181106113ba57fe5b60200101906001600160f81b031916908160001a90535060005b60148110156114a0578260048583600c01602081106113ef57fe5b1a60f81b6001600160f81b031916901c60f81c60ff168151811061140f57fe5b602001015160f81c60f81b82826002026002018151811061142c57fe5b60200101906001600160f81b031916908160001a905350828482600c016020811061145357fe5b825191901a600f1690811061146457fe5b602001015160f81c60f81b82826002026003018151811061148157fe5b60200101906001600160f81b031916908160001a9053506001016113d4565b50949350505050565b6000610863600383611957565b3390565b600081815260056020526040902080546001600160a01b0319166001600160a01b03841690811790915581906114ef826108ed565b6001600160a01b03167f8c5be1e5ebec7d5bd14f71427d1e84f3dd0314c0f7b2291e5b200ac8c7c3b92560405160405180910390a45050565b600061086382611963565b600061153e826114a9565b6115795760405162461bcd60e51b815260040180806020018281038252602c8152602001806125b7602c913960400191505060405180910390fd5b6000611584836108ed565b9050806001600160a01b0316846001600160a01b031614806115bf5750836001600160a01b03166115b484610699565b6001600160a01b0316145b806115cf57506115cf818561118f565b949350505050565b826001600160a01b03166115ea826108ed565b6001600160a01b03161461162f5760405162461bcd60e51b81526004018080602001828103825260298152602001806126dc6029913960400191505060405180910390fd5b6001600160a01b0382166116745760405162461bcd60e51b815260040180806020018281038252602481526020018061256d6024913960400191505060405180910390fd5b61167f8383836107cc565b61168a6000826114ba565b6001600160a01b03831660009081526002602052604090206116ac9082611967565b506001600160a01b03821660009081526002602052604090206116cf9082611973565b506116dc6003828461197f565b5080826001600160a01b0316846001600160a01b03167fddf252ad1be2c89b69c2b068fc378daa952ba7f163c4a11628f55a4df523b3ef60405160405180910390a4505050565b60006108608383611995565b600080808061173e86866119f9565b9097909650945050505050565b6000611758848484611a74565b90505b9392505050565b61176d8484846115d7565b61177984848484611b3e565b610d755760405162461bcd60e51b81526004018080602001828103825260328152602001806125156032913960400191505060405180910390fd5b6060816117d957506040805180820190915260018152600360fc1b60208201526105e9565b8160005b81156117f157600101600a820491506117dd565b60008167ffffffffffffffff8111801561180a57600080fd5b506040519080825280601f01601f191660200182016040528015611835576020820181803683370190505b50859350905060001982015b83156114a057600a840660300160f81b8282806001900393508151811061186457fe5b60200101906001600160f81b031916908160001a905350600a84049350611841565b6000828211156118dd576040805162461bcd60e51b815260206004820152601e60248201527f536166654d6174683a207375627472616374696f6e206f766572666c6f770000604482015290519081900360640190fd5b50900390565b600082820183811015610860576040805162461bcd60e51b815260206004820152601b60248201527f536166654d6174683a206164646974696f6e206f766572666c6f770000000000604482015290519081900360640190fd5b6110ad828260405180602001604052806000815250611ca6565b60006108608383611cf8565b5490565b60006108608383611d10565b60006108608383611dd6565b600061175884846001600160a01b038516611e20565b815460009082106119d75760405162461bcd60e51b81526004018080602001828103825260228152602001806124f36022913960400191505060405180910390fd5b8260000182815481106119e657fe5b9060005260206000200154905092915050565b815460009081908310611a3d5760405162461bcd60e51b815260040180806020018281038252602281526020018061266e6022913960400191505060405180910390fd5b6000846000018481548110611a4e57fe5b906000526020600020906002020190508060000154816001015492509250509250929050565b60008281526001840160205260408120548281611b0f5760405162461bcd60e51b81526004018080602001828103825283818151815260200191508051906020019080838360005b83811015611ad4578181015183820152602001611abc565b50505050905090810190601f168015611b015780820380516001836020036101000a031916815260200191505b509250505060405180910390fd5b50846000016001820381548110611b2257fe5b9060005260206000209060020201600101549150509392505050565b6000611b52846001600160a01b0316611eb7565b611b5e575060016115cf565b6000611c6c630a85bd0160e11b611b736114b6565b88878760405160240180856001600160a01b03168152602001846001600160a01b0316815260200183815260200180602001828103825283818151815260200191508051906020019080838360005b83811015611bda578181015183820152602001611bc2565b50505050905090810190601f168015611c075780820380516001836020036101000a031916815260200191505b5095505050505050604051602081830303815290604052906001600160e01b0319166020820180516001600160e01b038381831617835250505050604051806060016040528060328152602001612515603291396001600160a01b0388169190611ebd565b90506000818060200190516020811015611c8557600080fd5b50516001600160e01b031916630a85bd0160e11b1492505050949350505050565b611cb08383611ecc565b611cbd6000848484611b3e565b6107cc5760405162461bcd60e51b81526004018080602001828103825260328152602001806125156032913960400191505060405180910390fd5b60009081526001919091016020526040902054151590565b60008181526001830160205260408120548015611dcc5783546000198083019190810190600090879083908110611d4357fe5b9060005260206000200154905080876000018481548110611d6057fe5b600091825260208083209091019290925582815260018981019092526040902090840190558654879080611d9057fe5b60019003818190600052602060002001600090559055866001016000878152602001908152602001600020600090556001945050505050610863565b6000915050610863565b6000611de28383611cf8565b611e1857508154600181810184556000848152602080822090930184905584548482528286019093526040902091909155610863565b506000610863565b600082815260018401602052604081205480611e8557505060408051808201825283815260208082018481528654600181810189556000898152848120955160029093029095019182559151908201558654868452818801909252929091205561175b565b82856000016001830381548110611e9857fe5b906000526020600020906002020160010181905550600091505061175b565b3b151590565b60606117588484600085611ffa565b6001600160a01b038216611f27576040805162461bcd60e51b815260206004820181905260248201527f4552433732313a206d696e7420746f20746865207a65726f2061646472657373604482015290519081900360640190fd5b611f30816114a9565b15611f82576040805162461bcd60e51b815260206004820152601c60248201527f4552433732313a20746f6b656e20616c7265616479206d696e74656400000000604482015290519081900360640190fd5b611f8e600083836107cc565b6001600160a01b0382166000908152600260205260409020611fb09082611973565b50611fbd6003828461197f565b5060405181906001600160a01b038416906000907fddf252ad1be2c89b69c2b068fc378daa952ba7f163c4a11628f55a4df523b3ef908290a45050565b60608247101561203b5760405162461bcd60e51b81526004018080602001828103825260268152602001806125916026913960400191505060405180910390fd5b61204485611eb7565b612095576040805162461bcd60e51b815260206004820152601d60248201527f416464726573733a2063616c6c20746f206e6f6e2d636f6e7472616374000000604482015290519081900360640190fd5b600080866001600160a01b031685876040518082805190602001908083835b602083106120d35780518252601f1990920191602091820191016120b4565b6001836020036101000a03801982511681845116808217855250505050505090500191505060006040518083038185875af1925050503d8060008114612135576040519150601f19603f3d011682016040523d82523d6000602084013e61213a565b606091505b509150915061214a828286612155565b979650505050505050565b6060831561216457508161175b565b8251156121745782518084602001fd5b60405162461bcd60e51b8152602060048201818152845160248401528451859391928392604401919085019080838360008315611ad4578181015183820152602001611abc565b80356001600160a01b03811681146105e957600080fd5b803580151581146105e957600080fd5b6000602082840312156121f3578081fd5b610860826121bb565b6000806040838503121561220e578081fd5b612217836121bb565b9150612225602084016121bb565b90509250929050565b600080600060608486031215612242578081fd5b61224b846121bb565b9250612259602085016121bb565b9150604084013590509250925092565b6000806000806080858703121561227e578081fd5b612287856121bb565b935060206122968187016121bb565b935060408601359250606086013567ffffffffffffffff808211156122b9578384fd5b818801915088601f8301126122cc578384fd5b8135818111156122d857fe5b604051601f8201601f19168101850183811182821017156122f557fe5b60405281815283820185018b101561230b578586fd5b81858501868301379081019093019390935250939692955090935050565b6000806040838503121561233b578182fd5b612344836121bb565b9150612225602084016121d2565b60008060408385031215612364578182fd5b61236d836121bb565b946020939093013593505050565b60006020828403121561238c578081fd5b610860826121d2565b6000602082840312156123a6578081fd5b81356001600160e01b031981168114610860578182fd5b6000602082840312156123ce578081fd5b5035919050565b90565b6001600160a01b0391909116815260200190565b901515815260200190565b6000602080835283518082850152825b8181101561242357858101830151858201604001528201612407565b818111156124345783604083870101525b50601f01601f1916929092016040019392505050565b6020808252600c908201526b37b7363cafb1b932b0ba37b960a11b604082015260600190565b602080825260129082015271616c72656164795f6f776e735f737061636560701b604082015260600190565b6020808252600890820152671cdbdb1917dbdd5d60c21b604082015260600190565b6020808252601190820152706661696c65645f746f5f72656c6561736560781b604082015260600190565b9081526020019056fe456e756d657261626c655365743a20696e646578206f7574206f6620626f756e64734552433732313a207472616e7366657220746f206e6f6e20455243373231526563656976657220696d706c656d656e7465724f776e61626c653a206e6577206f776e657220697320746865207a65726f20616464726573734552433732313a207472616e7366657220746f20746865207a65726f2061646472657373416464726573733a20696e73756666696369656e742062616c616e636520666f722063616c6c4552433732313a206f70657261746f7220717565727920666f72206e6f6e6578697374656e7420746f6b656e4552433732313a20617070726f76652063616c6c6572206973206e6f74206f776e6572206e6f7220617070726f76656420666f7220616c6c4552433732313a2062616c616e636520717565727920666f7220746865207a65726f20616464726573734552433732313a206f776e657220717565727920666f72206e6f6e6578697374656e7420746f6b656e456e756d657261626c654d61703a20696e646578206f7574206f6620626f756e64734552433732313a20617070726f76656420717565727920666f72206e6f6e6578697374656e7420746f6b656e4f776e61626c653a2063616c6c6572206973206e6f7420746865206f776e65724552433732313a207472616e73666572206f6620746f6b656e2074686174206973206e6f74206f776e4552433732314d657461646174613a2055524920717565727920666f72206e6f6e6578697374656e7420746f6b656e4552433732313a20617070726f76616c20746f2063757272656e74206f776e65724552433732313a207472616e736665722063616c6c6572206973206e6f74206f776e6572206e6f7220617070726f766564a2646970667358221220fffe394964de25b1c36e424666c02d88558c6bb4874d8a2dc12c577116e6987d64736f6c63430007060033",
  "immutableReferences": {},
  "source": "// SPDX-License-Identifier: MIT\n\npragma solidity ^0.7.6;\npragma abicoder v2;\n\nimport \"@openzeppelin/contracts/token/ERC721/ERC721.sol\";\nimport \"@openzeppelin/contracts/access/Ownable.sol\";\nimport \"@openzeppelin/contracts/math/SafeMath.sol\";\nimport \"@openzeppelin/contracts/utils/Strings.sol\";\nimport \"./AddressToString.sol\";\n\ncontract AQVSSpace is Ownable, ERC721 {\n  using SafeMath for uint256;\n  using Strings for uint256;\n  using AddressToString for address;\n\n  uint256 public id;\n  uint256 public supply;\n  uint256 public spaceCapacityInBytes;\n  uint256 public accessPriceInWei;\n  address public creator;\n  bool public purchasable;\n\n  modifier onlyCreator() {\n    require(creator == _msgSender(), \"only_creator\");\n    _;\n  }\n\n  function pay() public payable returns (bool) {\n    return true;\n  }\n\n  function release() public onlyCreator {\n    (bool success, ) = payable(creator).call{ value: address(this).balance }(\"\");\n    require(success, \"failed_to_release\");\n  }\n\n  function releaseTo(address to) public onlyCreator {\n    (bool success, ) = payable(to).call{ value: address(this).balance }(\"\");\n    require(success, \"failed_to_release\");\n  }\n\n  constructor(\n    string memory _name,\n    string memory _symbol,\n    uint256 _id,\n    uint256 _supply,\n    uint256 _spaceCapacityInBytes,\n    uint256 _accessPriceInWei,\n    bool _purchasable,\n    address _creator,\n    string memory _baseURI\n  ) ERC721(_name, _symbol) {\n    id = _id;\n    supply = _supply;\n    spaceCapacityInBytes = _spaceCapacityInBytes;\n    accessPriceInWei = _accessPriceInWei;\n    purchasable = _purchasable;\n    creator = _creator;\n    _setBaseURI(\n      string(abi.encodePacked(_baseURI, address(this).toString(), \"/\"))\n    );\n  }\n\n  function _grantAccess(address to) public onlyOwner {\n    uint256 totalSupply = totalSupply();\n    require(totalSupply < supply, \"sold_out\");\n    require(balanceOf(to) == 0, \"already_owns_space\");\n    _safeMint(to, SafeMath.add(totalSupply, 1));\n  }\n\n  function remainingSupply() public view returns (uint256) {\n    return SafeMath.sub(supply, totalSupply());\n  }\n\n  function setAccessPriceInWei(uint256 _accessPriceInWei) public onlyCreator {\n    accessPriceInWei = _accessPriceInWei;\n  }\n\n  function setPurchasable(bool _purchasable) public onlyCreator {\n    purchasable = _purchasable;\n  }\n\n  function _addSpaceCapacityInBytes(\n    uint256 additionalSpaceCapacityInBytes\n  ) public onlyOwner {\n    spaceCapacityInBytes = spaceCapacityInBytes + additionalSpaceCapacityInBytes;\n  }\n}\n",
  "sourcePath": "/Users/hhff/dev/aqueous-varnish/contracts/contracts/AQVSSpace.sol",
  "compiler": {
    "name": "solc",
    "version": "0.7.6+commit.7338295f.Emscripten.clang"
  },
  "schemaVersion": "3.3.3",
  "updatedAt": "2021-09-04T16:41:32.201Z",
  "devdoc": {
    "kind": "dev",
    "methods": {
      "approve(address,uint256)": {
        "details": "See {IERC721-approve}."
      },
      "balanceOf(address)": {
        "details": "See {IERC721-balanceOf}."
      },
      "baseURI()": {
        "details": "Returns the base URI set via {_setBaseURI}. This will be automatically added as a prefix in {tokenURI} to each token's URI, or to the token ID if no specific URI is set for that token ID."
      },
      "getApproved(uint256)": {
        "details": "See {IERC721-getApproved}."
      },
      "isApprovedForAll(address,address)": {
        "details": "See {IERC721-isApprovedForAll}."
      },
      "name()": {
        "details": "See {IERC721Metadata-name}."
      },
      "owner()": {
        "details": "Returns the address of the current owner."
      },
      "ownerOf(uint256)": {
        "details": "See {IERC721-ownerOf}."
      },
      "renounceOwnership()": {
        "details": "Leaves the contract without owner. It will not be possible to call `onlyOwner` functions anymore. Can only be called by the current owner. NOTE: Renouncing ownership will leave the contract without an owner, thereby removing any functionality that is only available to the owner."
      },
      "safeTransferFrom(address,address,uint256)": {
        "details": "See {IERC721-safeTransferFrom}."
      },
      "safeTransferFrom(address,address,uint256,bytes)": {
        "details": "See {IERC721-safeTransferFrom}."
      },
      "setApprovalForAll(address,bool)": {
        "details": "See {IERC721-setApprovalForAll}."
      },
      "supportsInterface(bytes4)": {
        "details": "See {IERC165-supportsInterface}. Time complexity O(1), guaranteed to always use less than 30 000 gas."
      },
      "symbol()": {
        "details": "See {IERC721Metadata-symbol}."
      },
      "tokenByIndex(uint256)": {
        "details": "See {IERC721Enumerable-tokenByIndex}."
      },
      "tokenOfOwnerByIndex(address,uint256)": {
        "details": "See {IERC721Enumerable-tokenOfOwnerByIndex}."
      },
      "tokenURI(uint256)": {
        "details": "See {IERC721Metadata-tokenURI}."
      },
      "totalSupply()": {
        "details": "See {IERC721Enumerable-totalSupply}."
      },
      "transferFrom(address,address,uint256)": {
        "details": "See {IERC721-transferFrom}."
      },
      "transferOwnership(address)": {
        "details": "Transfers ownership of the contract to a new account (`newOwner`). Can only be called by the current owner."
      }
    },
    "version": 1
  },
  "userdoc": {
    "kind": "user",
    "methods": {},
    "version": 1
  }
}