{
  "contractName": "AQVSSpace",
  "abi": [
    {
      "inputs": [
        {
          "internalType": "uint256",
          "name": "_supply",
          "type": "uint256"
        },
        {
          "internalType": "uint256",
          "name": "_spaceCapacityInBytes",
          "type": "uint256"
        },
        {
          "internalType": "uint256",
          "name": "_accessPriceInWei",
          "type": "uint256"
        },
        {
          "internalType": "bool",
          "name": "_purchasable",
          "type": "bool"
        },
        {
          "internalType": "address",
          "name": "_creator",
          "type": "address"
        }
      ],
      "stateMutability": "nonpayable",
      "type": "constructor"
    },
    {
      "anonymous": false,
      "inputs": [
        {
          "indexed": true,
          "internalType": "address",
          "name": "previousOwner",
          "type": "address"
        },
        {
          "indexed": true,
          "internalType": "address",
          "name": "newOwner",
          "type": "address"
        }
      ],
      "name": "OwnershipTransferred",
      "type": "event"
    },
    {
      "inputs": [],
      "name": "accessPriceInWei",
      "outputs": [
        {
          "internalType": "uint256",
          "name": "",
          "type": "uint256"
        }
      ],
      "stateMutability": "view",
      "type": "function"
    },
    {
      "inputs": [],
      "name": "creator",
      "outputs": [
        {
          "internalType": "address",
          "name": "",
          "type": "address"
        }
      ],
      "stateMutability": "view",
      "type": "function"
    },
    {
      "inputs": [],
      "name": "owner",
      "outputs": [
        {
          "internalType": "address",
          "name": "",
          "type": "address"
        }
      ],
      "stateMutability": "view",
      "type": "function"
    },
    {
      "inputs": [],
      "name": "purchasable",
      "outputs": [
        {
          "internalType": "bool",
          "name": "",
          "type": "bool"
        }
      ],
      "stateMutability": "view",
      "type": "function"
    },
    {
      "inputs": [],
      "name": "renounceOwnership",
      "outputs": [],
      "stateMutability": "nonpayable",
      "type": "function"
    },
    {
      "inputs": [],
      "name": "spaceCapacityInBytes",
      "outputs": [
        {
          "internalType": "uint256",
          "name": "",
          "type": "uint256"
        }
      ],
      "stateMutability": "view",
      "type": "function"
    },
    {
      "inputs": [],
      "name": "supply",
      "outputs": [
        {
          "internalType": "uint256",
          "name": "",
          "type": "uint256"
        }
      ],
      "stateMutability": "view",
      "type": "function"
    },
    {
      "inputs": [
        {
          "internalType": "address",
          "name": "newOwner",
          "type": "address"
        }
      ],
      "name": "transferOwnership",
      "outputs": [],
      "stateMutability": "nonpayable",
      "type": "function"
    },
    {
      "inputs": [],
      "name": "buy",
      "outputs": [
        {
          "internalType": "bool",
          "name": "",
          "type": "bool"
        }
      ],
      "stateMutability": "payable",
      "type": "function"
    },
    {
      "inputs": [],
      "name": "release",
      "outputs": [],
      "stateMutability": "nonpayable",
      "type": "function"
    },
    {
      "inputs": [
        {
          "internalType": "address",
          "name": "to",
          "type": "address"
        }
      ],
      "name": "releaseTo",
      "outputs": [],
      "stateMutability": "nonpayable",
      "type": "function"
    },
    {
      "inputs": [
        {
          "internalType": "uint256",
          "name": "_accessPriceInWei",
          "type": "uint256"
        }
      ],
      "name": "setAccessPriceInWei",
      "outputs": [],
      "stateMutability": "nonpayable",
      "type": "function"
    },
    {
      "inputs": [
        {
          "internalType": "bool",
          "name": "_purchasable",
          "type": "bool"
        }
      ],
      "name": "setPurchasable",
      "outputs": [],
      "stateMutability": "nonpayable",
      "type": "function"
    },
    {
      "inputs": [
        {
          "internalType": "uint256",
          "name": "additionalSpaceCapacityInBytes",
          "type": "uint256"
        }
      ],
      "name": "_addSpaceCapacityInBytes",
      "outputs": [],
      "stateMutability": "nonpayable",
      "type": "function"
    }
  ],
  "bytecode": "0x608060405234801561001057600080fd5b5060405161098538038061098583398101604081905261002f916100d1565b60006100396100cd565b600080546001600160a01b0319166001600160a01b0383169081178255604051929350917f8be0079c531659141344cd1fd0a4f28419497f9722a3daafe3b4186f6b6457e0908290a3506001949094556002929092556003556004805460ff60a01b1916600160a01b92151592909202919091176001600160a01b0319166001600160a01b03909216919091179055610136565b3390565b600080600080600060a086880312156100e8578081fd5b8551945060208601519350604086015192506060860151801515811461010c578182fd5b60808701519092506001600160a01b0381168114610128578182fd5b809150509295509295909350565b610840806101456000396000f3fe6080604052600436106100dd5760003560e01c80637fdc13121161007f578063a6f2ae3a11610059578063a6f2ae3a146101fc578063d1fb564614610204578063eb8d0e4e14610224578063f2fde38b14610244576100dd565b80637fdc1312146101bd57806386d1a69f146101d25780638da5cb5b146101e7576100dd565b80635a1498b0116100bb5780635a1498b014610151578063715018a61461017357806376052df8146101885780637aa039b8146101a8576100dd565b806302d05d3f146100e2578063047fc9aa1461010d5780633f3d83c31461012f575b600080fd5b3480156100ee57600080fd5b506100f7610264565b604051610104919061076b565b60405180910390f35b34801561011957600080fd5b50610122610273565b60405161010491906107db565b34801561013b57600080fd5b50610144610279565b604051610104919061077f565b34801561015d57600080fd5b5061017161016c366004610750565b610289565b005b34801561017f57600080fd5b506101716102cc565b34801561019457600080fd5b506101716101a3366004610730565b61038a565b3480156101b457600080fd5b506101226103dd565b3480156101c957600080fd5b506101226103e3565b3480156101de57600080fd5b506101716103e9565b3480156101f357600080fd5b506100f76104a2565b6101446104b1565b34801561021057600080fd5b5061017161021f366004610702565b6104b6565b34801561023057600080fd5b5061017161023f366004610750565b61056b565b34801561025057600080fd5b5061017161025f366004610702565b6105ea565b6004546001600160a01b031681565b60015481565b600454600160a01b900460ff1681565b6102916106fe565b6004546001600160a01b039081169116146102c75760405162461bcd60e51b81526004016102be9061078a565b60405180910390fd5b600355565b6102d46106fe565b6001600160a01b03166102e56104a2565b6001600160a01b031614610340576040805162461bcd60e51b815260206004820181905260248201527f4f776e61626c653a2063616c6c6572206973206e6f7420746865206f776e6572604482015290519081900360640190fd5b600080546040516001600160a01b03909116907f8be0079c531659141344cd1fd0a4f28419497f9722a3daafe3b4186f6b6457e0908390a3600080546001600160a01b0319169055565b6103926106fe565b6004546001600160a01b039081169116146103bf5760405162461bcd60e51b81526004016102be9061078a565b60048054911515600160a01b0260ff60a01b19909216919091179055565b60025481565b60035481565b6103f16106fe565b6004546001600160a01b0390811691161461041e5760405162461bcd60e51b81526004016102be9061078a565b6004546040516000916001600160a01b031690479061043c90610768565b60006040518083038185875af1925050503d8060008114610479576040519150601f19603f3d011682016040523d82523d6000602084013e61047e565b606091505b505090508061049f5760405162461bcd60e51b81526004016102be906107b0565b50565b6000546001600160a01b031690565b600190565b6104be6106fe565b6004546001600160a01b039081169116146104eb5760405162461bcd60e51b81526004016102be9061078a565b6000816001600160a01b03164760405161050490610768565b60006040518083038185875af1925050503d8060008114610541576040519150601f19603f3d011682016040523d82523d6000602084013e610546565b606091505b50509050806105675760405162461bcd60e51b81526004016102be906107b0565b5050565b6105736106fe565b6001600160a01b03166105846104a2565b6001600160a01b0316146105df576040805162461bcd60e51b815260206004820181905260248201527f4f776e61626c653a2063616c6c6572206973206e6f7420746865206f776e6572604482015290519081900360640190fd5b600280549091019055565b6105f26106fe565b6001600160a01b03166106036104a2565b6001600160a01b03161461065e576040805162461bcd60e51b815260206004820181905260248201527f4f776e61626c653a2063616c6c6572206973206e6f7420746865206f776e6572604482015290519081900360640190fd5b6001600160a01b0381166106a35760405162461bcd60e51b81526004018080602001828103825260268152602001806107e56026913960400191505060405180910390fd5b600080546040516001600160a01b03808516939216917f8be0079c531659141344cd1fd0a4f28419497f9722a3daafe3b4186f6b6457e091a3600080546001600160a01b0319166001600160a01b0392909216919091179055565b3390565b600060208284031215610713578081fd5b81356001600160a01b0381168114610729578182fd5b9392505050565b600060208284031215610741578081fd5b81358015158114610729578182fd5b600060208284031215610761578081fd5b5035919050565b90565b6001600160a01b0391909116815260200190565b901515815260200190565b6020808252600c908201526b37b7363cafb1b932b0ba37b960a11b604082015260600190565b6020808252601190820152706661696c65645f746f5f72656c6561736560781b604082015260600190565b9081526020019056fe4f776e61626c653a206e6577206f776e657220697320746865207a65726f2061646472657373a2646970667358221220b46e9182ace7a499f7b1ecabf02162dfea6a24db6f02830b062bae5f6e3cb3cb64736f6c63430007060033",
  "immutableReferences": {},
  "source": "// SPDX-License-Identifier: MIT\n\npragma solidity ^0.7.6;\npragma abicoder v2;\n\nimport \"@openzeppelin/contracts/access/Ownable.sol\";\nimport \"@openzeppelin/contracts/math/SafeMath.sol\";\n\ncontract AQVSSpace is Ownable {\n  using SafeMath for uint256;\n\n  uint256 public supply;\n  uint256 public spaceCapacityInBytes;\n  uint256 public accessPriceInWei;\n  address public creator;\n  bool public purchasable;\n\n  modifier onlyCreator() {\n    require(creator == _msgSender(), \"only_creator\");\n    _;\n  }\n\n  function buy() public payable returns (bool) {\n    return true;\n  }\n\n  function release() public onlyCreator {\n    (bool success, ) = payable(creator).call{ value: address(this).balance }(\"\");\n    require(success, \"failed_to_release\");\n  }\n\n  function releaseTo(address to) public onlyCreator {\n    (bool success, ) = payable(to).call{ value: address(this).balance }(\"\");\n    require(success, \"failed_to_release\");\n  }\n\n  constructor(\n    uint256 _supply,\n    uint256 _spaceCapacityInBytes,\n    uint256 _accessPriceInWei,\n    bool _purchasable,\n    address _creator\n  ) {\n    supply = _supply;\n    spaceCapacityInBytes = _spaceCapacityInBytes;\n    accessPriceInWei = _accessPriceInWei;\n    purchasable = _purchasable;\n\n    creator = _creator;\n  }\n\n  function setAccessPriceInWei(uint256 _accessPriceInWei) public onlyCreator {\n    accessPriceInWei = _accessPriceInWei;\n  }\n\n  function setPurchasable(bool _purchasable) public onlyCreator {\n    purchasable = _purchasable;\n  }\n\n  function _addSpaceCapacityInBytes(\n    uint256 additionalSpaceCapacityInBytes\n  ) public onlyOwner {\n    spaceCapacityInBytes = spaceCapacityInBytes + additionalSpaceCapacityInBytes;\n  }\n}\n",
  "sourcePath": "/Users/hhff/dev/aqueous-varnish/contracts/contracts/AQVSSpace.sol",
  "compiler": {
    "name": "solc",
    "version": "0.7.6+commit.7338295f.Emscripten.clang"
  },
  "schemaVersion": "3.3.3",
  "updatedAt": "2021-08-15T21:55:04.164Z",
  "devdoc": {
    "kind": "dev",
    "methods": {
      "owner()": {
        "details": "Returns the address of the current owner."
      },
      "renounceOwnership()": {
        "details": "Leaves the contract without owner. It will not be possible to call `onlyOwner` functions anymore. Can only be called by the current owner. NOTE: Renouncing ownership will leave the contract without an owner, thereby removing any functionality that is only available to the owner."
      },
      "transferOwnership(address)": {
        "details": "Transfers ownership of the contract to a new account (`newOwner`). Can only be called by the current owner."
      }
    },
    "version": 1
  },
  "userdoc": {
    "kind": "user",
    "methods": {},
    "version": 1
  }
}