{
  "contractName": "AQVSController",
  "abi": [
    {
      "anonymous": false,
      "inputs": [
        {
          "indexed": false,
          "internalType": "address",
          "name": "spaceAddress",
          "type": "address"
        }
      ],
      "name": "DidAccessSpace",
      "type": "event"
    },
    {
      "anonymous": false,
      "inputs": [
        {
          "indexed": false,
          "internalType": "address",
          "name": "spaceAddress",
          "type": "address"
        }
      ],
      "name": "DidGiftSpaceAccess",
      "type": "event"
    },
    {
      "anonymous": false,
      "inputs": [
        {
          "indexed": false,
          "internalType": "address",
          "name": "spaceAddress",
          "type": "address"
        }
      ],
      "name": "DidMintSpace",
      "type": "event"
    },
    {
      "anonymous": false,
      "inputs": [
        {
          "indexed": true,
          "internalType": "address",
          "name": "previousOwner",
          "type": "address"
        },
        {
          "indexed": true,
          "internalType": "address",
          "name": "newOwner",
          "type": "address"
        }
      ],
      "name": "OwnershipTransferred",
      "type": "event"
    },
    {
      "inputs": [],
      "name": "network",
      "outputs": [
        {
          "internalType": "string",
          "name": "",
          "type": "string"
        }
      ],
      "stateMutability": "view",
      "type": "function"
    },
    {
      "inputs": [],
      "name": "owner",
      "outputs": [
        {
          "internalType": "address",
          "name": "",
          "type": "address"
        }
      ],
      "stateMutability": "view",
      "type": "function"
    },
    {
      "inputs": [],
      "name": "proxy",
      "outputs": [
        {
          "internalType": "string",
          "name": "",
          "type": "string"
        }
      ],
      "stateMutability": "view",
      "type": "function"
    },
    {
      "inputs": [],
      "name": "renounceOwnership",
      "outputs": [],
      "stateMutability": "nonpayable",
      "type": "function"
    },
    {
      "inputs": [
        {
          "internalType": "address",
          "name": "",
          "type": "address"
        },
        {
          "internalType": "uint256",
          "name": "",
          "type": "uint256"
        }
      ],
      "name": "spacesByAccessor",
      "outputs": [
        {
          "internalType": "address",
          "name": "",
          "type": "address"
        }
      ],
      "stateMutability": "view",
      "type": "function"
    },
    {
      "inputs": [
        {
          "internalType": "address",
          "name": "",
          "type": "address"
        },
        {
          "internalType": "uint256",
          "name": "",
          "type": "uint256"
        }
      ],
      "name": "spacesByCreator",
      "outputs": [
        {
          "internalType": "address",
          "name": "",
          "type": "address"
        }
      ],
      "stateMutability": "view",
      "type": "function"
    },
    {
      "inputs": [
        {
          "internalType": "address",
          "name": "newOwner",
          "type": "address"
        }
      ],
      "name": "transferOwnership",
      "outputs": [],
      "stateMutability": "nonpayable",
      "type": "function"
    },
    {
      "inputs": [],
      "name": "weiCostPerStorageByte",
      "outputs": [
        {
          "internalType": "uint256",
          "name": "",
          "type": "uint256"
        }
      ],
      "stateMutability": "view",
      "type": "function"
    },
    {
      "inputs": [
        {
          "internalType": "string",
          "name": "_network",
          "type": "string"
        }
      ],
      "name": "init",
      "outputs": [],
      "stateMutability": "nonpayable",
      "type": "function"
    },
    {
      "inputs": [],
      "name": "release",
      "outputs": [],
      "stateMutability": "nonpayable",
      "type": "function"
    },
    {
      "inputs": [
        {
          "internalType": "address",
          "name": "to",
          "type": "address"
        }
      ],
      "name": "releaseTo",
      "outputs": [],
      "stateMutability": "nonpayable",
      "type": "function"
    },
    {
      "inputs": [
        {
          "internalType": "uint256",
          "name": "_weiCostPerStorageByte",
          "type": "uint256"
        }
      ],
      "name": "setWeiCostPerStorageByte",
      "outputs": [],
      "stateMutability": "nonpayable",
      "type": "function"
    },
    {
      "inputs": [
        {
          "internalType": "uint256",
          "name": "supply",
          "type": "uint256"
        },
        {
          "internalType": "uint256",
          "name": "spaceCapacityInBytes",
          "type": "uint256"
        },
        {
          "internalType": "uint256",
          "name": "accessPriceInWei",
          "type": "uint256"
        },
        {
          "internalType": "bool",
          "name": "purchasable",
          "type": "bool"
        }
      ],
      "name": "mintSpace",
      "outputs": [],
      "stateMutability": "payable",
      "type": "function"
    },
    {
      "inputs": [
        {
          "internalType": "address",
          "name": "spaceAddress",
          "type": "address"
        }
      ],
      "name": "accessSpace",
      "outputs": [],
      "stateMutability": "payable",
      "type": "function"
    },
    {
      "inputs": [
        {
          "internalType": "address",
          "name": "spaceAddress",
          "type": "address"
        },
        {
          "internalType": "uint256",
          "name": "additionalSpaceCapacityInBytes",
          "type": "uint256"
        }
      ],
      "name": "addSpaceCapacityInBytes",
      "outputs": [
        {
          "internalType": "bool",
          "name": "",
          "type": "bool"
        }
      ],
      "stateMutability": "payable",
      "type": "function"
    },
    {
      "inputs": [
        {
          "internalType": "address",
          "name": "spaceAddress",
          "type": "address"
        },
        {
          "internalType": "address",
          "name": "giftee",
          "type": "address"
        }
      ],
      "name": "giftSpaceAccess",
      "outputs": [
        {
          "internalType": "bool",
          "name": "",
          "type": "bool"
        }
      ],
      "stateMutability": "nonpayable",
      "type": "function"
    },
    {
      "inputs": [
        {
          "internalType": "uint256",
          "name": "supply",
          "type": "uint256"
        },
        {
          "internalType": "uint256",
          "name": "spaceCapacityInBytes",
          "type": "uint256"
        },
        {
          "internalType": "uint256",
          "name": "accessPriceInWei",
          "type": "uint256"
        }
      ],
      "name": "estimateSpaceFees",
      "outputs": [
        {
          "internalType": "uint256",
          "name": "",
          "type": "uint256"
        }
      ],
      "stateMutability": "view",
      "type": "function"
    },
    {
      "inputs": [
        {
          "internalType": "address",
          "name": "spaceAddress",
          "type": "address"
        }
      ],
      "name": "remainingSupply",
      "outputs": [
        {
          "internalType": "uint256",
          "name": "",
          "type": "uint256"
        }
      ],
      "stateMutability": "view",
      "type": "function"
    },
    {
      "inputs": [
        {
          "internalType": "address",
          "name": "spaceAddress",
          "type": "address"
        }
      ],
      "name": "spaceFees",
      "outputs": [
        {
          "internalType": "uint256",
          "name": "",
          "type": "uint256"
        }
      ],
      "stateMutability": "view",
      "type": "function"
    },
    {
      "inputs": [
        {
          "internalType": "uint256",
          "name": "spaceCapacityInBytes",
          "type": "uint256"
        }
      ],
      "name": "weiCostToMintSpace",
      "outputs": [
        {
          "internalType": "uint256",
          "name": "",
          "type": "uint256"
        }
      ],
      "stateMutability": "view",
      "type": "function"
    },
    {
      "inputs": [
        {
          "internalType": "address",
          "name": "creator",
          "type": "address"
        }
      ],
      "name": "spacesCreatedBy",
      "outputs": [
        {
          "internalType": "address[]",
          "name": "",
          "type": "address[]"
        }
      ],
      "stateMutability": "view",
      "type": "function"
    },
    {
      "inputs": [
        {
          "internalType": "address",
          "name": "owner",
          "type": "address"
        }
      ],
      "name": "spacesOwnedBy",
      "outputs": [
        {
          "internalType": "address[]",
          "name": "",
          "type": "address[]"
        }
      ],
      "stateMutability": "view",
      "type": "function"
    }
  ],
  "bytecode": "0x608060405234801561001057600080fd5b5061539b806100206000396000f3fe608060405260043610620001525760003560e01c80638e9084fe11620000bb578063d1fb56461162000079578063d1fb56461462000392578063ec55688914620003b7578063f2fde38b14620003cf578063f9fbdb9e14620003f4578063fea631251462000419578063ff0decb4146200043e5762000152565b80638e9084fe14620002d95780639639fedc14620002fe578063a8b0668d1462000323578063c2cd39cf1462000348578063cec76bf5146200036d5762000152565b80635da9d8f711620001155780635da9d8f7146200021f5780636739afca1462000236578063715018a6146200025d57806375c3e435146200027557806386d1a69f146200029a5780638da5cb5b14620002b25762000152565b80630a3cfd7e14620001575780631da6dcdf14620001945780633fb555d014620001bb57806349a4625b14620001e05780635afff11d14620001f9575b600080fd5b3480156200016457600080fd5b506200017c6200017636600462001e15565b62000463565b6040516200018b91906200207d565b60405180910390f35b348015620001a157600080fd5b50620001ac620004db565b6040516200018b919062002438565b348015620001c857600080fd5b506200017c620001da36600462001e15565b620004e1565b620001f7620001f136600462001fd6565b62000557565b005b620002106200020a36600462001e90565b620006a5565b6040516200018b9190620020cc565b620001f76200023036600462001e15565b6200089f565b3480156200024357600080fd5b506200024e62000cbe565b6040516200018b9190620020d7565b3480156200026a57600080fd5b50620001f762000d50565b3480156200028257600080fd5b50620001ac6200029436600462001f78565b62000e02565b348015620002a757600080fd5b50620001f762000e09565b348015620002bf57600080fd5b50620002ca62000f00565b6040516200018b919062002069565b348015620002e657600080fd5b5062000210620002f836600462001e53565b62000f0f565b3480156200030b57600080fd5b50620001f76200031d36600462001f78565b620011f8565b3480156200033057600080fd5b50620001ac6200034236600462001faa565b62001265565b3480156200035557600080fd5b50620002ca6200036736600462001e90565b62001316565b3480156200037a57600080fd5b50620002ca6200038c36600462001e90565b6200134f565b3480156200039f57600080fd5b50620001f7620003b136600462001e15565b6200136c565b348015620003c457600080fd5b506200024e6200145b565b348015620003dc57600080fd5b50620001f7620003ee36600462001e15565b620014b9565b3480156200040157600080fd5b50620001f76200041336600462001edd565b620015c4565b3480156200042657600080fd5b50620001ac6200043836600462001e15565b620016d0565b3480156200044b57600080fd5b50620001ac6200045d36600462001e15565b620017fc565b6001600160a01b038116600090815260686020908152604091829020805483518184028101840190945280845260609392830182828015620004cf57602002820191906000526020600020905b81546001600160a01b03168152600190910190602001808311620004b0575b50505050509050919050565b60675481565b6001600160a01b038116600090815260696020908152604091829020805483518184028101840190945280845260609392830182828015620004cf576020028201919060005260206000209081546001600160a01b03168152600190910190602001808311620004b05750505050509050919050565b620005628362000e02565b3410156200058d5760405162461bcd60e51b81526004016200058490620023bf565b60405180910390fd5b6200059a84848462001265565b821015620005bc5760405162461bcd60e51b8152600401620005849062002184565b6000620005c862001a0f565b905084848484846066604051620005df9062001d5b565b620005f096959493929190620021ab565b604051809103906000f08015620006045760015b620006235760405162461bcd60e51b8152600401620005849062002159565b6001600160a01b0382811660009081526068602090815260408083208054600181018255908452919092200180546001600160a01b03191692841692909217909155517f361716384e44906ccf6968060313d97fd791137ac9589eaddcc91ba29170b1fc906200069590839062002069565b60405180910390a1505050505050565b60008083905060006001600160a01b0316816001600160a01b03166302d05d3f6040518163ffffffff1660e01b815260040160206040518083038186803b158015620006f057600080fd5b505afa15801562000705573d6000803e3d6000fd5b505050506040513d601f19601f820116820180604052508101906200072b919062001e34565b6001600160a01b03161415620007555760405162461bcd60e51b815260040162000584906200233a565b6200075f62001a0f565b6001600160a01b0316816001600160a01b03166302d05d3f6040518163ffffffff1660e01b815260040160206040518083038186803b158015620007a257600080fd5b505afa158015620007b7573d6000803e3d6000fd5b505050506040513d601f19601f82011682018060405250810190620007dd919062001e34565b6001600160a01b031614620008065760405162461bcd60e51b815260040162000584906200210c565b34620008128462000e02565b1015620008335760405162461bcd60e51b81526004016200058490620023bf565b6040516375c6872760e11b81526001600160a01b0382169063eb8d0e4e906200086190869060040162002438565b600060405180830381600087803b1580156200087c57600080fd5b505af115801562000891573d6000803e3d6000fd5b506001979650505050505050565b600081905060006001600160a01b0316816001600160a01b03166302d05d3f6040518163ffffffff1660e01b815260040160206040518083038186803b158015620008e957600080fd5b505afa158015620008fe573d6000803e3d6000fd5b505050506040513d601f19601f8201168201806040525081019062000924919062001e34565b6001600160a01b031614156200094e5760405162461bcd60e51b815260040162000584906200233a565b806001600160a01b0316637fdc13126040518163ffffffff1660e01b815260040160206040518083038186803b1580156200098857600080fd5b505afa1580156200099d573d6000803e3d6000fd5b505050506040513d601f19601f82011682018060405250810190620009c3919062001f91565b341015620009e55760405162461bcd60e51b81526004016200058490620023bf565b806001600160a01b0316633f3d83c36040518163ffffffff1660e01b815260040160206040518083038186803b15801562000a1f57600080fd5b505afa15801562000a34573d6000803e3d6000fd5b505050506040513d601f19601f8201168201806040525081019062000a5a919062001ebe565b151560011462000a7e5760405162461bcd60e51b81526004016200058490620022c0565b600062000a8a62001a0f565b6040516370a0823160e01b81529091506001600160a01b038316906370a082319062000abb90849060040162002069565b60206040518083038186803b15801562000ad457600080fd5b505afa15801562000ae9573d6000803e3d6000fd5b505050506040513d601f19601f8201168201806040525081019062000b0f919062001f91565b1562000b2f5760405162461bcd60e51b8152600401620005849062002364565b60405163dbadc7ef60e01b81526001600160a01b0383169063dbadc7ef9062000b5d90849060040162002069565b600060405180830381600087803b15801562000b7857600080fd5b505af115801562000b8d573d6000803e3d6000fd5b50505050600062000b9e84620017fc565b9050600062000bae348362001a13565b90506000846001600160a01b0316631b9265b8836040518263ffffffff1660e01b81526004016020604051808303818588803b15801562000bee57600080fd5b505af115801562000c03573d6000803e3d6000fd5b50505050506040513d601f19601f8201168201806040525081019062000c2a919062001ebe565b90508062000c4c5760405162461bcd60e51b8152600401620005849062002390565b6001600160a01b0384811660009081526069602090815260408083208054600181018255908452919092200180546001600160a01b03191692881692909217909155517fda80622db97961e968f66dcdab623758cccad8bdcdb4602a50bc07f07e1299a0906200069590879062002069565b6065805460408051602060026001851615610100026000190190941693909304601f8101849004840282018401909252818152929183018282801562000d485780601f1062000d1c5761010080835404028352916020019162000d48565b820191906000526020600020905b81548152906001019060200180831162000d2a57829003601f168201915b505050505081565b62000d5a62001a0f565b6001600160a01b031662000d6d62000f00565b6001600160a01b03161462000db8576040805162461bcd60e51b8152602060048201819052602482015260008051602062005346833981519152604482015290519081900360640190fd5b6033546040516000916001600160a01b0316907f8be0079c531659141344cd1fd0a4f28419497f9722a3daafe3b4186f6b6457e0908390a3603380546001600160a01b0319169055565b6067540290565b62000e1362001a0f565b6001600160a01b031662000e2662000f00565b6001600160a01b03161462000e71576040805162461bcd60e51b8152602060048201819052602482015260008051602062005346833981519152604482015290519081900360640190fd5b600062000e7d62000f00565b6001600160a01b03164760405162000e959062002066565b60006040518083038185875af1925050503d806000811462000ed4576040519150601f19603f3d011682016040523d82523d6000602084013e62000ed9565b606091505b505090508062000efd5760405162461bcd60e51b815260040162000584906200240d565b50565b6033546001600160a01b031690565b60008083905060006001600160a01b0316816001600160a01b03166302d05d3f6040518163ffffffff1660e01b815260040160206040518083038186803b15801562000f5a57600080fd5b505afa15801562000f6f573d6000803e3d6000fd5b505050506040513d601f19601f8201168201806040525081019062000f95919062001e34565b6001600160a01b0316141562000fbf5760405162461bcd60e51b815260040162000584906200233a565b62000fc962001a0f565b6001600160a01b0316816001600160a01b03166302d05d3f6040518163ffffffff1660e01b815260040160206040518083038186803b1580156200100c57600080fd5b505afa15801562001021573d6000803e3d6000fd5b505050506040513d601f19601f8201168201806040525081019062001047919062001e34565b6001600160a01b031614620010705760405162461bcd60e51b815260040162000584906200210c565b6040516370a0823160e01b81526001600160a01b038216906370a08231906200109e90869060040162002069565b60206040518083038186803b158015620010b757600080fd5b505afa158015620010cc573d6000803e3d6000fd5b505050506040513d601f19601f82011682018060405250810190620010f2919062001f91565b15620011125760405162461bcd60e51b8152600401620005849062002364565b60405163dbadc7ef60e01b81526001600160a01b0382169063dbadc7ef906200114090869060040162002069565b600060405180830381600087803b1580156200115b57600080fd5b505af115801562001170573d6000803e3d6000fd5b505050506001600160a01b0383811660009081526069602090815260408083208054600181018255908452919092200180546001600160a01b03191692841692909217909155517f0d5a31972720f7e8a358a07c41fcef7400d2994b0b48faa2f0a9d3935c19ac0990620011e690839062002069565b60405180910390a15060019392505050565b6200120262001a0f565b6001600160a01b03166200121562000f00565b6001600160a01b03161462001260576040805162461bcd60e51b8152602060048201819052602482015260008051602062005346833981519152604482015290519081900360640190fd5b606755565b6000808411620012895760405162461bcd60e51b8152600401620005849062002312565b620f42408410620012ae5760405162461bcd60e51b81526004016200058490620022e9565b6203e7ff8311620012d35760405162461bcd60e51b81526004016200058490620023e4565b64174876e8018310620012fa5760405162461bcd60e51b8152600401620005849062002132565b6200130782606462001a71565b60675484020190509392505050565b606860205281600052604060002081815481106200133357600080fd5b6000918252602090912001546001600160a01b03169150829050565b606960205281600052604060002081815481106200133357600080fd5b6200137662001a0f565b6001600160a01b03166200138962000f00565b6001600160a01b031614620013d4576040805162461bcd60e51b8152602060048201819052602482015260008051602062005346833981519152604482015290519081900360640190fd5b6000816001600160a01b031647604051620013ef9062002066565b60006040518083038185875af1925050503d80600081146200142e576040519150601f19603f3d011682016040523d82523d6000602084013e62001433565b606091505b5050905080620014575760405162461bcd60e51b815260040162000584906200240d565b5050565b6066805460408051602060026001851615610100026000190190941693909304601f8101849004840282018401909252818152929183018282801562000d485780601f1062000d1c5761010080835404028352916020019162000d48565b620014c362001a0f565b6001600160a01b0316620014d662000f00565b6001600160a01b03161462001521576040805162461bcd60e51b8152602060048201819052602482015260008051602062005346833981519152604482015290519081900360640190fd5b6001600160a01b038116620015685760405162461bcd60e51b8152600401808060200182810382526026815260200180620052f26026913960400191505060405180910390fd5b6033546040516001600160a01b038084169216907f8be0079c531659141344cd1fd0a4f28419497f9722a3daafe3b4186f6b6457e090600090a3603380546001600160a01b0319166001600160a01b0392909216919091179055565b600054610100900460ff1680620015e05750620015e062001ada565b80620015ef575060005460ff16155b6200162c5760405162461bcd60e51b815260040180806020018281038252602e81526020018062005318602e913960400191505060405180910390fd5b600054610100900460ff1615801562001658576000805460ff1961ff0019909116610100171660011790555b6200166262001aed565b81516200167790606590602085019062001d69565b50816040516020016200168b919062002019565b60405160208183030381529060405260669080519060200190620016b192919062001d69565b50637d2b7500606755801562001457576000805461ff00191690555050565b60008082905060006001600160a01b0316816001600160a01b03166302d05d3f6040518163ffffffff1660e01b815260040160206040518083038186803b1580156200171b57600080fd5b505afa15801562001730573d6000803e3d6000fd5b505050506040513d601f19601f8201168201806040525081019062001756919062001e34565b6001600160a01b03161415620017805760405162461bcd60e51b815260040162000584906200233a565b806001600160a01b031663da0239a66040518163ffffffff1660e01b815260040160206040518083038186803b158015620017ba57600080fd5b505afa158015620017cf573d6000803e3d6000fd5b505050506040513d601f19601f82011682018060405250810190620017f5919062001f91565b9392505050565b60008082905060006001600160a01b0316816001600160a01b03166302d05d3f6040518163ffffffff1660e01b815260040160206040518083038186803b1580156200184757600080fd5b505afa1580156200185c573d6000803e3d6000fd5b505050506040513d601f19601f8201168201806040525081019062001882919062001e34565b6001600160a01b03161415620018ac5760405162461bcd60e51b815260040162000584906200233a565b620017f5816001600160a01b031663047fc9aa6040518163ffffffff1660e01b815260040160206040518083038186803b158015620018ea57600080fd5b505afa158015620018ff573d6000803e3d6000fd5b505050506040513d601f19601f8201168201806040525081019062001925919062001f91565b826001600160a01b0316637aa039b86040518163ffffffff1660e01b815260040160206040518083038186803b1580156200195f57600080fd5b505afa15801562001974573d6000803e3d6000fd5b505050506040513d601f19601f820116820180604052508101906200199a919062001f91565b836001600160a01b0316637fdc13126040518163ffffffff1660e01b815260040160206040518083038186803b158015620019d457600080fd5b505afa158015620019e9573d6000803e3d6000fd5b505050506040513d601f19601f8201168201806040525081019062000342919062001f91565b3390565b60008282111562001a6b576040805162461bcd60e51b815260206004820152601e60248201527f536166654d6174683a207375627472616374696f6e206f766572666c6f770000604482015290519081900360640190fd5b50900390565b600080821162001ac8576040805162461bcd60e51b815260206004820152601a60248201527f536166654d6174683a206469766973696f6e206279207a65726f000000000000604482015290519081900360640190fd5b81838162001ad257fe5b049392505050565b600062001ae73062001baa565b15905090565b600054610100900460ff168062001b09575062001b0962001ada565b8062001b18575060005460ff16155b62001b555760405162461bcd60e51b815260040180806020018281038252602e81526020018062005318602e913960400191505060405180910390fd5b600054610100900460ff1615801562001b81576000805460ff1961ff0019909116610100171660011790555b62001b8b62001bb0565b62001b9562001c58565b801562000efd576000805461ff001916905550565b3b151590565b600054610100900460ff168062001bcc575062001bcc62001ada565b8062001bdb575060005460ff16155b62001c185760405162461bcd60e51b815260040180806020018281038252602e81526020018062005318602e913960400191505060405180910390fd5b600054610100900460ff1615801562001b95576000805460ff1961ff001990911661010017166001179055801562000efd576000805461ff001916905550565b600054610100900460ff168062001c74575062001c7462001ada565b8062001c83575060005460ff16155b62001cc05760405162461bcd60e51b815260040180806020018281038252602e81526020018062005318602e913960400191505060405180910390fd5b600054610100900460ff1615801562001cec576000805460ff1961ff0019909116610100171660011790555b600062001cf862001a0f565b603380546001600160a01b0319166001600160a01b038316908117909155604051919250906000907f8be0079c531659141344cd1fd0a4f28419497f9722a3daafe3b4186f6b6457e0908290a350801562000efd576000805461ff001916905550565b612e4c80620024a683390190565b828054600181600116156101000203166002900490600052602060002090601f01602090048101928262001da1576000855562001dec565b82601f1062001dbc57805160ff191683800117855562001dec565b8280016001018555821562001dec579182015b8281111562001dec57825182559160200191906001019062001dcf565b5062001dfa92915062001dfe565b5090565b5b8082111562001dfa576000815560010162001dff565b60006020828403121562001e27578081fd5b8135620017f58162002480565b60006020828403121562001e46578081fd5b8151620017f58162002480565b6000806040838503121562001e66578081fd5b823562001e738162002480565b9150602083013562001e858162002480565b809150509250929050565b6000806040838503121562001ea3578182fd5b823562001eb08162002480565b946020939093013593505050565b60006020828403121562001ed0578081fd5b8151620017f58162002496565b6000602080838503121562001ef0578182fd5b823567ffffffffffffffff8082111562001f08578384fd5b818501915085601f83011262001f1c578384fd5b81358181111562001f2957fe5b604051601f8201601f191681018501838111828210171562001f4757fe5b604052818152838201850188101562001f5e578586fd5b818585018683013790810190930193909352509392505050565b60006020828403121562001f8a578081fd5b5035919050565b60006020828403121562001fa3578081fd5b5051919050565b60008060006060848603121562001fbf578081fd5b505081359360208301359350604090920135919050565b6000806000806080858703121562001fec578081fd5b84359350602085013592506040850135915060608501356200200e8162002496565b939692955090935050565b60006768747470733a2f2f60c01b825282516200203e8160088501602087016200244d565b702e617175656f75737661726e692e73682f60781b6008939091019283015250601901919050565b90565b6001600160a01b0391909116815260200190565b6020808252825182820181905260009190848201906040850190845b81811015620020c05783516001600160a01b03168352928401929184019160010162002099565b50909695505050505050565b901515815260200190565b6000602082528251806020840152620020f88160408501602087016200244d565b601f01601f19169190910160400192915050565b6020808252600c908201526b37b7363cafb1b932b0ba37b960a11b604082015260600190565b6020808252600d908201526c73706163655f746f6f5f62696760981b604082015260600190565b6020808252601190820152701b585ad957dcdc1858d957d9985a5b1959607a1b604082015260600190565b6020808252600d908201526c70726963655f746f6f5f6c6f7760981b604082015260600190565b60006101008083526012818401525071417175656f7573205661726e69736820563160701b6101208301526101406020818185015260078285015266415156532d563160c81b61016085015261018091508184018a604086015289606086015288608086015287151560a086015260018060a01b03871660c08601528260e086015283925085546001808216600081146200224f57600181146200227057620022ae565b60028304607f16845260ff1983166101a08901526101c088019550620022ae565b60028304808552620022828a62002441565b885b82811015620022a35781548b82016101a0015290840190870162002284565b8a016101a001975050505b50939c9b505050505050505050505050565b6020808252600f908201526e6e6f745f7075726368617361626c6560881b604082015260600190565b6020808252600f908201526e0e6eae0e0d8f2bee8dedebed0d2ced608b1b604082015260600190565b6020808252600e908201526d737570706c795f746f6f5f6c6f7760901b604082015260600190565b60208082526010908201526f1cdc1858d957db5d5cdd17d95e1a5cdd60821b604082015260600190565b602080825260129082015271616c72656164795f6f776e735f737061636560701b604082015260600190565b6020808252601590820152743330b4b632b22fba37afb830bcafb1b932b0ba37b960591b604082015260600190565b6020808252600b908201526a18985917dc185e5b595b9d60aa1b604082015260600190565b6020808252600f908201526e1cdc1858d957dd1bdbd7dcdb585b1b608a1b604082015260600190565b6020808252601190820152706661696c65645f746f5f72656c6561736560781b604082015260600190565b90815260200190565b60009081526020902090565b60005b838110156200246a57818101518382015260200162002450565b838111156200247a576000848401525b50505050565b6001600160a01b038116811462000efd57600080fd5b801515811462000efd57600080fdfe60806040523480156200001157600080fd5b5060405162002e4c38038062002e4c83398101604081905262000034916200050c565b878760006200004262000190565b600080546001600160a01b0319166001600160a01b0383169081178255604051929350917f8be0079c531659141344cd1fd0a4f28419497f9722a3daafe3b4186f6b6457e0908290a3506200009e6301ffc9a760e01b62000194565b8151620000b3906007906020850190620003be565b508051620000c9906008906020840190620003be565b50620000dc6380ac58cd60e01b62000194565b620000ee635b5e139f60e01b62000194565b6200010063780e9d6360e01b62000194565b5050600b869055600c859055600d849055600e805460ff60a01b1916600160a01b85151502176001600160a01b0319166001600160a01b038416179055620001828162000159306200021c602090811b6200134217901c565b6040516020016200016c929190620005dc565b60408051601f19818403018152919052620003a5565b50505050505050506200066b565b3390565b6001600160e01b03198082161415620001f4576040805162461bcd60e51b815260206004820152601c60248201527f4552433136353a20696e76616c696420696e7465726661636520696400000000604482015290519081900360640190fd5b6001600160e01b0319166000908152600160208190526040909120805460ff19169091179055565b604080518082018252601081526f181899199a1a9b1b9c1cb0b131b232b360811b60208201528151602a80825260608281019094526001600160a01b0385169291600091602082018180368337019050509050600360fc1b816000815181106200028257fe5b60200101906001600160f81b031916908160001a905350600f60fb1b81600181518110620002ac57fe5b60200101906001600160f81b031916908160001a90535060005b60148110156200039a578260048583600c0160208110620002e357fe5b1a60f81b6001600160f81b031916901c60f81c60ff16815181106200030457fe5b602001015160f81c60f81b8282600202600201815181106200032257fe5b60200101906001600160f81b031916908160001a905350828482600c01602081106200034a57fe5b825191901a600f169081106200035c57fe5b602001015160f81c60f81b8282600202600301815181106200037a57fe5b60200101906001600160f81b031916908160001a905350600101620002c6565b50925050505b919050565b8051620003ba90600a906020840190620003be565b5050565b828054600181600116156101000203166002900490600052602060002090601f016020900481019282620003f6576000855562000441565b82601f106200041157805160ff191683800117855562000441565b8280016001018555821562000441579182015b828111156200044157825182559160200191906001019062000424565b506200044f92915062000453565b5090565b5b808211156200044f576000815560010162000454565b80516001600160a01b0381168114620003a057600080fd5b80518015158114620003a057600080fd5b600082601f830112620004a4578081fd5b81516001600160401b0380821115620004b957fe5b604051601f8301601f191681016020018281118282101715620004d857fe5b604052828152848301602001861015620004f0578384fd5b6200050383602083016020880162000638565b95945050505050565b600080600080600080600080610100898b03121562000529578384fd5b88516001600160401b038082111562000540578586fd5b6200054e8c838d0162000493565b995060208b015191508082111562000564578586fd5b620005728c838d0162000493565b985060408b0151975060608b0151965060808b015195506200059760a08c0162000482565b9450620005a760c08c016200046a565b935060e08b0151915080821115620005bd578283fd5b50620005cc8b828c0162000493565b9150509295985092959890939650565b60008351620005f081846020880162000638565b6e73706163652d6d657461646174612f60881b90830190815283516200061e81600f84016020880162000638565b602f60f81b600f9290910191820152601001949350505050565b60005b83811015620006555781810151838201526020016200063b565b8381111562000665576000848401525b50505050565b6127d1806200067b6000396000f3fe6080604052600436106101f95760003560e01c806370a082311161010d578063a22cb465116100a0578063da0239a61161006f578063da0239a614610536578063dbadc7ef1461054b578063e985e9c51461056b578063eb8d0e4e1461058b578063f2fde38b146105ab576101f9565b8063a22cb465146104b6578063b88d4fde146104d6578063c87b56dd146104f6578063d1fb564614610516576101f9565b80637fdc1312116100dc5780637fdc13121461046257806386d1a69f146104775780638da5cb5b1461048c57806395d89b41146104a1576101f9565b806370a08231146103f8578063715018a61461041857806376052df81461042d5780637aa039b81461044d576101f9565b806323b872dd116101905780634f6ccce71161015f5780634f6ccce71461036e57806354fd4d501461038e5780635a1498b0146103a35780636352211e146103c35780636c0360eb146103e3576101f9565b806323b872dd146102f95780632f745c59146103195780633f3d83c31461033957806342842e0e1461034e576101f9565b8063081812fc116101cc578063081812fc1461029a578063095ea7b3146102ba57806318160ddd146102dc5780631b9265b8146102f1576101f9565b806301ffc9a7146101fe57806302d05d3f14610234578063047fc9aa1461025657806306fdde0314610278575b600080fd5b34801561020a57600080fd5b5061021e6102193660046123ab565b6105cb565b60405161022b9190612402565b60405180910390f35b34801561024057600080fd5b506102496105ee565b60405161022b91906123ee565b34801561026257600080fd5b5061026b6105fd565b60405161022b91906124ff565b34801561028457600080fd5b5061028d610603565b60405161022b919061240d565b3480156102a657600080fd5b506102496102b53660046123d3565b610699565b3480156102c657600080fd5b506102da6102d5366004612368565b6106fb565b005b3480156102e857600080fd5b5061026b6107d1565b61021e6107e2565b34801561030557600080fd5b506102da610314366004612244565b6107e7565b34801561032557600080fd5b5061026b610334366004612368565b61083e565b34801561034557600080fd5b5061021e610869565b34801561035a57600080fd5b506102da610369366004612244565b610879565b34801561037a57600080fd5b5061026b6103893660046123d3565b610894565b34801561039a57600080fd5b5061028d6108aa565b3480156103af57600080fd5b506102da6103be3660046123d3565b6108c6565b3480156103cf57600080fd5b506102496103de3660046123d3565b610909565b3480156103ef57600080fd5b5061028d610931565b34801561040457600080fd5b5061026b6104133660046121f8565b610992565b34801561042457600080fd5b506102da6109fa565b34801561043957600080fd5b506102da610448366004612391565b610aa6565b34801561045957600080fd5b5061026b610af9565b34801561046e57600080fd5b5061026b610aff565b34801561048357600080fd5b506102da610b05565b34801561049857600080fd5b50610249610bbe565b3480156104ad57600080fd5b5061028d610bcd565b3480156104c257600080fd5b506102da6104d136600461233f565b610c2e565b3480156104e257600080fd5b506102da6104f136600461227f565b610d33565b34801561050257600080fd5b5061028d6105113660046123d3565b610d91565b34801561052257600080fd5b506102da6105313660046121f8565b611012565b34801561054257600080fd5b5061026b6110c7565b34801561055757600080fd5b506102da6105663660046121f8565b6110dc565b34801561057757600080fd5b5061021e610586366004612212565b6111a5565b34801561059757600080fd5b506102da6105a63660046123d3565b6111d3565b3480156105b757600080fd5b506102da6105c63660046121f8565b611240565b6001600160e01b0319811660009081526001602052604090205460ff165b919050565b600e546001600160a01b031681565b600b5481565b60078054604080516020601f600260001961010060018816150201909516949094049384018190048102820181019092528281526060939092909183018282801561068f5780601f106106645761010080835404028352916020019161068f565b820191906000526020600020905b81548152906001019060200180831161067257829003601f168201915b5050505050905090565b60006106a4826114bf565b6106df5760405162461bcd60e51b815260040180806020018281038252602c8152602001806126a6602c913960400191505060405180910390fd5b506000908152600560205260409020546001600160a01b031690565b600061070682610909565b9050806001600160a01b0316836001600160a01b031614156107595760405162461bcd60e51b815260040180806020018281038252602181526020018061274a6021913960400191505060405180910390fd5b806001600160a01b031661076b6114cc565b6001600160a01b031614806107875750610787816105866114cc565b6107c25760405162461bcd60e51b81526004018080602001828103825260388152602001806125f96038913960400191505060405180910390fd5b6107cc83836114d0565b505050565b60006107dd600361153e565b905090565b600190565b6107f86107f26114cc565b82611549565b6108335760405162461bcd60e51b815260040180806020018281038252603181526020018061276b6031913960400191505060405180910390fd5b6107cc8383836115ed565b6001600160a01b03821660009081526002602052604081206108609083611739565b90505b92915050565b600e54600160a01b900460ff1681565b6107cc83838360405180602001604052806000815250610d33565b6000806108a2600384611745565b509392505050565b604080518082019091526002815261563160f01b602082015290565b6108ce6114cc565b600e546001600160a01b039081169116146109045760405162461bcd60e51b81526004016108fb90612460565b60405180910390fd5b600d55565b60006108638260405180606001604052806029815260200161265b6029913960039190611761565b600a8054604080516020601f600260001961010060018816150201909516949094049384018190048102820181019092528281526060939092909183018282801561068f5780601f106106645761010080835404028352916020019161068f565b60006001600160a01b0382166109d95760405162461bcd60e51b815260040180806020018281038252602a815260200180612631602a913960400191505060405180910390fd5b6001600160a01b03821660009081526002602052604090206108639061153e565b610a026114cc565b6001600160a01b0316610a13610bbe565b6001600160a01b031614610a5c576040805162461bcd60e51b815260206004820181905260248201526000805160206126d2833981519152604482015290519081900360640190fd5b600080546040516001600160a01b03909116907f8be0079c531659141344cd1fd0a4f28419497f9722a3daafe3b4186f6b6457e0908390a3600080546001600160a01b0319169055565b610aae6114cc565b600e546001600160a01b03908116911614610adb5760405162461bcd60e51b81526004016108fb90612460565b600e8054911515600160a01b0260ff60a01b19909216919091179055565b600c5481565b600d5481565b610b0d6114cc565b600e546001600160a01b03908116911614610b3a5760405162461bcd60e51b81526004016108fb90612460565b600e546040516000916001600160a01b0316904790610b58906123eb565b60006040518083038185875af1925050503d8060008114610b95576040519150601f19603f3d011682016040523d82523d6000602084013e610b9a565b606091505b5050905080610bbb5760405162461bcd60e51b81526004016108fb906124d4565b50565b6000546001600160a01b031690565b60088054604080516020601f600260001961010060018816150201909516949094049384018190048102820181019092528281526060939092909183018282801561068f5780601f106106645761010080835404028352916020019161068f565b610c366114cc565b6001600160a01b0316826001600160a01b03161415610c9c576040805162461bcd60e51b815260206004820152601960248201527f4552433732313a20617070726f766520746f2063616c6c657200000000000000604482015290519081900360640190fd5b8060066000610ca96114cc565b6001600160a01b03908116825260208083019390935260409182016000908120918716808252919093529120805460ff191692151592909217909155610ced6114cc565b6001600160a01b03167f17307eab39ab6107e8899845ad3d59bd9653f200f220920489ca2b5937696c318360405180821515815260200191505060405180910390a35050565b610d44610d3e6114cc565b83611549565b610d7f5760405162461bcd60e51b815260040180806020018281038252603181526020018061276b6031913960400191505060405180910390fd5b610d8b84848484611778565b50505050565b6060610d9c826114bf565b610dd75760405162461bcd60e51b815260040180806020018281038252602f81526020018061271b602f913960400191505060405180910390fd5b60008281526009602090815260408083208054825160026001831615610100026000190190921691909104601f810185900485028201850190935282815292909190830182828015610e6a5780601f10610e3f57610100808354040283529160200191610e6a565b820191906000526020600020905b815481529060010190602001808311610e4d57829003601f168201915b505050505090506000610e7b610931565b9050805160001415610e8f575090506105e9565b815115610f505780826040516020018083805190602001908083835b60208310610eca5780518252601f199092019160209182019101610eab565b51815160209384036101000a600019018019909216911617905285519190930192850191508083835b60208310610f125780518252601f199092019160209182019101610ef3565b6001836020036101000a03801982511681845116808217855250505050505090500192505050604051602081830303815290604052925050506105e9565b80610f5a856117ca565b6040516020018083805190602001908083835b60208310610f8c5780518252601f199092019160209182019101610f6d565b51815160209384036101000a600019018019909216911617905285519190930192850191508083835b60208310610fd45780518252601f199092019160209182019101610fb5565b6001836020036101000a0380198251168184511680821785525050505050509050019250505060405160208183030381529060405292505050919050565b61101a6114cc565b600e546001600160a01b039081169116146110475760405162461bcd60e51b81526004016108fb90612460565b6000816001600160a01b031647604051611060906123eb565b60006040518083038185875af1925050503d806000811461109d576040519150601f19603f3d011682016040523d82523d6000602084013e6110a2565b606091505b50509050806110c35760405162461bcd60e51b81526004016108fb906124d4565b5050565b60006107dd600b546110d76107d1565b61189c565b6110e46114cc565b6001600160a01b03166110f5610bbe565b6001600160a01b03161461113e576040805162461bcd60e51b815260206004820181905260248201526000805160206126d2833981519152604482015290519081900360640190fd5b60006111486107d1565b9050600b54811061116b5760405162461bcd60e51b81526004016108fb906124b2565b61117482610992565b156111915760405162461bcd60e51b81526004016108fb90612486565b6110c3826111a08360016118f9565b611953565b6001600160a01b03918216600090815260066020908152604080832093909416825291909152205460ff1690565b6111db6114cc565b6001600160a01b03166111ec610bbe565b6001600160a01b031614611235576040805162461bcd60e51b815260206004820181905260248201526000805160206126d2833981519152604482015290519081900360640190fd5b600c80549091019055565b6112486114cc565b6001600160a01b0316611259610bbe565b6001600160a01b0316146112a2576040805162461bcd60e51b815260206004820181905260248201526000805160206126d2833981519152604482015290519081900360640190fd5b6001600160a01b0381166112e75760405162461bcd60e51b815260040180806020018281038252602681526020018061255d6026913960400191505060405180910390fd5b600080546040516001600160a01b03808516939216917f8be0079c531659141344cd1fd0a4f28419497f9722a3daafe3b4186f6b6457e091a3600080546001600160a01b0319166001600160a01b0392909216919091179055565b604080518082018252601081526f181899199a1a9b1b9c1cb0b131b232b360811b60208201528151602a80825260608281019094526001600160a01b0385169291600091602082018180368337019050509050600360fc1b816000815181106113a757fe5b60200101906001600160f81b031916908160001a905350600f60fb1b816001815181106113d057fe5b60200101906001600160f81b031916908160001a90535060005b60148110156114b6578260048583600c016020811061140557fe5b1a60f81b6001600160f81b031916901c60f81c60ff168151811061142557fe5b602001015160f81c60f81b82826002026002018151811061144257fe5b60200101906001600160f81b031916908160001a905350828482600c016020811061146957fe5b825191901a600f1690811061147a57fe5b602001015160f81c60f81b82826002026003018151811061149757fe5b60200101906001600160f81b031916908160001a9053506001016113ea565b50949350505050565b600061086360038361196d565b3390565b600081815260056020526040902080546001600160a01b0319166001600160a01b038416908117909155819061150582610909565b6001600160a01b03167f8c5be1e5ebec7d5bd14f71427d1e84f3dd0314c0f7b2291e5b200ac8c7c3b92560405160405180910390a45050565b600061086382611979565b6000611554826114bf565b61158f5760405162461bcd60e51b815260040180806020018281038252602c8152602001806125cd602c913960400191505060405180910390fd5b600061159a83610909565b9050806001600160a01b0316846001600160a01b031614806115d55750836001600160a01b03166115ca84610699565b6001600160a01b0316145b806115e557506115e581856111a5565b949350505050565b826001600160a01b031661160082610909565b6001600160a01b0316146116455760405162461bcd60e51b81526004018080602001828103825260298152602001806126f26029913960400191505060405180910390fd5b6001600160a01b03821661168a5760405162461bcd60e51b81526004018080602001828103825260248152602001806125836024913960400191505060405180910390fd5b6116958383836107cc565b6116a06000826114d0565b6001600160a01b03831660009081526002602052604090206116c2908261197d565b506001600160a01b03821660009081526002602052604090206116e59082611989565b506116f260038284611995565b5080826001600160a01b0316846001600160a01b03167fddf252ad1be2c89b69c2b068fc378daa952ba7f163c4a11628f55a4df523b3ef60405160405180910390a4505050565b600061086083836119ab565b60008080806117548686611a0f565b9097909650945050505050565b600061176e848484611a8a565b90505b9392505050565b6117838484846115ed565b61178f84848484611b54565b610d8b5760405162461bcd60e51b815260040180806020018281038252603281526020018061252b6032913960400191505060405180910390fd5b6060816117ef57506040805180820190915260018152600360fc1b60208201526105e9565b8160005b811561180757600101600a820491506117f3565b60008167ffffffffffffffff8111801561182057600080fd5b506040519080825280601f01601f19166020018201604052801561184b576020820181803683370190505b50859350905060001982015b83156114b657600a840660300160f81b8282806001900393508151811061187a57fe5b60200101906001600160f81b031916908160001a905350600a84049350611857565b6000828211156118f3576040805162461bcd60e51b815260206004820152601e60248201527f536166654d6174683a207375627472616374696f6e206f766572666c6f770000604482015290519081900360640190fd5b50900390565b600082820183811015610860576040805162461bcd60e51b815260206004820152601b60248201527f536166654d6174683a206164646974696f6e206f766572666c6f770000000000604482015290519081900360640190fd5b6110c3828260405180602001604052806000815250611cbc565b60006108608383611d0e565b5490565b60006108608383611d26565b60006108608383611dec565b600061176e84846001600160a01b038516611e36565b815460009082106119ed5760405162461bcd60e51b81526004018080602001828103825260228152602001806125096022913960400191505060405180910390fd5b8260000182815481106119fc57fe5b9060005260206000200154905092915050565b815460009081908310611a535760405162461bcd60e51b81526004018080602001828103825260228152602001806126846022913960400191505060405180910390fd5b6000846000018481548110611a6457fe5b906000526020600020906002020190508060000154816001015492509250509250929050565b60008281526001840160205260408120548281611b255760405162461bcd60e51b81526004018080602001828103825283818151815260200191508051906020019080838360005b83811015611aea578181015183820152602001611ad2565b50505050905090810190601f168015611b175780820380516001836020036101000a031916815260200191505b509250505060405180910390fd5b50846000016001820381548110611b3857fe5b9060005260206000209060020201600101549150509392505050565b6000611b68846001600160a01b0316611ecd565b611b74575060016115e5565b6000611c82630a85bd0160e11b611b896114cc565b88878760405160240180856001600160a01b03168152602001846001600160a01b0316815260200183815260200180602001828103825283818151815260200191508051906020019080838360005b83811015611bf0578181015183820152602001611bd8565b50505050905090810190601f168015611c1d5780820380516001836020036101000a031916815260200191505b5095505050505050604051602081830303815290604052906001600160e01b0319166020820180516001600160e01b03838183161783525050505060405180606001604052806032815260200161252b603291396001600160a01b0388169190611ed3565b90506000818060200190516020811015611c9b57600080fd5b50516001600160e01b031916630a85bd0160e11b1492505050949350505050565b611cc68383611ee2565b611cd36000848484611b54565b6107cc5760405162461bcd60e51b815260040180806020018281038252603281526020018061252b6032913960400191505060405180910390fd5b60009081526001919091016020526040902054151590565b60008181526001830160205260408120548015611de25783546000198083019190810190600090879083908110611d5957fe5b9060005260206000200154905080876000018481548110611d7657fe5b600091825260208083209091019290925582815260018981019092526040902090840190558654879080611da657fe5b60019003818190600052602060002001600090559055866001016000878152602001908152602001600020600090556001945050505050610863565b6000915050610863565b6000611df88383611d0e565b611e2e57508154600181810184556000848152602080822090930184905584548482528286019093526040902091909155610863565b506000610863565b600082815260018401602052604081205480611e9b575050604080518082018252838152602080820184815286546001818101895560008981528481209551600290930290950191825591519082015586548684528188019092529290912055611771565b82856000016001830381548110611eae57fe5b9060005260206000209060020201600101819055506000915050611771565b3b151590565b606061176e8484600085612010565b6001600160a01b038216611f3d576040805162461bcd60e51b815260206004820181905260248201527f4552433732313a206d696e7420746f20746865207a65726f2061646472657373604482015290519081900360640190fd5b611f46816114bf565b15611f98576040805162461bcd60e51b815260206004820152601c60248201527f4552433732313a20746f6b656e20616c7265616479206d696e74656400000000604482015290519081900360640190fd5b611fa4600083836107cc565b6001600160a01b0382166000908152600260205260409020611fc69082611989565b50611fd360038284611995565b5060405181906001600160a01b038416906000907fddf252ad1be2c89b69c2b068fc378daa952ba7f163c4a11628f55a4df523b3ef908290a45050565b6060824710156120515760405162461bcd60e51b81526004018080602001828103825260268152602001806125a76026913960400191505060405180910390fd5b61205a85611ecd565b6120ab576040805162461bcd60e51b815260206004820152601d60248201527f416464726573733a2063616c6c20746f206e6f6e2d636f6e7472616374000000604482015290519081900360640190fd5b600080866001600160a01b031685876040518082805190602001908083835b602083106120e95780518252601f1990920191602091820191016120ca565b6001836020036101000a03801982511681845116808217855250505050505090500191505060006040518083038185875af1925050503d806000811461214b576040519150601f19603f3d011682016040523d82523d6000602084013e612150565b606091505b509150915061216082828661216b565b979650505050505050565b6060831561217a575081611771565b82511561218a5782518084602001fd5b60405162461bcd60e51b8152602060048201818152845160248401528451859391928392604401919085019080838360008315611aea578181015183820152602001611ad2565b80356001600160a01b03811681146105e957600080fd5b803580151581146105e957600080fd5b600060208284031215612209578081fd5b610860826121d1565b60008060408385031215612224578081fd5b61222d836121d1565b915061223b602084016121d1565b90509250929050565b600080600060608486031215612258578081fd5b612261846121d1565b925061226f602085016121d1565b9150604084013590509250925092565b60008060008060808587031215612294578081fd5b61229d856121d1565b935060206122ac8187016121d1565b935060408601359250606086013567ffffffffffffffff808211156122cf578384fd5b818801915088601f8301126122e2578384fd5b8135818111156122ee57fe5b604051601f8201601f191681018501838111828210171561230b57fe5b60405281815283820185018b1015612321578586fd5b81858501868301379081019093019390935250939692955090935050565b60008060408385031215612351578182fd5b61235a836121d1565b915061223b602084016121e8565b6000806040838503121561237a578182fd5b612383836121d1565b946020939093013593505050565b6000602082840312156123a2578081fd5b610860826121e8565b6000602082840312156123bc578081fd5b81356001600160e01b031981168114610860578182fd5b6000602082840312156123e4578081fd5b5035919050565b90565b6001600160a01b0391909116815260200190565b901515815260200190565b6000602080835283518082850152825b818110156124395785810183015185820160400152820161241d565b8181111561244a5783604083870101525b50601f01601f1916929092016040019392505050565b6020808252600c908201526b37b7363cafb1b932b0ba37b960a11b604082015260600190565b602080825260129082015271616c72656164795f6f776e735f737061636560701b604082015260600190565b6020808252600890820152671cdbdb1917dbdd5d60c21b604082015260600190565b6020808252601190820152706661696c65645f746f5f72656c6561736560781b604082015260600190565b9081526020019056fe456e756d657261626c655365743a20696e646578206f7574206f6620626f756e64734552433732313a207472616e7366657220746f206e6f6e20455243373231526563656976657220696d706c656d656e7465724f776e61626c653a206e6577206f776e657220697320746865207a65726f20616464726573734552433732313a207472616e7366657220746f20746865207a65726f2061646472657373416464726573733a20696e73756666696369656e742062616c616e636520666f722063616c6c4552433732313a206f70657261746f7220717565727920666f72206e6f6e6578697374656e7420746f6b656e4552433732313a20617070726f76652063616c6c6572206973206e6f74206f776e6572206e6f7220617070726f76656420666f7220616c6c4552433732313a2062616c616e636520717565727920666f7220746865207a65726f20616464726573734552433732313a206f776e657220717565727920666f72206e6f6e6578697374656e7420746f6b656e456e756d657261626c654d61703a20696e646578206f7574206f6620626f756e64734552433732313a20617070726f76656420717565727920666f72206e6f6e6578697374656e7420746f6b656e4f776e61626c653a2063616c6c6572206973206e6f7420746865206f776e65724552433732313a207472616e73666572206f6620746f6b656e2074686174206973206e6f74206f776e4552433732314d657461646174613a2055524920717565727920666f72206e6f6e6578697374656e7420746f6b656e4552433732313a20617070726f76616c20746f2063757272656e74206f776e65724552433732313a207472616e736665722063616c6c6572206973206e6f74206f776e6572206e6f7220617070726f766564a2646970667358221220ecdbe1ef514eaa7e35be762cc1660eb0e95559b8c7cc1aa4c71a2f968ecfee1f64736f6c634300070600334f776e61626c653a206e6577206f776e657220697320746865207a65726f2061646472657373496e697469616c697a61626c653a20636f6e747261637420697320616c726561647920696e697469616c697a65644f776e61626c653a2063616c6c6572206973206e6f7420746865206f776e6572a2646970667358221220bbbd3ed9b977df8c6d86142a6e997667208d214004a194e55f187246237e1be664736f6c63430007060033",
  "immutableReferences": {},
  "source": "// SPDX-License-Identifier: MIT\n\npragma solidity ^0.7.6;\npragma abicoder v2;\n\nimport \"@openzeppelin/contracts-upgradeable/access/OwnableUpgradeable.sol\";\nimport \"@openzeppelin/contracts/math/SafeMath.sol\";\nimport \"./AQVSSpaceV1.sol\";\n\ncontract AQVSController is OwnableUpgradeable {\n  using SafeMath for uint256;\n\n  event DidMintSpace(address spaceAddress);\n  event DidAccessSpace(address spaceAddress);\n  event DidGiftSpaceAccess(address spaceAddress);\n\n  string public network;\n  string public proxy;\n  uint256 public weiCostPerStorageByte;\n  mapping (address => address[]) public spacesByCreator;\n  mapping (address => address[]) public spacesByAccessor;\n\n  function init(\n    string memory _network\n  ) public initializer {\n    OwnableUpgradeable.__Ownable_init();\n    network = _network;\n    proxy = string(abi.encodePacked(\"https://\", _network, \".aqueousvarni.sh/\"));\n    // At an ETH price for ~$3200, a space of ~5mb will be\n    // around $34 USD. Given we're paying for data transfer\n    // and CDN costs for perpetuity, that feels about right.\n    weiCostPerStorageByte = 2100000000;\n  }\n\n  function release() public onlyOwner {\n    (bool success, ) = payable(owner()).call{ value: address(this).balance }(\"\");\n    require(success, \"failed_to_release\");\n  }\n\n  function releaseTo(address to) public onlyOwner {\n    (bool success, ) = payable(to).call{ value: address(this).balance }(\"\");\n    require(success, \"failed_to_release\");\n  }\n\n  function setWeiCostPerStorageByte(\n    uint256 _weiCostPerStorageByte\n  ) public onlyOwner {\n    weiCostPerStorageByte = _weiCostPerStorageByte;\n  }\n\n  function mintSpace(\n    uint256 supply,\n    uint256 spaceCapacityInBytes,\n    uint256 accessPriceInWei,\n    bool purchasable\n  ) public payable {\n    require(\n       msg.value >= weiCostToMintSpace(spaceCapacityInBytes),\n      \"bad_payment\"\n    );\n    require(\n      accessPriceInWei >= estimateSpaceFees(supply, spaceCapacityInBytes, accessPriceInWei),\n      \"price_too_low\"\n    );\n\n    address creator = _msgSender();\n    try new AQVSSpaceV1(\n      \"Aqueous Varnish V1\",\n      \"AQVS-V1\",\n      supply,\n      spaceCapacityInBytes,\n      accessPriceInWei,\n      purchasable,\n      creator,\n      proxy\n    )\n      returns (AQVSSpaceV1 space)\n    {\n      spacesByCreator[creator].push(address(space));\n      emit DidMintSpace(address(space));\n    } catch {\n      revert(\"make_space_failed\");\n    }\n  }\n\n  function accessSpace(\n    address spaceAddress\n  ) public payable {\n    AQVSSpaceV1 space = AQVSSpaceV1(spaceAddress);\n    require(space.creator() != address(0), \"space_must_exist\");\n    require(msg.value >= space.accessPriceInWei(), \"bad_payment\");\n    require(true == space.purchasable(), \"not_purchasable\");\n\n    address buyer = _msgSender();\n    require(space.balanceOf(buyer) == 0, \"already_owns_space\");\n\n    space._grantAccess(buyer);\n    uint256 fee = spaceFees(spaceAddress);\n    uint256 remainder = SafeMath.sub(msg.value, fee);\n    bool success = space.pay{ value: remainder }();\n    require(success, \"failed_to_pay_creator\");\n    spacesByAccessor[buyer].push(address(space));\n    emit DidAccessSpace(address(space));\n  }\n\n  function addSpaceCapacityInBytes(\n    address spaceAddress,\n    uint256 additionalSpaceCapacityInBytes\n  ) public payable returns (bool) {\n    AQVSSpaceV1 space = AQVSSpaceV1(spaceAddress);\n    require(space.creator() != address(0), \"space_must_exist\");\n    require(space.creator() == _msgSender(), \"only_creator\");\n    require(\n      weiCostToMintSpace(additionalSpaceCapacityInBytes) >= msg.value,\n      \"bad_payment\"\n    );\n    space._addSpaceCapacityInBytes(additionalSpaceCapacityInBytes);\n    return true;\n  }\n\n  function giftSpaceAccess(\n    address spaceAddress,\n    address giftee\n  ) public returns (bool) {\n    AQVSSpaceV1 space = AQVSSpaceV1(spaceAddress);\n    require(space.creator() != address(0), \"space_must_exist\");\n    require(space.creator() == _msgSender(), \"only_creator\");\n\n    require(space.balanceOf(giftee) == 0, \"already_owns_space\");\n    space._grantAccess(giftee);\n    spacesByAccessor[giftee].push(address(space));\n    emit DidGiftSpaceAccess(address(space));\n    return true;\n  }\n\n  /* Views */\n  function estimateSpaceFees(\n    uint256 supply,\n    uint256 spaceCapacityInBytes,\n    uint256 accessPriceInWei\n  ) public view returns (uint256) {\n    require(supply > 0, \"supply_too_low\");\n    require(supply < 1000000, \"supply_too_high\");\n    require(spaceCapacityInBytes > 255999, \"space_too_small\");\n    require(spaceCapacityInBytes < 100000000001, \"space_too_big\");\n    return (\n      spaceCapacityInBytes * weiCostPerStorageByte\n    ) + SafeMath.div(accessPriceInWei, 100);\n  }\n\n  function remainingSupply(\n    address spaceAddress\n  ) public view returns (uint256) {\n    AQVSSpaceV1 space = AQVSSpaceV1(spaceAddress);\n    require(space.creator() != address(0), \"space_must_exist\");\n    return space.remainingSupply();\n  }\n\n  function spaceFees(\n    address spaceAddress\n  ) public view returns (uint256) {\n    AQVSSpaceV1 space = AQVSSpaceV1(spaceAddress);\n    require(space.creator() != address(0), \"space_must_exist\");\n    return estimateSpaceFees(\n      space.supply(),\n      space.spaceCapacityInBytes(),\n      space.accessPriceInWei()\n    );\n  }\n\n  function weiCostToMintSpace(\n    uint256 spaceCapacityInBytes\n  ) public view returns (uint256) {\n    return spaceCapacityInBytes * weiCostPerStorageByte;\n  }\n\n  function spacesCreatedBy(\n    address creator\n  ) public view returns (address[] memory) {\n    return spacesByCreator[creator];\n  }\n\n  function spacesOwnedBy(\n    address owner\n  ) public view returns (address[] memory) {\n    return spacesByAccessor[owner];\n  }\n}\n",
  "sourcePath": "/Users/hhff/dev/aqueous-varnish/contracts/contracts/AQVSController.sol",
  "compiler": {
    "name": "solc",
    "version": "0.7.6+commit.7338295f.Emscripten.clang"
  },
  "schemaVersion": "3.3.3",
  "updatedAt": "2021-09-06T13:56:43.701Z",
  "devdoc": {
    "kind": "dev",
    "methods": {
      "owner()": {
        "details": "Returns the address of the current owner."
      },
      "renounceOwnership()": {
        "details": "Leaves the contract without owner. It will not be possible to call `onlyOwner` functions anymore. Can only be called by the current owner. NOTE: Renouncing ownership will leave the contract without an owner, thereby removing any functionality that is only available to the owner."
      },
      "transferOwnership(address)": {
        "details": "Transfers ownership of the contract to a new account (`newOwner`). Can only be called by the current owner."
      }
    },
    "version": 1
  },
  "userdoc": {
    "kind": "user",
    "methods": {},
    "version": 1
  }
}